:100000000C9462000C948A000C948A000C948A0070
:100010000C948A000C948A000C948A000C948A0038
:100020000C948A000C948A000C948A000C940808A2
:100030000C948A000C948A000C948A000C948A0018
:100040000C949F060C948A000C946D060C94470641
:100050000C948A000C948A000C948A000C948A00F8
:100060000C94E9060C948A0000000000240027008C
:100070002A0000000000250028002B0000000000DE
:1000800023002600290004040404040404040202DA
:100090000202020203030303030301020408102007
:1000A0004080010204081020010204081020000012
:1000B0000008000201000003040700000000000027
:1000C0000000C40811241FBECFEFD8E0DEBFCDBFB3
:1000D00013E0A0E0B1E0ECE4FBE202C005900D9279
:1000E000A035B107D9F726E0A0E5B3E001C01D9225
:1000F000A531B207E1F710E0C2E6D0E004C02197D5
:10010000FE010E94BF12C136D107C9F70E943E0905
:100110000C94A4150C940000982F2091810481E088
:10012000213208F043C080915D048111FCCF8091A1
:10013000800432E030935D0490935C049FEF9093D1
:100140005B0410925A0420935904A0E6B4E0E9E35A
:10015000F4E090E0291331C01092380490913804F3
:10016000880F892B8093380480913704813049F5BA
:1001700010923704809138048093BB008091BC00BA
:1001800083FDF8CF85EC8093BC0080915D048230C4
:10019000E1F380915B048F3FB1F080915B0480328A
:1001A000A1F080915B04803391F084E010925F04B1
:1001B0001092810410925E0408953D9131939F5FE7
:1001C000C9CF85EEE0CF80E0F1CF82E0EFCF83E0D2
:1001D000EDCF08950895AF92BF92CF92DF92EF9244
:1001E000FF920F931F93CF93DF936C017B018B01E1
:1001F000040F151FEB015E01AE18BF08C017D10731
:1002000059F06991D601ED91FC910190F081E02DBA
:10021000C6010995892B79F7C501DF91CF911F910F
:100220000F91FF90EF90DF90CF90BF90AF90089527
:10023000FC01538D448D252F30E0842F90E0821BEC
:10024000930B541710F0CF96089501970895FC0171
:10025000918D828D981761F0A28DAE0FBF2FB11DC9
:100260005D968C91928D9F5F9F73928F90E0089521
:100270008FEF9FEF0895FC01918D828D981731F0DB
:10028000828DE80FF11D858D90E008958FEF9FEF2F
:100290000895FC01918D228D892F90E0805C9F4F05
:1002A000821B91098F73992708958AE295E00E9435
:1002B000490121E0892B09F420E0822F089580E094
:1002C00090E0892B29F00E94550181110C940000C7
:1002D0000895FC01A48DA80FB92FB11DA35ABF4FDB
:1002E0002C91848D90E001968F739927848FA68935
:1002F000B7892C93A089B1898C91837080648C9389
:10030000938D848D981306C00288F389E02D808137
:100310008F7D80830895EF92FF920F931F93CF9369
:10032000DF93EC0181E0888F9B8D8C8D98131AC030
:10033000E889F989808185FF15C09FB7F894EE8917
:10034000FF896083E889F989808183708064808374
:100350009FBF81E090E0DF91CF911F910F91FF90BF
:10036000EF900895F62E0B8D10E00F5F1F4F0F7367
:100370001127E02E8C8D8E110CC00FB607FCFACF22
:10038000E889F989808185FFF5CFCE010E94690156
:10039000F1CFEB8DEC0FFD2FF11DE35AFF4FF082F3
:1003A0009FB7F8940B8FEA89FB8980818062CFCF59
:1003B000CF93DF93EC01888D8823B9F0AA89BB899C
:1003C000E889F9898C9185FD03C0808186FD0DC087
:1003D0000FB607FCF7CF8C9185FFF2CF808185FFA8
:1003E000EDCFCE010E946901E9CFDF91CF91089551
:1003F000833081F028F4813099F08230A9F008959B
:100400008730A9F08830C9F08430B1F48091800041
:100410008F7D03C0809180008F7780938000089546
:1004200084B58F7784BD089584B58F7DFBCF80918F
:10043000B0008F778093B00008958091B0008F7DD9
:10044000F9CFCF93DF93282F30E0F901E255FF4F2A
:100450008491F901E656FF4FD491F901EA57FF4F15
:10046000C491CC23A1F081110E94F801EC2FF0E09F
:10047000EE0FFF1FE458FF4FA591B491EC91ED23CF
:1004800081E090E009F480E0DF91CF91089580E071
:1004900090E0FACF1F93CF93DF93282F30E0F9013C
:1004A000E255FF4F8491F901E656FF4FD491F901CF
:1004B000EA57FF4FC491CC23A9F0162F81110E9457
:1004C000F801EC2FF0E0EE0FFF1FEE58FF4FA59163
:1004D000B4918FB7F894EC91111108C0D095DE2338
:1004E000DC938FBFDF91CF911F910895DE2BF8CF62
:1004F000CF93DF9390E0FC01E656FF4F24918A579B
:100500009F4FFC0184918823D1F090E0880F991FC0
:10051000FC01E859FF4FA591B491FC01EE58FF4F43
:10052000C591D491623071F49FB7F8943C91822FB9
:10053000809583238C93E8812E2B28839FBFDF91A6
:10054000CF9108958FB7F894EC912E2B2C938FBFF9
:10055000F6CF3FB7F8948091DB039091DC03A09134
:10056000DD03B091DE0326B5A89B05C02F3F19F02F
:100570000196A11DB11D3FBFBA2FA92F982F882723
:10058000BC01CD01620F711D811D911D42E0660FFE
:10059000771F881F991F4A95D1F708958F929F92D0
:1005A000AF92BF92CF92DF92EF92FF924B015C012C
:1005B0000E94A9026B017C010E94A9026C197D09AD
:1005C0008E099F09683E734081059105A8F321E0DB
:1005D000821A9108A108B10888EEC80E83E0D81EDF
:1005E000E11CF11C81149104A104B10429F7FF90CE
:1005F000EF90DF90CF90BF90AF909F908F90089535
:100600002FB7F8946091D7037091D8038091D903E4
:100610009091DA032FBF08958091E3039091E40352
:10062000891B990B089585ED8093BC008091BC00D7
:1006300084FDFCCF10925D04089520919303260F52
:100640003327331F21323105ECF420915D04FC0186
:1006500090E080E0243069F082E00895A091930357
:100660002191AC014D585C4FA40FB52FB11D2C93B7
:100670000196861798F380919303680F6093930314
:1006800080E0089581E008950895E091E403809169
:10069000E303E81730F4F0E0EA54FC4F808190E087
:1006A00008958FEF9FEF08959091E4038091E30305
:1006B0002FEF3FEF981748F4E92FF0E0EA54FC4F92
:1006C000208130E09F5F9093E403C9010895CF92A9
:1006D000DF92EF92FF920F931F93CF93DF937C01F2
:1006E000CB018A0120915E04222389F0EB016B018A
:1006F000C40ED51ECC15DD0569F06991D701ED91C9
:10070000FC910190F081E02DC7010995F3CF642F92
:100710000E941D03C801DF91CF911F910F91FF909F
:10072000EF90DF90CF900895CF93DF931F92CDB7D6
:10073000DEB7698320915E042223F9F020918104C1
:10074000203258F021E030E0FC013383228390E036
:1007500080E00F90DF91CF91089580915F04E82FA2
:10076000F0E0E05AFB4F998190838F5F80935F04A4
:100770008093810481E090E0ECCF61E0CE010196AE
:100780000E941D03F7CFCF93DF93EB0191E090938D
:100790005E048093800410925F04109281046DE2E5
:1007A00087EC95E00E949403688187EC95E00E94B5
:1007B000940381E00E948C0091E0811190E0892FE8
:1007C000DF91CF91089590E080E00895DC01EC91F5
:1007D000EC3090F511968C91119728E830E0281BA9
:1007E000310987FD3395220F331F220F331F621704
:1007F000730784F012968C9128E532E0281B3109AA
:1008000087FD3395220F331F220F331F62177307A3
:100810000CF49B0122503109220F331F4FB7F8947B
:100820008E2F90E0FC01EE0FFF1FE80FF91FED5235
:10083000FA4F328321834FBF0895CF93DF9342E86D
:1008400054E0FA0101900020E9F7AF014358544009
:1008500062E874E08AE295E00E94EB00EC0142E07D
:1008600050E063E471E08AE295E00E94EB008C0FB7
:100870009D1FDF91CF9108952F923F924F925F92EB
:100880006F927F928F929F92AF92BF92CF92DF92A0
:10089000EF92FF920F931F93CF93DF9300D000D07E
:1008A00000D01F92CDB7DEB7C82E762E4F833D8382
:1008B0002C830E9400034B015C012C2D220F2B8303
:1008C000DF80612C1E82FF24F3948D2D90E09A83AB
:1008D00089831801512C412CF0925E04C09280044F
:1008E00010925F0410928104672D87EC95E00E94BE
:1008F000940381E00E948C00F0925E0410925F04E9
:100900001092810480915D048111FCCF8D2D20E235
:100910002D1508F480E2F0925D04F0925C043FEF44
:1009200030935B0410925A049FEF980F90935904F0
:10093000F0923804909138042B81922B90933804D4
:10094000909137049130C1F510923704909138049A
:100950009093BB009091BC0093FDF8CF35EC3093A1
:10096000BC0090915D049130E1F390915A04981786
:1009700010F480915A04E9E3F4E0A6EBB3E0E12C33
:10098000E8121EC01092E403E092E3038091E403B6
:10099000E81629F101151105B9F487EC95E00E94DC
:1009A0005403EC81FD812E81E20FF11D27FDFA95A4
:1009B00080832F5F2E83EACF95EE9093BC00D1CF3A
:1009C00091919D93E394DCCF0E940003681979090B
:1009D0008A099B096215730584059505F0F23F812C
:1009E000630ED31A631608F477CF01151105C1F011
:1009F0000E940003681979098A099B0930E020E008
:100A0000601771078207930758F02E81822F220FFB
:100A1000990B29813A818217930714F43FEF3E83A3
:100A20008E8127960FB6F894DEBF0FBECDBFDF9143
:100A3000CF911F910F91FF90EF90DF90CF90BF90DB
:100A4000AF909F908F907F906F905F904F903F906E
:100A50002F900895DF92EF92FF920F931F93CF9301
:100A6000DF9300D0CDB7DEB7F82ED62EE42E08EEF9
:100A700013E09E012E5F3F4F41E06DE20E943C0477
:100A800021E030E001C0220FDA94EAF78A81EE20FB
:100A900099F0822B8A838983BE016F5F7F4F8F2DF0
:100AA0000E94C3030F900F90DF91CF911F910F9180
:100AB000FF90EF90DF90089520958223EBCF8F92E7
:100AC0009F92AF92BF92CF92DF92EF92FF920F93DD
:100AD0001F93CF93DF93C9E2D4E004E111E03BE838
:100AE000E32EFF24F39410926E0310926F03109282
:100AF0007003109271032AE030E0F80180818E309B
:100B000008F08E508770806480937C0080917A001A
:100B1000806480937A0080917A0086FDFCCF80917A
:100B2000780060917900762F682F072E000C880BD3
:100B3000990B80906E0390906F03A0907003B0901B
:100B40007103680D791D8A1D9B1D60936E03709360
:100B50006F038093700390937103F7013197F1F75E
:100B60002150310951F60E94901120E030E040E21E
:100B700051E40E94E8100E94611160936E0370932B
:100B80006F038093700390937103699379930F5F60
:100B90001F4FF4E0C333DF0709F0A5CF84E6E82E4A
:100BA00083E0F82E9AE5A92E93E0B92E2AE5C22E0D
:100BB00023E0D22EC0E5D3E008EE13E029EF35E0C4
:100BC00046E062E38091F8050E943C048091F905BB
:100BD0009091FA05899399938091FB059091FC057A
:100BE000F601819391936F018091FD059091FE052F
:100BF000F701819391937F01AC16BD06E9F684E07D
:100C000090E0E0E5F3E0AAE5B3E030E020E028176B
:100C10003907F4F4408151812F5F3F4F6281738126
:100C20006417750724F471836083538342834D9165
:100C30005D916D917C911197641775073CF4ED01FE
:100C400022977983688311965C934E933296DFCF17
:100C50000197B9F680915E0390915F0390930A0427
:100C60008093090480915403909155039093060456
:100C700080930504DF91CF911F910F91FF90EF902A
:100C8000DF90CF90BF90AF909F908F9008951F926C
:100C90000F920FB60F9211242F933F934F935F93B0
:100CA0006F937F938F939F93AF93BF93EF93FF9334
:100CB0008AE295E00E946901FF91EF91BF91AF91A7
:100CC0009F918F917F916F915F914F913F912F9164
:100CD0000F900FBE0F901F9018951F920F920FB696
:100CE0000F9211242F938F939F93EF93FF93E09193
:100CF0003A05F0913B058081E0914005F091410576
:100D000082FD1BC09081809143058F5F8F7320917E
:100D10004405821741F0E0914305F0E0E65DFA4FAB
:100D2000958F80934305FF91EF919F918F912F9124
:100D30000F900FBE0F901F9018958081F4CF1F92D7
:100D40000F920FB60F9211242F933F938F939F937F
:100D5000AF93BF938091D7039091D803A091D9030B
:100D6000B091DA033091D60323E0230F2D3758F5E5
:100D70000196A11DB11D2093D6038093D7039093B4
:100D8000D803A093D903B093DA038091DB03909149
:100D9000DC03A091DD03B091DE030196A11DB11D1E
:100DA0008093DB039093DC03A093DD03B093DE0319
:100DB000BF91AF919F918F913F912F910F900FBE57
:100DC0000F901F90189526E8230F0296A11DB11DC4
:100DD000D2CF1F920F920FB60F9211242F933F93F1
:100DE0004F935F936F937F938F939F93AF93BF9333
:100DF000EF93FF938091B900887F803609F44AC051
:100E0000F0F5883209F4A7C018F5803109F49BC0C9
:100E1000B8F4882309F4F9C0883009F494C0FF912C
:100E2000EF91BF91AF919F918F917F916F915F9162
:100E30004F913F912F910F900FBE0F901F901895DB
:100E4000883109F488C0803251F780935B0414C064
:100E5000803409F49DC040F48033B9F38833F9F647
:100E600080935B0485ECB0C0803509F485C088357B
:100E700009F496C0883499F60E941303D0CF8839BC
:100E800009F48CC038F5883729F050F4883611F011
:100E9000803729F683E080935D041092B50357C034
:100EA000883809F47BC0803919F0803809F0B7CF51
:100EB0008091B503803208F071C0E091B50381E004
:100EC0008E0F8093B5038091BB00F0E0EB56FC4F92
:100ED00080833DC0803B39F0E0F4803A09F479C06A
:100EE000883A09F09CCF84E080935D0410929403CB
:100EF00010929303E091E103F091E2030995809150
:100F0000930381110FC081E08093930310927303C8
:100F100009C0803C09F4A6CF883C09F4A3CF883BE4
:100F200009F07DCFE091940381E08E0F80939403CC
:100F3000F0E0ED58FC4F80818093BB0090919403CA
:100F40008091930329C0809138048093BB0085EC85
:100F50008093BC0064CF90915A04809159049817F3
:100F600058F5E0915A0481E08E0F80935A04F0E026
:100F7000E75CFB4F8081E9CFE0915A0481E08E0F5E
:100F800080935A048091BB00F0E0E75CFB4F8083C4
:100F900090915A04809159049817C8F285E8D8CFE7
:100FA000E0915A0481E08E0F80935A048091BB0037
:100FB000F0E0E75CFB4F808380915C0481115CCFA3
:100FC00081E08093370484EA8093BC0010925D0432
:100FD00026CF85EC8093BC0010925D048091B50310
:100FE000803230F4E091B503F0E0EB56FC4F108214
:100FF0006091B50370E0E091DF03F091E00385E9D3
:1010000093E009951092B5030ACF10925B0434CF98
:101010001F920F920FB60F9211242F933F934F936D
:101020005F936F937F938F939F93AF93BF93CF9370
:10103000DF93EF93FF9380917203C091F705D0E0A7
:1010400087FF24C010928500109284008091720363
:101050008F5F8093720380917203082E000C990BAE
:101060008C179D0724F4809172038C30C4F1809119
:10107000840090918500049680349C4908F47AC0DD
:101080008091840090918500049676C080917203CF
:10109000082E000C990B8C179D07C4F6E091720383
:1010A0008E2FEE0F990BFC01EE0FFF1FE80FF91FBB
:1010B000ED52FA4F808186FFC9CFE09172038E2FE7
:1010C000EE0F990BFC01EE0FFF1FE80FF91FED5219
:1010D000FA4F808160E08F730E944A02B7CF20915F
:1010E000840030918500E09172038E2FEE0F990BF2
:1010F000FC01EE0FFF1FE80FF91FED52FA4F81813F
:101100009281820F931F9093890080938800E091D1
:1011100072038E2FEE0F990BFC01EE0FFF1FE80FED
:10112000F91FED52FA4F808186FF11C0E0917203E2
:101130008E2FEE0F990BFC01EE0FFF1FE80FF91F2A
:10114000ED52FA4F808161E08F730E944A02FF9155
:10115000EF91DF91CF91BF91AF919F918F917F914F
:101160006F915F914F913F912F910F900FBE0F9014
:101170001F90189580E49CE99093890080938800E3
:101180008FEF80937203E3CF10922D0510922C0500
:1011900088EE93E0A0E0B0E080932E0590932F05B9
:1011A000A0933005B093310523E231E030932B0555
:1011B00020932A0525EC30E030933705209336053F
:1011C00024EC30E0309339052093380520EC30E0F2
:1011D00030933B0520933A0521EC30E030933D05F8
:1011E00020933C0522EC30E030933F0520933E05F0
:1011F00026EC30E0309341052093400510924305E2
:101200001092440510924505109246051092CA05A9
:101210001092C9058093CB059093CC05A093CD0582
:10122000B093CE0585E391E09093C8058093C70500
:10123000E3E0F6E025E136E04FEF68EB7BE08091FC
:10124000F7058C30C8F491E0980F9093F7058083F0
:1012500090E0DC01AA0FBB1FA80FB91FAD52BA4F17
:1012600012967C936E93119733962E173F0739F79A
:1012700083E58093F80508954083F6CFCF93DF93FD
:1012800000D000D000D01F92CDB7DEB7789484B5DF
:10129000826084BD84B5816084BD85B5826085BD72
:1012A00085B5816085BD80916E00816080936E0000
:1012B00010928100809181008260809381008091F2
:1012C00081008160809381008091800081608093A3
:1012D00080008091B10084608093B1008091B00063
:1012E00081608093B00080917A00846080937A005E
:1012F00080917A00826080937A0080917A00816088
:1013000080937A0080917A00806880937A001092AE
:10131000C100E0913A05F0913B0582E08083E091C5
:101320003605F09137051082E0913805F0913905C6
:1013300080E1808310924205E0913E05F0913F05E7
:1013400086E08083E0913C05F0913D0580818061DD
:101350008083E0913C05F0913D0580818860808329
:10136000E0913C05F0913D05808180688083E091AB
:101370003C05F0913D0580818F7D808361E08DE0AB
:101380000E94780261E085E00E94780262E084E0D9
:101390000E94780262E083E00E9478021092E403E7
:1013A0001092E30310925F041092810410925D0486
:1013B00081E080935C041092370461E082E10E9436
:1013C0004A0261E083E10E944A028091B9008E7F67
:1013D0008093B9008091B9008D7F8093B90088E433
:1013E0008093B80085E48093BC0089EE90E09093F0
:1013F000E2038093E1038AEE90E09093E003809310
:10140000DF038091F8051982BE016F5F7F4F0E9454
:10141000C30341E064E08091F8050E942A0541E0A1
:1014200063E08091F8050E942A0508EE13E029EF99
:1014300035E041E060E08091F8050E943C04F4EF63
:10144000EF2EF3E0FF2E10E000E0C8010E946510CF
:10145000D7018D937D010F5F1F4F0A301105A9F74A
:10146000EAEEEE2EE3E0FE2E04E110E0C8010E9459
:101470006510F70181937F010F5F1F4F0E3111053A
:10148000A9F750E0E52E51E0F52E6FE1A62E64E0BD
:10149000B62E7AEEC72E73E0D72E04EF13E0D801F4
:1014A0006D917D918D01F601219131916F01CB01FB
:1014B000820F931F97FD019695958795D5018D9382
:1014C0009D935D01621B730B77FF03C0719561955E
:1014D0007109072E000C880B990B0E9492119B0139
:1014E000AC0160E070E08AE794E40E94E810F70144
:1014F00061937193819391937F01F3E00E3F1F07F6
:1015000071F68EE190E00E946510182F8FE190E057
:101510000E946510212F30E0322F2227820F932F57
:10152000911D9450909308048093070482E290E008
:101530000E946510182F83E290E00E946510212F11
:1015400030E0322F2227820F932F911D94509093D9
:1015500004048093030403E016E0EE24E394F12CEA
:101560009CE0D92E22E0C22ED8018C918C3008F05C
:1015700057C0F701E85EFE4FB08061E08B2D0E94FE
:101580007802F8018081282F30E0F901EE0FFF1F6B
:10159000E20FF31FED52FA4F2B2D2F739081907CA9
:1015A000922B9083D80111961C92119712961C923F
:1015B0006D2D0E948B128D9DA001112430E020E042
:1015C000BA01620F731FFB01EE0FFF1FE60FF71F3B
:1015D000ED52FA4F908196FD15C02F5F3F4F2C3092
:1015E000310571F781110EC010928000C092810008
:1015F0001092850010928400B19A80916F008260F1
:1016000080936F00D801EC918E2F90E0FC01EE0FDB
:10161000FF1FE80FF91FED52FA4F8081806480832D
:101620006CED75E0C8010E94E603BFEFEB1AFB0A00
:101630000D5F1F4FE7E0EE16F10409F095CF60E073
:101640008DE00E944A0261E085E00E944A0264E661
:1016500070E080E090E00E94CE0261E08DE00E94A8
:101660004A0260E085E00E944A0264E670E080E0A1
:1016700090E00E94CE0260E08DE00E944A0261E0AC
:1016800085E00E944A0264E670E080E090E00E94FB
:10169000CE0261E08DE00E944A0260E085E00E9497
:1016A0004A0264E670E080E090E00E94CE0260E0D2
:1016B0008DE00E944A0261E085E00E944A0264E6F1
:1016C00070E080E090E00E94CE0261E08DE00E9438
:1016D0004A0260E085E00E944A0264E670E080E031
:1016E00090E00E94CE028091FD038F938091FC03D5
:1016F0008F938091FB038F938091FA038F93809156
:10170000F9038F938091F8038F938091F7038F9360
:101710008091F6038F938091F5038F938091F4036A
:101720008F93809104048F93809103048F93809111
:1017300008048F93809107048F9386E491E09F9330
:101740008F9302E814E01F930F930E94CC120E9423
:101750001D048091F3038F938091F2038F93809106
:10176000F1038F938091F0038F938091EF038F9318
:101770008091EE038F938091ED038F938091EC0322
:101780008F938091EB038F938091EA038F938091E5
:1017900004048F93809103048F93809108048F93A6
:1017A000809107048F9385E791E09F938F931F9318
:1017B0000F930E94CC120FB6F894DEBF0FBECDBFC0
:1017C0000E941D0468EB7BE080E090E00E94CE0266
:1017D000A4EF2A2E33243394B8EB8B2EBBE09B2E40
:1017E0000E9400030091E6031091E7032091E803B3
:1017F0003091E903601B710B820B930B643F7140C6
:1018000081059105B8F00E9400036093E603709390
:10181000E7038093E8039093E9038091E50391E067
:10182000811190E09093E50360E0811161E08DE02B
:101830000E944A0283E00E942102892B09F068C1BC
:101840008091FE03811164C16AE070E080E090E065
:101850000E94CE0283E00E942102892B09F47FC2FC
:1018600084E00E942102892B49F46AE070E080E064
:1018700090E00E94CE0284E00E9421020E940003B8
:1018800000913304109134042091350430913604D2
:10189000601B710B820B930B6536710581059105F9
:1018A00008F433C30E94000360933304709334043C
:1018B00080933504909336040E945F0529E234E05A
:1018C0003D832C8305E114E03BE0C32E34E0D32EAE
:1018D00060E071E07F836E838FE194E09B838A8375
:1018E000F12CE12CAC81BD81AD90BD90BD83AC836A
:1018F000EA81FB8181919191FB83EA83AE81BF8173
:101900004D905D906D907D90BF83AE83B501681B57
:10191000790B072E000C880B990B0E949211A301E2
:1019200092010E941E1220E030E84BEB54E40E942A
:101930007C100E945A119B01F80171836083D601CB
:101940008D919D916D018A199B0997FF03C0919517
:10195000819591090597B4F0F6013297B182A08282
:10196000253CB9E03B070CF487C224EC39E0F801D0
:1019700031832083F80160817181C7018A5F994FAB
:101980000E94E6030E5F1F4FF3E0EF0EF11C2FE005
:10199000E216F10409F0A6CF6091090470910A04DF
:1019A0008091070490910804DB01A81BB90BE7E7BD
:1019B000F1E0EA1BFB0BCF01880F991F880F991FDD
:1019C0009401281B390BC901853C39E093070CF4BD
:1019D0005BC284EC99E090930A04809309044091DF
:1019E00005045091060480910304909104049A0127
:1019F000281B390B1AEF1203C001139F900D1124FD
:101A000084529A4F853CB9E09B070CF447C2E4EC42
:101A1000F9E0F0930604E093050480911504909199
:101A20001604893027E092070CF4D1C28091170484
:101A300090911804803B94400CF0E9C28091190405
:101A400090911A04803B94400CF0E1C280911B04F9
:101A500090911C04893097400CF4D9C280911D04E8
:101A600090911E04893097400CF4D1C280910904F2
:101A700090910A042091050430910604DC01A61B14
:101A8000B70BBD01B7FF03C0719561957109653052
:101A900071056CF4F901E41BF50BAF01F7FF03C00E
:101AA000519541955109453051050CF426C240919C
:101AB000FF03509100046091010470910204213DE4
:101AC000F7E03F070CF42EC28D3D25E092070CF4A1
:101AD000F3C1803D37E093070CF4F6C1813DA7E0E8
:101AE0009A070CF447C2433051056105710509F4AA
:101AF00004C263E070E080E090E06093FF037093C5
:101B00000004809301049093020465E172E0EFC148
:101B100083E00E942102892B09F0A2CE8091FE036E
:101B2000813009F09DCE6AE070E080E090E00E9494
:101B3000CE0283E00E942102892B09F091CE83E03E
:101B40000E942102892BD9F30E945F05809129040C
:101B500090912A049093EB038093EA0380912B04E5
:101B600090912C049093ED038093EC0380912D04CD
:101B700090912E049093EF038093EE0380912F04B5
:101B8000909130049093F1038093F003809131049D
:101B9000909132049093F3038093F20360E0E62E79
:101BA00061E0F62E7FE1A72E74E0B72EEAEECE2E8E
:101BB000E3E0DE2E04EF13E0F801619171918F01F3
:101BC000D6012D913D916D01CB01820F931F97FDA1
:101BD000019695958795F501819391935F01621B1D
:101BE000730B77FF03C0719561957109072E000C87
:101BF000880B990B0E9492119B01AC0160E070E090
:101C00008AE794E40E94E810D7016D937D938D9349
:101C10009D937D01B3E00E3F1B0771F661E085E007
:101C20000E944A0264EF71E080E090E00E94CE02E0
:101C300060E085E00E944A024AEEE42E43E0F42E82
:101C400004E110E0F70161917F01C8010E946D106D
:101C50000F5F1F4F0E311105A9F7409109045091F4
:101C60000A04CA019C5F90930804809307042091A2
:101C70000504309106043C5F309304042093030470
:101C800097FF02C081509F4F692F8EE190E00E9424
:101C90006D10809107049091080460E071E00E944B
:101CA0009712682F8FE190E00E946D1080910304DD
:101CB0009091040497FF02C081509F4F692F82E2E8
:101CC00090E00E946D10809103049091040460E004
:101CD00071E00E949712682F83E290E00E946D10DD
:101CE0001092FE03809132048F93809131048F9380
:101CF000809130048F9380912F048F9380912E04D4
:101D00008F9380912D048F9380912C048F938091D9
:101D10002B048F9380912A048F93809129048F93B1
:101D2000809106048F93809105048F9380910A041B
:101D30008F93809109048F9325EA31E03F932F938D
:101D400082E894E09F938F930E94CC120E941D041E
:101D500068EB7BE080E090E00E94CE0287C083E0E9
:101D60000E942102892BD9F30E945F0580912904EA
:101D700090912A049093F5038093F40380912B04AF
:101D800090912C049093F7038093F60380912D0497
:101D900090912E049093F9038093F80380912F047F
:101DA000909130049093FB038093FA038091310467
:101DB000909132049093FD038093FC0361E085E0F1
:101DC0000E944A0264E670E080E090E00E94CE0249
:101DD00060E085E00E944A02F4EFEF2EF3E0FF2E70
:101DE00010E000E0D7016D917D01C8010E946D10E7
:101DF0000F5F1F4F0A301105A9F781E08093FE03A2
:101E0000809132048F93809131048F9380913004BC
:101E10008F9380912F048F9380912E048F938091C4
:101E20002D048F9380912C048F9380912B048F939A
:101E300080912A048F93809129048F9380910604C6
:101E40008F93809105048F9380910A048F938091E2
:101E500009048F93E5EAF1E0FF93EF9362E874E001
:101E60007F936F930E94CC120E941D040FB6F894CA
:101E7000DEBF0FBECDBFF4CC243F31400CF07ACD95
:101E8000D8012D923C9276CD843FA1E09A070CF0C8
:101E9000A2CD30920A0420920904A1CD843FF1E042
:101EA0009F072CF09093060480930504B6CD3092E2
:101EB000060420920504B1CD2CED35E0281B390B2A
:101EC000243F31400CF056C0413051056105710589
:101ED000A1F061E070E080E090E06093FF03709318
:101EE0000004809301049093020463ED71E082E8A2
:101EF00094E00E94C5120E941D0460910904709133
:101F00000A0483E096E00E94E60380E090E0892BDB
:101F100009F466CC0E945501882309F459CC0E942B
:101F2000000056CC283E33400CF0D8CD8D3DB5E0B6
:101F30009B07CCF0803DE7E09E070CF0CFCD423010
:101F4000510561057105C9F262E070E080E090E042
:101F50006093FF0370930004809301049093020444
:101F600064EF71E0C4CF2CED35E0281B390B243F22
:101F700031402CF3883E9340ACF444305105610568
:101F8000710509F4BACF64E070E080E090E06093FE
:101F9000FF0370930004809301049093020466E3AE
:101FA00072E0A5CF453051056105710509F4A5CF53
:101FB00085E090E0A0E0B0E08093FF039093000400
:101FC000A0930104B093020467E572E090CF803BD8
:101FD0009440ECF480911704909118048930974054
:101FE000B4F08091190490911A04893097407CF0E4
:101FF00080911B0490911C04803B944044F4809198
:102000001D0490911E04803B94400CF476CF809187
:10201000FF0390910004A0910104B0910204892B68
:102020008A2B8B2B81F01092FF03109200041092E8
:1020300001041092020462ED72E082E894E00E94D2
:10204000C5120E941D0480911E048F9380911D046F
:102050008F9380911C048F9380911B048F938091A8
:10206000190490911A04B401681B790BCB019F935A
:102070006F938091170490911804D401A81BB90B99
:10208000CD019F93AF938091150490911604F401B4
:10209000E81BF90BCF019F93EF9380910A048F9374
:1020A000809109048F9323EF32E03F932F9382E8CE
:1020B00094E09F938F930E94CC120E941D040FB650
:1020C000F894DEBF0FBECDBF18CFF999FECF92BDF9
:1020D00081BDF89A992780B50895262FF999FECFEA
:1020E0001FBA92BD81BD20BD0FB6F894FA9AF99A35
:1020F0000FBE019608955058BB27AA270E9493103F
:102100000C94E4110E94D61138F00E94DD1120F0E9
:1021100039F49F3F19F426F40C94D3110EF4E09592
:10212000E7FB0C94CD11E92F0E94F51158F3BA1773
:10213000620773078407950720F079F4A6F50C94DD
:1021400017120EF4E0950B2EBA2FA02D0B01B9013A
:1021500090010C01CA01A0011124FF27591B99F01D
:10216000593F50F4503E68F11A16F040A22F232F29
:10217000342F4427585FF3CF469537952795A79579
:10218000F0405395C9F77EF41F16BA0B620B730B20
:10219000840BBAF09150A1F0FF0FBB1F661F771F91
:1021A000881FC2F70EC0BA0F621F731F841F48F446
:1021B000879577956795B795F7959E3F08F0B0CFCF
:1021C0009395880F08F09927EE0F979587950895B6
:1021D0000E94FC100C94E4110E94DD1158F00E9442
:1021E000D61140F029F45F3F29F00C94CD11511124
:1021F0000C9418120C94D3110E94F51168F39923D2
:10220000B1F3552391F3951B550BBB27AA276217F2
:102210007307840738F09F5F5F4F220F331F441FFF
:10222000AA1FA9F335D00E2E3AF0E0E832D0915033
:102230005040E695001CCAF72BD0FE2F29D0660F20
:10224000771F881FBB1F261737074807AB07B0E863
:1022500009F0BB0B802DBF01FF2793585F4F3AF069
:102260009E3F510578F00C94CD110C9418125F3FED
:10227000E4F3983ED4F3869577956795B795F795EF
:102280009F5FC9F7880F911D9695879597F90895D7
:10229000E1E0660F771F881FBB1F62177307840773
:1022A000BA0720F0621B730B840BBA0BEE1F88F782
:1022B000E09508950E9461116894B1110C94181270
:1022C00008950E94FD1188F09F5798F0B92F992723
:1022D000B751B0F0E1F0660F771F881F991F1AF011
:1022E000BA95C9F714C0B13091F00E941712B1E04D
:1022F00008950C941712672F782F8827B85F39F04C
:10230000B93FCCF3869577956795B395D9F73EF4A9
:1023100090958095709561957F4F8F4F9F4F089551
:10232000E89409C097FB3EF490958095709561956F
:102330007F4F8F4F9F4F9923A9F0F92F96E9BB2725
:102340009395F695879577956795B795F111F8CFA1
:10235000FAF4BB0F11F460FF1BC06F5F7F4F8F4F0C
:102360009F4F16C0882311F096E911C0772321F002
:102370009EE8872F762F05C0662371F096E8862F9A
:1023800070E060E02AF09A95660F771F881FDAF7F1
:10239000880F9695879597F9089597F99F6780E834
:1023A00070E060E008959FEF80EC089500240A94A7
:1023B0001616170618060906089500240A94121620
:1023C0001306140605060895092E0394000C11F453
:1023D000882352F0BB0F40F4BF2B11F460FF04C000
:1023E0006F5F7F4F8F4F9F4F089557FD9058440F59
:1023F000551F59F05F3F71F04795880F97FB991F64
:1024000061F09F3F79F08795089512161306140620
:10241000551FF2CF4695F1DF08C0161617061806AD
:10242000991FF1CF86957105610508940895E89488
:10243000BB2766277727CB0197F908950E943112B1
:102440000C94E4110E94D61138F00E94DD1120F0A6
:10245000952311F00C94CD110C94D31111240C94EC
:1024600018120E94F51170F3959FC1F3950F50E07B
:10247000551F629FF001729FBB27F00DB11D639F36
:10248000AA27F00DB11DAA1F649F6627B00DA11DDC
:10249000661F829F2227B00DA11D621F739FB00D82
:1024A000A11D621F839FA00D611D221F749F3327F2
:1024B000A00D611D231F849F600D211D822F762F8B
:1024C0006A2F11249F5750409AF0F1F088234AF068
:1024D000EE0FFF1FBB1F661F771F881F91505040D4
:1024E000A9F79E3F510580F00C94CD110C94181261
:1024F0005F3FE4F3983ED4F3869577956795B7955B
:10250000F795E7959F5FC1F7FE2B880F911D969574
:10251000879597F90895991B79E004C0991F96173C
:1025200008F0961B881F7A95C9F78095089597FB48
:10253000072E16F4009407D077FD09D00E94AB1245
:1025400007FC05D03EF4909581959F4F08957095B6
:1025500061957F4F0895AA1BBB1B51E107C0AA1FBD
:10256000BB1FA617B70710F0A61BB70B881F991F34
:102570005A95A9F780959095BC01CD010895EE0F6D
:10258000FF1F0590F491E02D0994FB01DC010190FF
:102590000D920020E1F70895AEE0B0E0E2EDF2E147
:1025A0000C947B150D891E8986E08C831A83098320
:1025B0008FEF9FE79E838D83AE01475E5F4F6F89EC
:1025C000788DCE0101960E94EF122F813885020F7F
:1025D000131FF80110822E96E4E00C949715ABE0DF
:1025E000B0E0E5EFF2E10C946D157C013B018A014E
:1025F000FC0117821682838181FFC8C1CE0101963A
:102600005C01F7019381F30193FD859193FF819123
:102610003F01882309F453C1853239F493FD859134
:1026200093FF81913F01853229F4B70190E00E9428
:10263000DF14E7CF912C212C312CFFE1F31538F07A
:102640008B3211F190F4803209F1833229F137FC99
:102650003CC020ED280F2A3050F536FE20C08AE01D
:10266000989E200D1124922E06C08D3291F0803359
:1026700071F7689430F8F30193FD859193FF819190
:102680003F018111DACF21C0689431F8689432F8A3
:10269000F2CF689433F8EFCF689434F8ECCFEAE0E7
:1026A0002E9E200D1124222E689435F8E4CF8E3210
:1026B00029F436FC04C1689436F8DDCF8C3619F461
:1026C000689437F8D8CF8836B1F2982F9F7D95540B
:1026D0009330E0F08336A1F18337C1F1833509F0FF
:1026E00063C02801F2E04F0E511CF801C080D18078
:1026F000692D70E036FC02C06FEF7FEFC6010E94CB
:10270000C9144C01689437F882010AC00C5F1F4F4E
:10271000FFE3F98388248394912C6501E89437F8CA
:1027200033FE2DC0522C8114910471F5552009F40B
:1027300068CFB70180E290E00E94DF145A94F6CF90
:10274000F801808189830E5F1F4FE4CF2801F2E0FA
:102750004F0E511CF801C080D180692D70E036FC0D
:1027600002C06FEF7FEFC6010E94D4144C018201BA
:10277000D5CFB70180E290E00E94DF142A9428149C
:10278000190409F0B0F7CECFF60137FC859137FE7A
:1027900081916F01B70190E00E94DF1451105A94AB
:1027A000F1E08F1A9108BFCF843619F0893609F00D
:1027B00077C0F80137FE6BC060817181828193819F
:1027C0000C5F1F4FF32DFF763F2E97FF09C09095AA
:1027D0008095709561957F4F8F4F9F4F689437F824
:1027E0002AE030E0A5010E940F15C82ECA188C2CD3
:1027F000432C36FE0CC0E89440F8C91440F434FE73
:1028000005C032FC03C0F32DFE7E4F2E892C44FE02
:1028100095C0FE01EC0DF11D8081803309F087C069
:10282000242D297E422E842D8870582E43FC95C07D
:1028300040FE8FC09C2C821418F42C0C922C9818FB
:1028400044FE91C0B70180E390E00E94DF1442FE95
:1028500009C088E790E041FE02C088E590E0B7013A
:102860000E94DF14C91408F48AC0CA94D12C9FEFC7
:10287000C91AD90ACA0CDB1CF60182916F01B70193
:1028800090E00E94DF14AC14BD04B1F74FCF60811B
:102890007181072E000C880B990B0E5F1F4F92CF92
:1028A000D32CE894D4F82AE030E0853739F1232D91
:1028B000297FD22E8F3601F148F48835A9F0F7012F
:1028C000868197812B96E2E10C948915803749F037
:1028D0008837A9F7D4FE02C06894D2F820E130E02E
:1028E0000DC06894D4F8F6CF34FE03C0822F866002
:1028F000D82E20E132E002C028E030E0F801D7FE17
:102900000FC060817181828193810C5F1F4FA5018F
:102910000E940F15C82ECA183D2CE89437F867CFCF
:102920006081718190E080E00E5F1F4FF0CF42FC2C
:1029300002C0839478CF8394839475CF842D867856
:1029400009F471CFF6CFB70180E290E00E94DF1466
:1029500083948214C0F3512C73CF522C58188214D4
:1029600008F46ECFF8CF842D867809F47BCF8BE204
:1029700041FE80E247FC8DE2B70190E071CFB701E4
:1029800080E390E00E94DF149A946CCF8FEF9FEF6A
:1029900099CFFC010590615070400110D8F78095E7
:1029A00090958E0F9F1F0895FC016150704001901B
:1029B0000110D8F7809590958E0F9F1F08950F9363
:1029C0001F93CF93DF93182F092FEB018B8181FD8C
:1029D00009C01FEF0FEF812F902FDF91CF911F9133
:1029E0000F91089582FF14C02E813F818C819D81BB
:1029F000281739073CF4E881F981CF0101969983C2
:102A0000888310838E819F8101969F838E83E3CF7D
:102A1000E885F985812F0995892BA1F3DACFFA0191
:102A2000AA27283051F1203181F1E8946F936E7F0D
:102A30006E5F7F4F8F4F9F4FAF4FB1E03ED0B4E0FE
:102A40003CD0670F781F891F9A1FA11D680F791F3F
:102A50008A1F911DA11D6A0F711D811D911DA11D50
:102A600020D009F468943F912AE0269F1124301960
:102A7000305D3193DEF6CF010895462F4770405DFB
:102A80004193B3E00FD0C9F7F6CF462F4F70405DAA
:102A90004A3318F0495D31FD4052419302D0A9F705
:102AA000EACFB4E0A6959795879577956795BA95FF
:102AB000C9F700976105710508959B01AC010A2EC5
:102AC00006945795479537952795BA95C9F7620F9C
:102AD000731F841F951FA01D08952F923F924F9240
:102AE0005F926F927F928F929F92AF92BF92CF929E
:102AF000DF92EF92FF920F931F93CF93DF93CDB7A7
:102B0000DEB7CA1BDB0B0FB6F894DEBF0FBECDBF1E
:102B100009942A88398848885F846E847D848C84EF
:102B20009B84AA84B984C884DF80EE80FD800C81F8
:102B30001B81AA81B981CE0FD11D0FB6F894DEBFDB
:0C2B40000FBECDBFED010895F894FFCF4B
:102B4C000000803F0000803F0000803F0000803F7D
:102B5C000000803F14150E10110B0A09080706001F
:102B6C000000008B01EB001801D801490127013B43
:102B7C00010000000094036703E30344030C0354B7
:102B8C000345030D0A00783A2530346420793A2540
:102B9C00303464204144435F4D494E3A253034640F
:102BAC0020253034642025303464202530346420D2
:102BBC002530346400783A2530346420793A253055
:102BCC00346420204144435F4D41583A25303464ED
:102BDC0020253034642025303464202530346420A2
:102BEC002530346400783A256420793A25642061D4
:102BFC0064303A2564206164313A25642061643183
:102C0C003A2564206164333A2564206164343A25A2
:102C1C006420007B23303036503235303054303025
:102C2C003030212330303750303530305430303064
:102C3C0030217D007B2330303650303530305430ED
:102C4C003030302123303037503235303054303042
:102C5C003030217D007B23303036503234303054CC
:102C6C003030303021233030375032343030543023
:102C7C00303030217D007B233030365030363030D0
:102C8C0054303030302123303037503036303054DF
:102C9C0030303030217D007B2330303650313530B0
:102CAC0030543030303021233030375031353030E3
:102CBC0054303030302123303030503135303054B6
:102CCC0031353030212330303150313030305431C7
:102CDC0035303021233030325032303030543135B1
:102CEC0030302123303033503230303054313530A5
:102CFC003021233030345032303030543135303094
:102D0C002123303035503230303054313530302191
:102D1C007D007B23303036503135303054303030FC
:102D2C003021233030375031353030543030303062
:102D3C00217D007B233030305025303464543031C9
:102D4C003030212330303150253034645430313020
:102D5C00302123303032502530346454303130300F
:102D6C00212330303350253034645430313030210D
:102D7C0023303034502530346454303130302123FA
:102D8C0030303550253034645430313030217D00B2
:107E0000112484B714BE81FFF0D085E080938100F7
:107E100082E08093C00088E18093C10086E0809377
:107E2000C20080E18093C4008EE0C9D0259A86E02C
:107E300020E33CEF91E0309385002093840096BBD3
:107E4000B09BFECF1D9AA8958150A9F7CC24DD24C4
:107E500088248394B5E0AB2EA1E19A2EF3E0BF2EE7
:107E6000A2D0813461F49FD0082FAFD0023811F036
:107E7000013811F484E001C083E08DD089C08234E0
:107E800011F484E103C0853419F485E0A6D080C0E4
:107E9000853579F488D0E82EFF2485D0082F10E0AE
:107EA000102F00270E291F29000F111F8ED06801E7
:107EB0006FC0863521F484E090D080E0DECF843638
:107EC00009F040C070D06FD0082F6DD080E0C81688
:107ED00080E7D80618F4F601B7BEE895C0E0D1E017
:107EE00062D089930C17E1F7F0E0CF16F0E7DF06D8
:107EF00018F0F601B7BEE89568D007B600FCFDCFD4
:107F0000A601A0E0B1E02C9130E011968C91119780
:107F100090E0982F8827822B932B1296FA010C0160
:107F200087BEE89511244E5F5F4FF1E0A038BF0790
:107F300051F7F601A7BEE89507B600FCFDCF97BE46
:107F4000E89526C08437B1F42ED02DD0F82E2BD052
:107F50003CD0F601EF2C8F010F5F1F4F84911BD097
:107F6000EA94F801C1F70894C11CD11CFA94CF0C13
:107F7000D11C0EC0853739F428D08EE10CD085E9AC
:107F80000AD08FE07ACF813511F488E018D01DD067
:107F900080E101D065CF982F8091C00085FFFCCF94
:107FA0009093C60008958091C00087FFFCCF809118
:107FB000C00084FD01C0A8958091C6000895E0E648
:107FC000F0E098E1908380830895EDDF803219F02E
:107FD00088E0F5DFFFCF84E1DECF1F93182FE3DFCA
:107FE0001150E9F7F2DF1F91089580E0E8DFEE27F6
:047FF000FF270994CA
:027FFE00040479
:0400000300007E007B
:00000001FF
