:020000040800F2
:10000000A8210020E527000837020008390200086F
:100010003D020008410200084502000800000000FF
:10002000000000000000000000000000490200087D
:100030004B020008000000004D0200088345000844
:10004000FF270008FF270008FF270008FF270008F8
:10005000FF270008FF270008FF270008FF270008E8
:10006000FF270008FF270008FF270008FF270008D8
:10007000FF270008FF270008FF270008FF270008C8
:10008000FF270008FF270008FF270008FF270008B8
:10009000FF270008FF270008FF270008FF270008A8
:1000A000FF2700085B4A0008FF270008B74A00083E
:1000B000BF48000879490008FF270008FF2700080B
:1000C000FF270008FF270008FF270008FF27000878
:1000D000FF27000841510008775200087D530008AF
:1000E000FF270008FF270008FF270008FF27000858
:1000F000FF270008FF270008FF270008FF27000848
:10010000FF270008FF270008FF270008FF27000837
:10011000FF270008FF270008FF270008FF27000827
:10012000FF270008FF270008FF270008FF27000817
:1001300000F002F800F070F80AA090E8000C824489
:100140008344AAF10107DA4501D100F065F8AFF266
:10015000090EBAE80F0013F0010F18BFFB1A43F0A5
:100160000103184764B3000084B300000A444FF051
:10017000000C10F8013B13F0070408BF10F8014B06
:100180001D1108BF10F8015B641E05D010F8016B4B
:10019000641E01F8016BF9D113F0080F1EBF10F8AF
:1001A000014BAD1C0C1B09D16D1E58BF01F801CBD2
:1001B000FAD505E014F8016B01F8016B6D1EF9D555
:1001C0009142D6D37047000000230024002500266A
:1001D000103A28BF78C1FBD8520728BF30C148BFAA
:1001E0000B60704766290AF0F885642907F056818C
:1001F000002070471FB507F0D1FE04000020002149
:1002000009F038FC401C60600020002109F01CFC53
:10021000E0601FBD10B510BD08F084F91146FFF76E
:10022000E9FF03F064FE08F0ABF903B4FFF7F2FF57
:1002300003BC08F0EBF9704700BFFEE700BFFEE724
:1002400000BFFEE700BFFEE7704770477047000041
:1002500000210020674A126842F48032654B1A6020
:1002600000BF644A126802F40030491C10B9B1F5AD
:10027000A06FF6D15F4A126812F4003F01D001204E
:1002800000E00020012842D15B4A126842F01002CF
:10029000594B1A601A46126822F003021A601A4675
:1002A000126842F002021A60524A5268514B5A6078
:1002B0001A4652685A601A46526842F480625A607E
:1002C0001A46526822F47C125A601A46526842F466
:1002D000E8125A601A46126842F080721A6000BF33
:1002E000444A126812F0007FFAD0424A526822F063
:1002F0000302404B5A601A46526842F002025A60AA
:1003000000BF3C4A526802F00C02082AF9D170473B
:1003100010B5FFF79DFF10BD10B53648006840F0DE
:1003200001003449086008464068344908403149B2
:10033000486008460068324908402E49086008466F
:10034000006820F4802008600846406820F4FE0021
:1003500048604FF41F008860FFF7DAFF4FF000603D
:100360002849086010BD10B5002100200022214B53
:100370005B6803F00C0121B1042906D0082928D1BB
:1003800007E0214B214C236027E01F4B1F4C2360CB
:1003900023E0184B5B6803F47010164B5B6803F4A2
:1003A0008032022303EB904022B9194B4343174C90
:1003B00023600DE00F4B5B6813F4003F04D0144B37
:1003C0004343124C236003E00F4B43430F4C236025
:1003D00003E00D4B0D4C236000BF00BF054B5B6875
:1003E000C3F303130B4CE15C084B1B68CB40074C79
:1003F000236010BD00100240002002400000FFF802
:10040000FFFFF6FE08ED00E000127A000000002079
:1004100000093D000400002010B50446CA4884428B
:1004200008D10121042000F023FB0021042000F06A
:100430001FFB46E0C548844208D10121082000F096
:1004400017FB0021082000F013FB3AE0C04884426B
:1004500008D10121102000F00BFB0021102000F03A
:1004600007FB2EE0BB48844208D10121202000F088
:10047000FFFA0021202000F0FBFA22E0B648844277
:1004800008D10121402000F0F3FA0021402000F0C3
:10049000EFFA16E0B148844208D10121802000F033
:1004A000E7FA0021802000F0E3FA0AE0AC48844239
:1004B00007D10121801500F0DBFA0021A01500F022
:1004C000D7FA10BD10B50121084600F0D1FA00217D
:1004D000012000F0CDFA10BD2DE9F04102460025C3
:1004E0000026002000230024002791F803C00CF010
:1004F0000F0591F803C01CF0100F03D091F802C053
:100500004CEA050591F800C0BCF1000F31D0146829
:1005100000202BE04FF0010C0CFA00F3B1F800C002
:100520000CEA03069E4220D183004FF00F0C0CFA18
:1005300003F7BC4305FA03FC4CEA040491F803C03A
:10054000BCF1280F06D14FF0010C0CFA00FCC2F8E8
:1005500014C00AE091F803C0BCF1480F05D14FF078
:10056000010C0CFA00FCC2F810C0401C0828D1D3C2
:100570001460B1F800C0BCF1FF0F34DD54680020F6
:100580002EE000F1080C4FF0010808FA0CF3B1F866
:1005900000C00CEA03069E4221D183004FF00F0CED
:1005A0000CFA03F7BC4305FA03FC4CEA040491F887
:1005B00003C0BCF1280F05D100F1080C08FA0CF8B3
:1005C000C2F8148091F803C0BCF1480F07D100F1C4
:1005D000080C4FF0010808FA0CF8C2F81080401C13
:1005E0000828CED35460BDE8F0814FF6FF7101803A
:1005F000022181700421C170704702460020936877
:100600000B4201D0012000E00020704701468868BD
:1006100080B2704702460020D3680B4201D001200F
:1006200000E0002070470146C86880B27047016151
:100630007047416170470AB1016100E04161704754
:10064000C16070474FF480320A43826181618261E8
:1006500082698269704702460020424B18684FF653
:100660008073184040EA021008433E4B1860704700
:100670003D49C8617047F0B50A46002300240021B7
:10068000002500F00046B6F1004F02D1354EF16969
:1006900001E0344E7168C0F3034583B200F44016A4
:1006A000B6F5401F08D121F070612E4E766826F015
:1006B00070662C4F7E6012E000F48016B6F5801F45
:1006C00006D1032606FA05F4A14341F0706106E065
:1006D000460D360103FA06F6B14341F0706122B1CE
:1006E000460D360103FA06F6314300F00046B6F136
:1006F000004F02D11B4EF16101E01A4E7160F0BD56
:1007000030B500228B071C0F0F2303FA04F2154BA0
:1007100008338C1053F824309343124C08348D1056
:1007200044F8253023468C1053F824308C07240FCE
:1007300000FA04F423430B4C08348D1044F82530A0
:1007400030BD0A490860704700080140000C0140B4
:10075000001001400014014000180140001C01403D
:10076000002001400000014000002042DC00204247
:10077000DB48006840F00100D9490860084640683D
:10078000D8490840D649486008460068D64908401C
:10079000D34908600846006820F4802008600846B5
:1007A000406820F4FE0048604FF41F0088607047E6
:1007B000CB49096821F48031C94A116011460968A2
:1007C00021F480211160B0F5803F03D0B0F5802F77
:1007D0000ED106E0C249096841F48031C04A116077
:1007E00007E0BF49096841F4A021BD4A116000E05B
:1007F00000BF00BF704710B5014600220023002053
:100800004A11012A02D1B64C236806E0022A02D11D
:10081000B34C236A01E0B24C636A01F01F02012469
:1008200094401C4201D0012000E0002010BD70B5B2
:1008300000240025002600BF3120FFF7DCFF06461C
:10084000641CB4F5A06F01D0002EF5D03120FFF765
:10085000D2FF08B1012500E00025284670BD014601
:1008600000209F4A106820F0F80040EAC1001060A4
:1008700070479E490860704702460020984B5868B0
:1008800020F47C1042EA01031843954B58607047EE
:1008900096490866704701460020914A506820F04A
:1008A00003000843506070478D48406800F00C001A
:1008B0007047014600208A4A506820F0F000084343
:1008C0005060704701460020854A506820F4E0607F
:1008D00008435060704701460020814A506820F468
:1008E000605040EAC1005060704729B17C4A527A9A
:1008F00002437B4B5A7204E0794A527A8243784B26
:100900005A7270477A490860704701460020744A5D
:10091000506820F440400843506070470021754AF9
:1009200011706F4A82F82010012802D0042808D1E3
:1009300003E001216F4A117004E005216D4A117036
:1009400000E000BF00BF70476B4908607047644912
:10095000096A0143624A1162704767494439086075
:10096000704730B500210022002400235C4D6D68E3
:1009700005F00C0121B1042905D0082923D105E097
:100980005E4D056022E05D4D05601FE0544D6D68D1
:1009900005F47012524D6D6805F48034022505EBA4
:1009A00092421CB9564D554305600BE04C4D6D68A5
:1009B00015F4003F03D0524D5543056002E04F4D02
:1009C0005543056002E04D4D056000BF00BF444D3A
:1009D0006D6805F0F00109094A4D6B5C0568DD4062
:1009E00045603F4D6D6805F4E061090A454D6B5C5B
:1009F0004568DD4085603A4D6D6805F46051C90A6F
:100A0000404D6B5C4568DD40C560354D6D6805F453
:100A10004041890B3C4D6B5CC568B5FBF3F5056146
:100A200030BD29B12E4A526902432D4B5A6104E070
:100A30002B4A526982432A4B5A61704729B1284A8E
:100A400092690243264B9A6104E0254A92698243E7
:100A5000234B9A61704729B1214AD2690243204B46
:100A6000DA6104E01E4AD26982431D4BDA617047A5
:100A700029B11B4AD2680243194BDA6004E0184AD4
:100A8000D2688243164BDA60704729B1144A126962
:100A90000243134B1A6104E0114A12698243104B5E
:100AA0001A61704714494039086070470F49C8649B
:100AB00070470B49C87170470948406A40F0807020
:100AC00007494862704701460020054A92680A4279
:100AD00001D0012000E00020704701498872704772
:100AE000001002400000FFF8FFFFF6FE0000424247
:100AF000D8004242201002408004424200127A0094
:100B000000093D0014000020240000203149014369
:100B1000314A1160704770B5002100230F22C4785C
:100B20000CB32D4C246804F4E064C4F5E064210A9D
:100B3000C1F10403CA40447804FA03F184781440F4
:100B400021430901254C0678A155047804F01F05BE
:100B50000124AC4005786D114FF0E02606EB8505C9
:100B6000C5F8004109E0047804F01F050124AC40F9
:100B70001B4D0678761145F8264070BD194A0A408B
:100B80000243154B1B1F1A60704739B1124A121DE0
:100B900012680243104B1B1D1A6006E00E4A121D1C
:100BA000126882430C4B1B1D1A607047042808D141
:100BB0004FF0E021096941F004014FF0E02211619A
:100BC00007E04FF0E021096921F004014FF0E02235
:100BD000116170470000FA050CED00E000E400E050
:100BE00080E100E080FFFF1F10B50446FB4884420F
:100BF00009D101218803FFF73BFF00214FF480401A
:100C0000FFF736FF32E0F648844209D1012148045B
:100C1000FFF73BFF00214FF40030FFF736FF25E0E0
:100C2000F048844209D101218804FFF72EFF0021FA
:100C30004FF48020FFF729FF18E0EB48844209D1E8
:100C40000121C804FFF721FF00214FF40020FFF726
:100C50001CFF0BE0E548844208D101210805FFF79D
:100C600014FF00214FF48010FFF70FFF10BD2DE996
:100C7000F04786B005460E460024A24600BFA146B6
:100C80000027B08900B100BF2F462C8A4CF6FF70B8
:100C90000440F08804432C82AC894EF6F3100440E3
:100CA000B08831890843718908430443AC81AC8A18
:100CB0004FF6FF400440B0890443AC8201A8FFF71F
:100CC00050FEC648874202D1DDF810A001E0DDF8F1
:100CD0000CA0A88910F4004F08D00AEBCA0000EB62
:100CE0000A1031684900B0FBF1F807E00AEBCA00CE
:100CF00000EB0A1031688900B0FBF1F86420B8FB02
:100D0000F0F004012009642101FB1089A88910F486
:100D1000004F08D0322000EBC900B0FBF1F000F02A
:100D20000700044308E0322000EB09106421B0FB07
:100D3000F1F000F00F0004432C8106B0BDE8F0870D
:100D40004FF41651016000218180C18001810C2186
:100D5000418100218181704710B502460020108A30
:100D60004FF2FF0318400B884C8823438C882343A1
:100D7000CC8823431843108210BD0021018041809C
:100D80008180C180704721B1828942F40052828102
:100D900004E082894DF6FF731A4082817047F0B5F6
:100DA00003460024002600250020A1F510676A3FB5
:100DB00000D100BF1846C1F3421401F01F060127FD
:100DC00007FA06F5012C01D10C3004E0022C01D108
:100DD000103000E014301AB107682F43076002E0BA
:100DE0000768AF430760F0BD1AB1838A0B43838263
:100DF00002E0838A8B4383827047028A4FF6F07346
:100E00001A400282028A0A430282704782894FF2A4
:100E1000FF731A40828182890A438281704721B11F
:100E2000828942F00202828104E082894FF6FD73DA
:100E30001A4082817047028A4FF6DF731A4002829D
:100E4000028A0A430282704721B1028A42F4804238
:100E5000028204E0028A4BF6FF731A400282704756
:100E6000C1F308028280704701468888C0F30800F9
:100E70007047818941F0010181817047028BD2B2B4
:100E80000283028B42EA012202837047028B02F442
:100E90007F420283028B0A430283704721B1828A18
:100EA00042F02002828204E0828A4FF6DF731A4009
:100EB0008282704721B1828A42F01002828204E06D
:100EC000828A4FF6EF731A408282704721B1828A7C
:100ED00042F00802828204E0828A4FF6F7731A40D9
:100EE0008282704721B1828942F40042828103E00C
:100EF0008289C2F30E028281704721B1828A42F454
:100F00000062828204E0828A4FF2FF731A4082827A
:100F10007047828A4FF6FB731A408282828A0A43A4
:100F20008282704721B1828A42F00202828204E00A
:100F3000828A4FF6FD731A40828270470246002073
:100F4000B1F5007F00D100BF13880B4201D0012012
:100F500000E00020704701F40072B2F5007F00D17C
:100F600000BFCA430280704770B5024600240023C8
:100F700000250020A1F510666A3E00D100BFC1F334
:100F8000421501F01F03012606FA03F3012D02D1D9
:100F90009689334006E0022D02D1168A334001E0E3
:100FA000968A33400C12012606FA04F4168834405F
:100FB00013B10CB1012000E0002070BD10B500227B
:100FC0000023A1F510646A3C00D100BF0A1201247D
:100FD0009440A3B2DC43048010BD000000380140FF
:100FE0000044004000480040004C004000500040D9
:100FF00010B50446FE48844208D10121C014FFF711
:1010000037FD0021E014FFF733FDC4E0B4F1804F59
:1010100008D101210846FFF738FD00210120FFF724
:1010200034FDB8E0F348844208D101210220FFF7E3
:101030002CFD00210220FFF728FDACE0EE488442A1
:1010400008D101210420FFF720FD00210420FFF733
:101050001CFDA0E0E948844208D101210820FFF7E7
:1010600014FD00210820FFF710FD94E0E4488442BD
:1010700008D101211020FFF708FD00211020FFF703
:1010800004FD88E0DF48844208D101212020FFF7D9
:10109000FCFC00212020FFF7F8FC7CE0DA488442C9
:1010A00008D101214014FFF7E3FC00216014FFF791
:1010B000DFFC70E0D548844209D10121C804FFF764
:1010C000D7FC00214FF40020FFF7D2FC63E0D048AA
:1010D000844209D101210805FFF7CAFC00214FF421
:1010E0008010FFF7C5FC56E0CA48844209D10121AF
:1010F0004805FFF7BDFC00214FF40010FFF7B8FCD6
:1011000049E0C548844208D101214020FFF7BDFCD9
:1011100000214020FFF7B9FC3DE0C048844208D1DF
:1011200001218020FFF7B1FC00218020FFF7ADFCFA
:1011300031E0BB48844208D101218015FFF7A5FCAE
:101140000021A015FFF7A1FC25E0B648844209D193
:1011500001210804FFF78CFC00214FF48030FFF7D9
:1011600087FC18E0B048844209D101214804FFF708
:101170007FFC00214FF40030FFF77AFC0BE0AB4816
:10118000844208D101218804FFF772FC00214FF44A
:101190008020FFF76DFC10BD00220288944B98421E
:1011A0000ED0994B98420BD0B0F1804F08D0914BA4
:1011B000984205D0904B984202D0904B984204D16F
:1011C0004FF68F731A404B881A438D4B984207D0C5
:1011D0008C4B984204D04FF6FF431A40CB881A43F9
:1011E00002808B8883850B880385814B98420BD0C6
:1011F000854B984208D08B4B984205D08A4B984239
:1012000002D08A4B984201D10B7A03860123838254
:10121000704770B5002400220023058C4FF6FE763F
:1012200035400584028C8388048B4FF68F752C40E3
:10123000B51E2C400D882C43751E2A400D892A436B
:101240004D882A436A4DA8420BD06F4DA84208D062
:10125000744DA84205D0744DA84202D0734DA842E7
:1012600013D14FF6F7752A404D892A434FF6FB7587
:101270002A408D882A434FF6FF652B404FF6FF55D5
:101280002B408D892B43CD892B4383800483CD88CC
:101290008586028470BD70B5002400220023058C71
:1012A0004FF6EF7635400584028C8388048B48F630
:1012B000FF752C404FF6FF452C400D884FF6FF760A
:1012C00006EA05252C434FF6DF752A400D8906EA0C
:1012D00005152A434D8806EA05152A43444DA842C0
:1012E00002D0494DA8421DD14FF67F752A404D8945
:1012F0004FF6FF7606EA05152A434FF6BF752A40DA
:101300008D8806EA05152A434FF6FF352B404FF22C
:10131000FF752B408D8906EA85052B43CD8906EAAA
:1013200085052B4383800483CD880587028470BDA7
:1013300070B5002400220023058C4FF6FF6635406F
:101340000584028C8388848B4FF68F752C404FF672
:10135000FC752C400D882C434FF6FF552A400D8913
:101360004FF6FF7606EA05252A434D8806EA05254D
:101370002A431F4DA84202D0234DA8421DD14FF24F
:10138000FF752A404D894FF6FF7606EA05252A4368
:101390004FF6FF352A408D8806EA05252A434EF68A
:1013A000FF752B404DF6FF752B408D8906EA05151C
:1013B0002B43CD8906EA05152B4383808483CD8892
:1013C0008587028470BD70B5002200230024058C3F
:1013D0004EF6FF7635400584038C8488828B48F670
:1013E000FF752A404FF6FF452A400D8820E0000097
:1013F000002C01400004004000080040000C0040A8
:10140000001000400014004000340140004C014036
:10141000005001400054014000180040001C0040F2
:1014200000200040004001400044014000480140CD
:101430004FF6FF7606EA05252A434DF6FF752B4049
:101440000D8906EA05352B434D8806EA05352B4301
:10145000FA4DA84202D0FA4DA84208D14BF6FF75CA
:101460002C408D894FF6FF7606EA85152C43848043
:101470008283CD88A0F84050038470BD828B4FF2E8
:10148000FF331A408283828B4FF6FF7303EA0123F6
:101490001A4382837047F0B50C461546002200219E
:1014A0000026078C4EF6FF7C07EA0C070784828B28
:1014B000018C4FF6FF7707EA043640F6FF473A40C3
:1014C0004FF6FF7707EA05273A434FF6FF7707EA1B
:1014D00003373A43D94FB8420ED0D94FB8420BD058
:1014E000B0F1804F08D0D74FB84205D0D64FB842A0
:1014F00002D0D64FB84206D14DF6FF77394046F4B8
:101500008057394305E047F6FF57394044F4805788
:10151000394382830184F0BD828B4FF6F3731A4006
:101520008283828B0A4382837047F0B50C4615464E
:10153000002200210026078C4FF6FF6C07EA0C07FB
:101540000784828B018C4FF6FF7707EA04264FF65B
:101550000C773A404FF6FF7707EA03172F433A43D9
:10156000B64FB8420ED0B64FB8420BD0B0F1804F54
:1015700008D0B44FB84205D0B34FB84202D0B34FF1
:10158000B84206D14FF6FF57394046F480773943C9
:1015900005E04FF2FF57394044F4807739438283A6
:1015A0000184F0BD028B4FF2FF331A400283028B9D
:1015B0004FF6FF7303EA01231A4302837047F0B525
:1015C0000C461546002200210026078C4FF6EF7CC2
:1015D00007EA0C070784028B018C4FF6FF7707EAB6
:1015E000041640F6FF473A404FF6FF7707EA033705
:1015F0003A434FF6FF7707EA05273A438F4FB84241
:101600000ED08F4FB8420BD0B0F1804F08D08D4F25
:10161000B84205D08C4FB84202D08C4FB84206D1A8
:101620004FF6DF77394046F01007394305E04FF6B3
:101630005F77394044F01007394302830184F0BDDD
:10164000028B4FF6F3731A400283028B0A43028324
:101650007047F0B50C46154600220021068C4FF667
:10166000FE773E400684028B018C4FF60C763240AA
:101670007E1C06EA03162E433243704EB0420ED053
:101680006F4EB0420BD0B0F1804F08D06D4EB042DB
:1016900005D06D4EB04202D06C4EB04206D14FF62E
:1016A000FD76314044F00106314305E04FF6F57612
:1016B000314044F00106314302830184F0BD70B52E
:1016C00005460C465D4885420ED05D4885420BD0EC
:1016D000B5F1804F08D05B48854205D05A48854215
:1016E00002D05A48854200D100E000BF208850B99E
:1016F0002389A28861882846FFF7ABFFE188284646
:10170000FFF79EFF25E0208804280AD12389A288BC
:1017100061882846FFF753FFE1882846FFF742FF1C
:1017200017E0208808280AD12389A28861882846E2
:10173000FFF7FBFEE1882846FFF7EEFE09E023896C
:10174000A28861882846FFF7A6FEE1882846FFF7B1
:1017500095FE70BD2DE9F04105460C460026012797
:10176000608808B9022600E00026A088012801D17F
:10177000022700E001272088A0B92389A288618878
:101780002846FFF766FFE1882846FFF759FF2389BF
:101790003A4631462846FFF712FFE1882846FFF710
:1017A00001FF13E02389A28861882846FFF707FF1D
:1017B000E1882846FFF7F6FE23893A463146284657
:1017C000FFF747FFE1882846FFF73AFFBDE8F081C1
:1017D0000A884B881A438B881A43CB881A430B8993
:1017E0001A434B891A438B891A43A0F84420704747
:1017F0004FF6FF71818000210180C180418001721C
:1018000070470021018041808180C1800181418138
:101810008181C18170470021018041800121818047
:101820000021C180018170470021018041808180B9
:10183000C18001814181818170470000002C0140FD
:10184000003401400004004000080040000C00404B
:1018500021B1028842F00102028004E002884FF6C2
:10186000FE731A400280704731B1B0F8442042F450
:101870000042A0F8442005E0B0F84420C2F30E0274
:10188000A0F8442070471AB183890B43838102E09A
:1018900083898B43838170478182704741EA0203C9
:1018A000A0F8483070471AB183890B43838102E066
:1018B00083898B438381704701894FF6F872114009
:1018C000018170470A46002101894FF68F73194044
:1018D00011430181704730B504460D462946204624
:1018E000FFF7F0FF208940F00700208130BD2DE98F
:1018F000F04104460D4616461F46602D06D13B4674
:10190000012231462046FFF75AFE05E03B46012200
:1019100031462046FFF79DFE29462046FFF7D2FFBD
:10192000208940F007002081BDE8F08130B50C46E9
:1019300000210189C9B24FF6FF7505EA0325154359
:1019400025432943018130BD2DE9F04105460E466E
:1019500017469846002443463A4631462846FFF744
:10196000E5FF2C894FF6F870044044F007044FF669
:101970008F70044044F070042C81BDE8F081F0B514
:1019800004460D4616461F463B463246294620462B
:10199000FFF7CCFF208940F480402081F0BD018515
:1019A000828270470A46002101884FF68F731940E2
:1019B000114301807047F0B50C4615461E460021C4
:1019C000002200230189028B038C4FF6F8773940FF
:1019D00021434FF6FC473A4040F201173A434FF695
:1019E000DD773B404FF6FF7707EA06172F433B436F
:1019F000018102830384F0BD0A460021018B4FF66A
:101A00008F7319401143018370470A460021018BEF
:101A100048F6FF7319404FF6FF7303EA0223194398
:101A2000018370470A460021818B4FF68F7319405E
:101A30001143818370470A460021818B48F6FF736A
:101A400019404FF6FF7303EA02231943818370475D
:101A500021B1028842F08002028004E002884FF641
:101A60007F731A400280704721B1828842F00402DD
:101A7000828004E082884FF6FB731A4082807047B0
:101A800021B1828842F00802828004E082884FF609
:101A9000F7731A408280704721B1828842F00102B8
:101AA000828004E082884FF6FE731A40828070477D
:101AB0000A460021018B4FF6F77319401143018349
:101AC00070470A460021018B4FF2FF7319404FF611
:101AD000FF7303EA02231943018370470A4600217A
:101AE000818B4FF6F77319401143818370470A4683
:101AF0000021818B4FF2FF7319404FF6FF7303EA09
:101B000002231943818370470A460021018B4FF657
:101B1000FB7319401143018370470A460021018B72
:101B20004FF6FF3319404FF6FF7303EA02231943C0
:101B3000018370470A460021818B4FF6FB731940E1
:101B40001143818370470A460021818B4FF6FF3392
:101B500019404FF6FF7303EA02231943818370474C
:101B60000A460021018B4FF67F7319401143018310
:101B700070470A460021018BC1F30E014FF6FF7337
:101B800003EA02231943018370470A460021818B2F
:101B90004FF67F7319401143818370470A46002135
:101BA000818BC1F30E014FF6FF7303EA0223194341
:101BB000818370470A460021018C4FF6FD7319405E
:101BC0001143018470470A460021018C4FF6F773D8
:101BD00019401143018470470A460021018C4FF6D9
:101BE000DF7319404FF6FF7303EA021319430184B0
:101BF00070470A460021018C4FF67F7319404FF65B
:101C0000FF7303EA02131943018470470A46002157
:101C1000018C4FF6FF5319404FF6FF7303EA02237E
:101C20001943018470470A460021018C4FF2FF736B
:101C300019404FF6FF7303EA0223194301847047EA
:101C40000A460021018C4DF6FF7319404FF6FF73D1
:101C500003EA023319430184704730B5002301249D
:101C60008C40A3B2048C9C430484048C02FA01F5DA
:101C7000ADB22C43048430BD30B5002304248C4025
:101C8000A3B2048C9C430484048C02FA01F5ADB227
:101C90002C43048430BD70B5034600200024184650
:101CA000183001258D40ACB21D8CA5431D8409B1AF
:101CB000082909D100EB6100056825F07005056071
:101CC0000568154305600EE00D1FC5F34E05284459
:101CD000056825F4E045056005684FF6FF7606EADD
:101CE00002263543056070BD21B1028842F0020230
:101CF000028004E002884FF6FD731A4002807047AC
:101D000021B1028842F00402028004E002884FF60A
:101D1000FB731A400280704721B1828842F0800232
:101D2000828004E082884FF67F731A408280704779
:101D300002884FF6F7731A40028002880A43028035
:101D4000704782884FF68F731A40828082880A43D8
:101D50008280704702894FF6F8731A400281028927
:101D60000A430281704702894FF67F731A4002814D
:101D700002890A43028170478184704781857047D8
:101D8000818670470187704781877047A0F84010AF
:101D9000704702884FF6FF431A40028002880A43C8
:101DA000028070470146888E70470146088F704751
:101DB0000146888F70470146B1F8400070470146E0
:101DC000888C70470146088D704702460020138AB0
:101DD0000B4201D0012000E000207047CA4302827C
:101DE000704730B50246002000230024158A05EA1A
:101DF0000103958905EA010413B10CB1012000E04B
:101E0000002030BDCA4302827047000010B504466E
:101E1000BE48844208D101218014FEF729FE00212A
:101E2000A014FEF725FE16E0B948844208D101212E
:101E30000014FEF72AFE00212014FEF726FE0AE019
:101E4000B448844207D10121C013FEF71EFE0021D1
:101E5000E013FEF71AFE10BD10B50022028802F44E
:101E600041520B884C8823438C882343CC882343DE
:101E70000C8923434C8923438C892343CC892343F6
:101E80001A430280838B4FF2FF74234083830B8AB3
:101E9000038210BD2DE9F04F85B005460C464FF08A
:101EA000000902274FF000084FF0010B0026B24650
:101EB000A88B4FF240010840A88302202884B5F87F
:101EC0001C90A068022801D100BF38E0A08810B99A
:101ED0004FF0010B01E04FF0020B8D48854200D11D
:101EE00000E000BF6846FEF73CFDDDF800A0E0889A
:101EF000B0F5007F0AD14FEA1A2000EB80004000C5
:101F0000A168B0FBF1F0401D86B20BE04FEA4B1028
:101F1000BAFBF0F000EB80004000A168B0FBF1F0EC
:101F2000401D86B20A20B6FBF0F606F00108A6EBCB
:101F30000800C0F34F074FF6FF7000EA0828022F91
:101F400001DBFF2F02DD02274FF00008E08840EAA6
:101F5000080038432884A088A18908436188084381
:101F60002188084340F4006040EA0909A5F81C9064
:101F700005B0BDE8F08F0021018041808180C180E3
:101F8000018141818181C181072101827047002146
:101F9000018041808180C180022181600021818196
:101FA000704721B1028842F04002028004E00288BA
:101FB0004FF6BF731A400280704721B1828B42F402
:101FC0008062828304E0828B4FF6FF331A40828363
:101FD000704730B5002400230C110125A540ABB299
:101FE0001AB185881D43858002E085889D438580E0
:101FF00030BD1AB183880B43838002E083888B4312
:102000008380704781817047014688897047A1F5B8
:102010007E42FF3A04D0028842F48072028004E0DB
:1020200002884FF6FF631A400280704721B1828810
:1020300042F00402828004E082884FF6FB731A406B
:102040008280704702884FF2FF731A400280028834
:102050000A4302807047018841F480510180704733
:1020600021B1028842F40052028004E002884DF659
:10207000FF731A400280704702460020012901D0F8
:10208000108B00E0908A70470146088A7047B1F5CE
:10209000804F04D1028842F48042028004E002882A
:1020A0004BF6FF731A4002807047024600201389E6
:1020B0000B4201D0012000E000207047CA4302819A
:1020C0007047F0B50246002000240023002501F0EF
:1020D0000F070126BE40B4B20B1101269E40B3B2D9
:1020E000968806EA03051689264202D00DB1012022
:1020F00000E00020F0BD10B5002201F00F04012324
:10210000A3409AB2D343038110BD000000300140C8
:1021100000380040003C004010B50446F9488442B5
:1021200008D101214015FEF7A3FC00216015FEF740
:102130009FFC17E0F448844208D101210015FEF706
:1021400097FC00212015FEF793FC0BE0EF4884423A
:1021500008D10121C803FEF78BFC00214FF4004099
:10216000FEF786FC10BD30B5024600200023506803
:10217000E74C20400D790C6844EA05242043506068
:102180009068E44C2040D1E902542C434D7944EA54
:10219000450420439060D06A20F470000C7C641EDB
:1021A000E4B2234340EA0350D06230BD0021016015
:1021B000017141718160C16001210174704721B1D9
:1021C000826842F00102826003E0826822F001022C
:1021D0008260704721B1826842F48072826003E0BD
:1021E000826822F480728260704710B50023CBB2FF
:1021F0001AB144681C43446002E044689C43446054
:1022000010BD816841F008018160704701460020DF
:102210008A6812F0080F01D0012000E0002070470A
:10222000816841F0040181607047014600208A689E
:1022300012F0040F01D0012000E00020704721B10E
:10224000826842F4A002826003E0826822F4A00265
:1022500082607047014600208A6812F4800F01D026
:10226000012000E00020704710B50A46002100233D
:10227000416821F46041531E41EA4331416010BD81
:1022800021B1426842F40062426003E0426822F4F5
:10229000006242607047F0B504460D460020002100
:1022A000092D11DDE068A5F10A0606EB46070726B1
:1022B00006FA07F18843A5F10A0606EB460603FA7B
:1022C00006F10843E0600CE0206905EB45070726AE
:1022D00006FA07F1884305EB450603FA06F10843C1
:1022E0002061072A0FDA606B561E06EB86071F2651
:1022F00006FA07F18843561E06EB860605FA06F134
:102300000843606322E00D2A0FDA206BD61F06EB2C
:1023100086071F2606FA07F18843D61F06EB8606B6
:1023200005FA06F10843206310E0E06AA2F10D0609
:1023300006EB86071F2606FA07F18843A2F10D0671
:1023400006EB860605FA06F10843E062F0BD21B10E
:10235000826842F48012826003E0826822F4801274
:10236000826070470146C86C80B2704765484C3047
:102370000068704721B1426842F48062426003E025
:10238000426822F480624260704721B1426842F4A0
:102390008052426003E0426822F4805242607047FB
:1023A0000A460021816821F4E041114381607047B1
:1023B00021B1826842F40042826003E0826822F424
:1023C00000428260704721B1826842F4021282604A
:1023D00003E0826822F40212826070470146002006
:1023E0008A6812F4001F01D0012000E0002070472D
:1023F000F0B504461546002000220026092911DD0B
:10240000E068A1F10A0707EB470C072707FA0CF26F
:102410009043A1F10A0707EB470703FA07F21043BD
:10242000E0600CE0206901EB410C072707FA0CF291
:10243000904301EB410703FA07F210432061A06BC0
:10244000C0F30156EF1C06F1010CA7EB0C0707EBDC
:10245000870C1F2707FA0CF29043EF1C06F1010CC2
:10246000A7EB0C0707EB870701FA07F21043A063FD
:10247000F0BD10B50A4600210023816B21F4401104
:10248000531E41EA0351816310BD10B5002303467A
:102490000B441A6010BD02460023134601F12800C8
:1024A0000344186880B270470A46002141681A4BFD
:1024B00019401143416070474162826270470A4689
:1024C0000021416821F01F0111434160704740B174
:1024D0000C490831096841F400010A4A08321160C8
:1024E00007E008490831096821F40001054A08326B
:1024F000116070470246002013680B420ED0012085
:102500000DE000000024014000280140003C014093
:10251000FFFEF0FFFDF7F1FFFFFD3FFF00207047DA
:10252000CA430260704770B50246002000230024B1
:102530000B125568CEB205EA060415681D4202D09A
:102540000CB1012000E0002070BD00220A12D3432C
:102550000360704701684FF6FE7211400160002170
:10256000016041608160C1608C49884208D18B491B
:102570000839496841F00F01884A083A51608AE0F9
:1025800086491431884208D184490839496841F0A4
:10259000F001824A083A51607DE080492831884242
:1025A00008D17E490839496841F470617B4A083A8C
:1025B000516070E079493C31884208D17749083947
:1025C000496841F47041754A083A516063E07349C3
:1025D0005031884208D171490839496841F4702165
:1025E0006E4A083A516056E06C496431884208D11D
:1025F0006A490839496841F47001684A083A5160EB
:1026000049E066497831884208D164490839496807
:1026100041F07061614A083A51603CE0604988428B
:1026200006D1011F096841F00F01021F116032E05D
:102630005B491431884208D15949091F096841F0A2
:10264000F001574A121F116025E055492831884290
:1026500008D15349091F096841F47061504A121F9B
:10266000116018E04E493C31884208D14C49091F9D
:10267000096841F470414A4A121F11600BE0484951
:102680005031884207D14649091F096841F4702139
:10269000434A121F1160704710B50022026847F6C6
:1026A000F0739A430C6A8B6823430C6923434C698B
:1026B00023438C692343CC6923434C6A23438C6AAC
:1026C00023431A430260CB6843600B6883604B6806
:1026D000C36010BD0021016041608160C160016183
:1026E00041618161C161016241628162704721B1D2
:1026F000026842F00102026004E002684FF6FE73D5
:102700001A40026070471AB103680B43036002E08D
:1027100003688B4303607047416070470146486817
:1027200080B2704701460020002211F0805F03D084
:102730001B4B083B1A6802E0184B083B1A680A4218
:1027400001D0012000E00020704710F0805F03D02E
:102750001349091F086002E01049083948607047B2
:1027600001460020002211F0805F03D00C4B083B93
:102770001A6802E0094B083B1A680A4201D001209E
:1027800000E00020704710F0805F03D00449091F6B
:10279000086002E0014908394860704708000240BB
:1027A000080402400E49086070470D4948607047B0
:1027B0000B49886070474AF6AA20094908607047AB
:1027C0004CF6CC4006490860704701460020044A98
:1027D000D2680A4201D0012000E0002070470000CA
:1027E000003000400948804709480047FEE7FEE7FF
:1027F000FEE7FEE7FEE7FEE7FEE7FEE7FEE7FEE7B1
:1028000004480549054A064B7047000019030008B3
:1028100031010008A81B0020A8210020A81D0020CD
:10282000A81D002010B5012002F0B5FE40F2FF7097
:1028300003F072F8C022FE49FE4803F04AF8002077
:1028400002F0A9FE10BD10B5FB480078012808D0A1
:1028500001F0A4FEF9490968401AF949096888425B
:1028600008D90020F449087001F098FEF349086087
:10287000FFF7D8FF10BD70B504460D46B4F57A7F5A
:1028800002DB40F2E73403E014F57A7F00DCED4C24
:10289000B5F57A7F02DB40F2E73503E015F57A7F84
:1028A00000DCE84D40F2DC50431B04F2DC52E6A1B0
:1028B000EE4804F0B5FDED4802F012FE70BD10B513
:1028C000EB484078732800D010BDE949097AC1F17E
:1028D0007F0001F025FC052802DA7F20E449087218
:1028E000E3498979C1F17F0001F01AFC052802DA79
:1028F0007F20DF498871DE48007AC0F17F00C00088
:10290000DC490860DA488079C0F17F00C000DA490C
:102910000860D8480068D9490968884205D1D64876
:102920000068D749096888420DD0D3480168D1486A
:102930000068FFF7A0FFCF480068D0490860CE4884
:102940000068CF49086000BFBEE72DE9F04F8DB0A9
:1029500005460026284602F0C3FD287823286ED1BC
:1029600028795028FBD168795328F8D1A8794328D1
:10297000F5D1E8794B28F2D1287B2128EFD168786E
:10298000303864214843A978303901EB810100EBEC
:102990004101E8783038084484B2687A30386421DC
:1029A0004843A97A303901EB810100EB4101E87A13
:1029B00030380F1817F5FA7F61DBB7F5FA7F5EDC68
:1029C000082C5CDA287A2B2803D0287A2D2800D10D
:1029D0007F42384607F007FBCDE9080195498C3165
:1029E00051F8240007F0FFFACDE90401A54901EBF5
:1029F0000411886807F06EFEA34AA44BCDE90001DC
:102A000007F080F8CDE90201DDE9042307F078FD45
:102A1000CDE90601DDE9082307F074F8CDE90A01E4
:102A200007F03EF8824683488C3040F8247098497D
:102A3000504608F02BF903D2DFF854A207E021E05A
:102A40009449504608F022F801D2DFF848A25046D7
:102A500007F0D0FF8B4901EB04114880894800EB57
:102A60000410C0F808A00020864901EB0411C860DA
:102A700001F094FD7149086001206F4908700DB0A4
:102A8000BDE8F08F2878232846D12879502843D1F3
:102A90006879442840D1A87953283DD1E879542851
:102AA0003AD1287A212837D16878303864214843D0
:102AB000A978303901EB810100EB4101E878303829
:102AC000084484B2082C0FDA00206E4901EB04118F
:102AD000C8606C4901EB0411886807F08BFF6949F5
:102AE00001EB0411488016E0FF2C14D1002410E003
:102AF0000020644901EB0411C860624901EB041134
:102B0000886807F077FF5F4901EB04114880601C7B
:102B100084B2082CECDBB2E74FE1A85D232813D187
:102B20000024701C86B208E0A85D04EB840100EB71
:102B30004100303884B2701C86B2A85D0028EBD00A
:102B4000A85D5028E8D0EFE7A85D50281ED14FF0CF
:102B50000009701C86B212E0A85D07F083FF4E49A1
:102B60000B90484607F0C6FF0A900B9907F0DEFD70
:102B700083464A4908F0BCF88146701C86B2A85DBD
:102B80000028C9D0A85D5428C6D0E5E7A85D542820
:102B90004CD14FF00008701C86B209E0A85D08EB2C
:102BA000880100EB410030381FFA80F8701C86B2B3
:102BB000A85D10B1A85D2128F0D1082C37DA38497A
:102BC000484607F063FF32D83249484608F05EF8BD
:102BD0002DD842F21070804529DC16498C3151F80D
:102BE000240007F027FF8346494607F09FFD8146F2
:102BF0002749484608F04AF801D2DFF89490254961
:102C0000484607F043FF01D2DFF88890B8F1140F6F
:102C10004EDA484607F0EEFE1A4901EB04114880EF
:102C2000184800EB0410C0F808903BE0C3E078E0DF
:102C300000F87F00600A0020280000202C000020FF
:102C4000E000002019FCFFFF7B2330303650253098
:102C50003464543030303021233030375025303414
:102C6000645430303030217D0000000060020020CC
:102C70007C010020D0000020D4000020D8000020DB
:102C8000DC000020E0010020D655815A0C1EA63F32
:102C900000101C450000FA430000204100004042A3
:102CA00000401C450020FE4901EB0411C86038E0DB
:102CB000484607F09FFEFA4901EB04114880F848A6
:102CC00000EB0410A0F80480F54901EB041188889A
:102CD00007F0A0F90022F34BCDE9040106F0CEFF86
:102CE000CDE90801EE4901EB0411488807F0BAFE6E
:102CF0000590EB4800EB04108168059807F0F8FF99
:102D0000834607F0E7FCCDE90601DDE9082306F07C
:102D1000B5FFCDE90A0106F0C3FEE14901EB04115C
:102D2000C860FF2C49D1002442E0DF4951F824104B
:102D300001F2DC5007F07EFE8146484607F05AFE5D
:102D4000D74901EB04114880D54800EB0410A0F8E6
:102D50000480D34901EB0411888807F05BF9002255
:102D6000D04BCDE9040106F089FFCDE90801CC493B
:102D700001EB0411488807F075FE0590C84800EB88
:102D800004108168059807F0B3FF834607F0A2FCA2
:102D9000CDE90601DDE9082306F070FFCDE90A015F
:102DA00006F07EFEBE4901EB0411C860601C84B2CF
:102DB000082C02DAB9E7701C86B2A85D00287FF4FF
:102DC000ACAE00BF5BE62DE9FF470446894692465C
:102DD000B34901EB0411A1F80290B14901EB0411D0
:102DE000A1F804A0AE4901EB0411888807F012F99C
:102DF00007460022AB4B06F041FF05460E46A849A8
:102E000001EB0411488807F02DFE8046A44800EB32
:102E100004108168404607F06BFF074607F05AFC34
:102E20002A463346CDE9000106F028FFCDE902012C
:102E300006F036FE9A4901EB0411C8609B4951F82F
:102E4000240007F047FC4B462246CDF800A0CDE910
:102E5000020197A19D4804F0E3FA9C4802F018FB98
:102E6000BDE8FF872DE9FC5F81460E4692461F466E
:102E70004FF00008C3460021304607F007FE02D29B
:102E80000020BDE8FC9F4FF0000B002413E020461B
:102E900007F0D0FD01908548103800905246314629
:102EA0004846019B03F0B5FF20B9444500DAA0462F
:102EB0004FF0010B641E14F1870FE8DABBF1000F2D
:102EC0001BD0404607F0B6FD0190784810380090BE
:102ED000524631464846019B03F09BFF002508E01F
:102EE0007248303050F825103A462846FFF76BFFFD
:102EF0006D1C042DF4DB0120C3E70020C1E770B591
:102F0000024600210020002323E0545C542C1ED1F3
:102F10004C1C145D303C4FF47A756C438D1C555D30
:102F2000303D05EBC50606EB051504EB8505CC1C0D
:102F3000145D303C04EB840405EB44050C1D145D6A
:102F4000303C2B19834200DD1846091D01E0491C65
:102F500000BF545C002CD8D170BD10B504460120D0
:102F600002F019FB4FF48061594804F0BFFCE10105
:102F70007F22574802F048FC5548FFF7C0FF5549EB
:102F800008605348FFF7E1FC224653A14F4804F084
:102F900047FA4E4802F07CFA002002F0FCFA10BD1D
:102FA00002680B6803600A60704713B5012002F0E5
:102FB000F2FADDE90001884203DD01A96846FFF766
:102FC000EFFF19E04FF48061414804F08FFC009856
:102FD000C10180223E4802F017FC3D4802F058FA39
:102FE00042A002F055FA3A4802F089FA3FA002F0F6
:102FF00086FA0098401C0090DDE900018842E1DD7E
:10300000002002F0C8FA1CBD012080F3138800BF25
:1030100000BF3748006800F4E06036490843001DEF
:1030200033490860BFF3408F00BF00BFFEE72DE9C2
:10303000F14F88B030A1089801F02DF88346BBF11C
:10304000000F03D02EA002F023FA13E230A108985B
:1030500001F021F88346BBF1000F69D001202E4911
:1030600008704FF0000A10E000200D4901EB0A1132
:10307000C8600B4901EB0A11886807F0BBFC0849DE
:1030800001EB0A1148800AF1010ABAF1080FEBDBE3
:1030900022A002F025FA00210846FFF7ECFB43E0EE
:1030A000E001002000003440EC0A002098010020DC
:1030B0002325303364502530346454253034642162
:1030C00028252E3166290D0A00000000600200202C
:1030D000600600203000002040446F47726F75701A
:1030E000202564204F4B210D0A0000000D0A00002E
:1030F0000CED00E00000FA052444525321000000CA
:1031000073746D33326631303363387436000000C7
:103110002444535421000000090100202332353596
:103120005044535421000000FF20FD490870A1E1E4
:10313000FCA1089800F0AFFF8346BBF1000F26D03A
:1031400006AAFAA1089804F083FA0028EFD000201C
:10315000F949069A01EB0211C860F749069A01EB9A
:103160000211886807F046FCF349069A01EB021148
:103170004880F2A1F548069A04F052F9F34802F0AB
:10318000AFF94FF48061F14804F0B0FB72E1F0A1B7
:10319000089800F080FF8346BBF1000F01D0FFF7D5
:1031A00033FFEDA1089800F076FF8346BBF1000FD6
:1031B0000CD004AB05AAEAA1089804F049FA00284B
:1031C000B5D0DDE90410FFF7F0FE53E1E7A1089860
:1031D00000F061FF8346BBF1000F0DD005AAE5A109
:1031E000089804F035FA0028A1D00120E4490870BD
:1031F0000598FFF7B2FE3DE1E2A1089800F04BFF11
:103200008346BBF1000F23D0E048E14BE14AE2A145
:103210000090089804F01CFA002888D00120D849B2
:103220000870DC480068DA49096888420BD0D94840
:103230000068DD490860D5480068DC490860002066
:10324000CF49087016E1D3480068FFF786FE11E108
:10325000D7A1089800F01FFF8346BBF1000F0CD0E8
:1032600004AB05AAD4A1089804F0F2F900288DD087
:10327000DDE90410FFF7FFFAFCE0D2A1089800F0A6
:103280000AFF8346BBF1000F44D0D0A002F028F91A
:103290004FF0000A3AE0D24830F82A0000F2DC5041
:1032A000A54901EB0A1148804FF4FA60A24901EBED
:1032B0000A118880A04901EB0A11888806F0AAFE4D
:1032C00006460022C74B06F0D9FCCDE900019A4919
:1032D00001EB0A11488807F0C5FB0746964800EB4A
:1032E0000A108168384607F003FD064607F0F2F938
:1032F0008046DDE9002306F0C1FC044606F0D0FB61
:103300008D4901EB0A11C8600AF1010ABAF1080FF0
:10331000C1DBAFE0B4A1089800F0BDFE8346BBF16D
:10332000000F04D000210846FFF7A5FAA2E0B1A1E2
:10333000089800F0B0FE8346BBF1000F03D0AFA0A9
:1033400002F0A6F896E0AEA1089800F0A4FE83462D
:10335000BBF1000F11D005AAABA1AE4804F078F97B
:10336000002889D06E4905980870ABA002F090F84B
:103370006421012000F0E1FF7CE0A9A1089800F0A1
:103380008AFE8346BBF1000F1DD0FF206449087000
:103390000A2000F05CFEAFF27C20FFF7D6FA0A208C
:1033A00000F055FEA2A002F073F80A2000F04FFED4
:1033B00099A002F06DF80A2000F049FE6421012076
:1033C00000F0BBFF56E0A2A1089800F064FE83461F
:1033D000BBF1000F4ED002A803A904AB05AACDE9AA
:1033E00000109DA1089804F033F9002842D09FA056
:1033F00002F04EF8039807F01DFB0446049807F00E
:1034000019FB0546059807F015FB06462246294696
:10341000029BFFF727FD70B10121052000F0AAFEF5
:10342000322000F014FE0021052000F0A3FE32201F
:1034300000F00DFE1EE00121052000F09BFE322071
:1034400000F005FE0021052000F094FE322000F07F
:10345000FEFD0121052000F08DFE322000F0F7FD79
:103460000021052000F086FE322000F0F0FD85A04E
:1034700002F00EF809B0BDE8F08F2DE9F0410746E3
:103480000E4600257878397800EB012083490880C2
:1034900083480088098888423DD080480088814957
:1034A00008807E4800887E49098808407B4908805A
:1034B0000024B4E10120A0407849098808422BD1BA
:1034C0000120A04076490988084226D04FF4806147
:1034D000504804F00BFA732E0DD1734951F82400B3
:1034E00004F0A0F98046704850F82410424649483C
:1034F00004F0B7F9DDE0412E10D16C4951F82400F9
:1035000004F090F98046694850F82410424641483A
:1035100004F0A7F9CDE094E17EE120E1C8E00000ED
:1035200008010020244453543A000000244453541A
:103530003A25642100000000E001002023253033FB
:103540006450445354210D0A000000006002002022
:103550002452535421000000245054473A000000E4
:10356000245054473A25642D2564210024444753B0
:103570003A000000244447533A256421000000002B
:1035800009010020244447543A00000000010020B3
:10359000FC000020F8000020244447543A25642D04
:1035A00025642C2564210000F0000020F400002098
:1035B000244443523A000000244443523A25642CE8
:1035C0002564210024444A5221000000233235356D
:1035D00050313530305432303030210D0A00000087
:1035E000EC0A002000003440244341525F53544F02
:1035F0005021000024474554412100004141410031
:1036000024534D4F4445000024534D4F44452564F9
:103610002100000060060020404F4B210000000008
:1036200024534D4152545F53544F50210000000029
:103630002330303650313530305430303030212363
:103640003030375031353030543030303021000098
:10365000244B4D533A000000244B4D533A25642C23
:1036600025642C25642C25642100000054727920E7
:10367000746F2066696E64206265737420706F7366
:103680003A0D0A0043616E27742066696E642062F9
:1036900065737420706F732121210000E600002003
:1036A000E4000020E8000020340000207400002026
:1036B000B3E0FEA1FE4800F0EEFCC5B21DB1002152
:1036C000681EFB4A1154FBA1F94800F0E4FCF0B17C
:1036D000002240F22551F848FDF761FB0020F74930
:1036E0000870F3490B31F64804F078F8F449F048D3
:1036F00004F074F80120F1490870012240F22551CC
:10370000ED48FDF74CFB0120EE49087022E0EEA1E8
:10371000E74800F0C0FCE8B1002240F22551E6483D
:10372000FDF73DFB0020E5490870E1490B31E44815
:1037300004F054F8E249DE4804F050F80120DF4973
:103740000870012240F22551DB48FDF728FB0220DA
:10375000DC4908704FF6FF70DC4908805CE04FF4EC
:103760008061D34804F0C2F8732E0DD1D84951F8C6
:10377000240004F057F88046D54850F824104246FB
:10378000CB4804F06EF810E0412E0DD1D14951F82C
:10379000240004F047F88046CE4850F824104246F2
:1037A000C34804F05EF800E037E0C0A1C04800F074
:1037B00072FCC5B285B3BE494819BEA100F06BFCCE
:1037C00090B1BB484119BE4804F008F8BC4804F069
:1037D00029F8401EBA4900220A54B54803F0FEFFFA
:1037E000B348FFF724FC17E0B1494819B6A100F02F
:1037F00052FC88B1AE484119B14803F0EFFFB04820
:1038000004F010F8401EAE4900220A54A84803F004
:10381000E5FFA748FFF799F800BF601CC4B2102C61
:10382000FFF648AEAC480088A84908800121052071
:1038300000F0A0FC0A2000F00AFC0021052000F0A6
:1038400099FCBDE8F08110B5A4480078A449C97876
:10385000884205D1A1484078A149097988420BD016
:103860009F484178C01CFFF708FE9D48C0789B49DF
:1038700008709B480079487010BD10B500F08EFEAE
:1038800098490968401A322800D210BD00F086FE1F
:1038900094490860924800F0E6FD00BFF5E710B5D6
:1038A0009148007800285CD100F078FE00218F4A12
:1038B000D2E90032C31A61EB02018D480068002290
:1038C000C01A8A4150DA00F069FE0021874A03C21B
:1038D0008848006848B18848006830B901208249AA
:1038E000087086A001F0D4FD10BD87480068FFF77E
:1038F00034FB8648006886490968884218DA82489D
:1039000000688349096888420CD1804800687E4974
:1039100008607848006820B177480068401E764902
:103920000860E1E778480068401C774908601BE0C0
:10393000754800687649096888420CD17348006868
:10394000714908606B48006820B16B480068401EF0
:1039500069490860C8E76C480068401E6A49086009
:1039600002E00A206249086000BFBDE704E0037876
:103970008B4200D10270401C0378002BF7D17047B6
:103980000146002215E00878472811D1491C07E0BC
:10399000087802EB820300EB4300303882B2491C06
:1039A0000878232802D008782428F1D110467047DF
:1039B000491C08780028E6D1401EF8E7F8B504460F
:1039C0000025012001F0E7FD607824280CD1A078C3
:1039D000212809D100214F4880F88810FEF722FFE6
:1039E0004DA001F055FDF8BD6078242833D1414841
:1039F000474B464A4DA10090204603F029FE48B3AC
:103A00004248006842490968884208D13F48006836
:103A1000C10180223F48083001F0F6FE11E081210B
:103A20003C48083003F084FF611C3A48083003F03A
:103A3000D5FE204603F0F6FE801E364908310022EE
:103A40000A542521334880F88810FEF7EBFE3CA08D
:103A500001F01EFDC7E72046FFF792FF0546681CF0
:103A600002D0A079232803D03AA001F011FDBAE7D3
:103A70007B223C212046FFF779FF7D223E21204614
:103A8000FFF774FFE801C11700EB11510913B0EB08
:103A9000013106D1EE01F11706EB1151081301F0C7
:103AA0003BFF204603F0BEFE401C55E05E000000D8
:103AB0006006002024000000003801400A010020B8
:103AC000600200200B01002023000000E400002021
:103AD0003400002074000020E8000020CC0000200A
:103AE0007C010020C800002009010020C000002047
:103AF0003000002000010020F40000204047726FD9
:103B00007570446F6E652100F0000020F800002001
:103B1000FC000020600A002040434C4541522050E8
:103B200052455F434D44204F4B2100003C24444705
:103B3000543A25642D25642C2564213E00000000A4
:103B400040534554205052455F434D44204F4B2134
:103B5000000000004500000086B2E9013246204620
:103B600001F0B7FEF8A001F093FCF7A001F0C7FC4C
:103B7000002001F010FD00BF35E710B5F3480078D4
:103B800048B3F3480078012803D1F248FFF74FFA11
:103B900016E0EF480078022803D1EE48FEF7D5FE84
:103BA0000EE0EB480078032803D1EA48FEF7CDFE8B
:103BB00006E0E7480078042802D1E648FFF7FEFE59
:103BC0000020E3490870E1490870012240F22551C4
:103BD000E148FDF7E4F810BD10B500F0DFFCDF4967
:103BE0000968401AB0F57A7F14D900F0D7FCDB4998
:103BF0000860DB48007820B100210D2000F0BAFAFF
:103C000003E001210D2000F0B5FAD5480078C0434B
:103C1000D349087010BD62B6704710B50121052068
:103C200000F0A8FA00210D2000F0A4FA642000F0B2
:103C30000EFA0021052000F09DFA01210D2000F070
:103C400099FA642000F003FA0121052000F092FAAD
:103C500000210D2000F08EFA642000F0F8F9002118
:103C6000052000F087FA01210D2000F083FA64207E
:103C700000F0EDF90121052000F07CFA00210D2073
:103C800000F078FA642000F0E2F90021052000F04D
:103C900071FA01210D2000F06DFA642000F0D7F9CF
:103CA00010BD10B5472144F6206000F0AEFC10BDF9
:103CB00010B50020AB49086026E0AB48A949096867
:103CC00030F8210000F2DC50A849A64A126801EB46
:103CD00002114880A549A34A126801EB02114888E5
:103CE00006F0C0FEA1499F4A126801EB02118860EC
:103CF00000209E499B4A126801EB0211C860994856
:103D00000068401C97490860964800680828D4DB82
:103D100095488C3890F88800252833D19249843909
:103D20008C4803F05BFD90488C38007A242804D13D
:103D30008D488438FFF77BF924E01020894908601A
:103D400016E030218348874A12688154024685482C
:103D50000068401C115483480068801C115481483D
:103D60000068C01C11547F4800680F307D4908600E
:103D7000784803F057FD7B4909688842E1D87548C7
:103D8000FEF7E3FD10BD10B54FF4E13001F024F86B
:103D9000012240F225517648FDF701F875A001F0A7
:103DA000AEFB78A001F09CFB10BD10B54FF4E130E4
:103DB00001F0B3F8012240F225516748FCF7EFFF0C
:103DC00074A001F065FB10BD10B500F0CEFB10BD76
:103DD00010B500F0F6FA10BD10B5012001F0DBFBC4
:103DE00001F01DFCC0226F495F488C3801F00CFDCA
:103DF0005D488C3800686C49884205D008465A49AD
:103E00008C3908600020486057488C38D0F8AC00E6
:103E1000252817D00020534908600AE000215248A5
:103E2000504A126840F822104E480068401C4D4924
:103E300008604C4800680828F0DB25214A488C3887
:103E4000C0F8AC1000204749086028E046484549C2
:103E5000096830F8210000F2DC5081B24348414A41
:103E6000126800EB021041803F493E4A126851F847
:103E7000221001F2DC5006F0DDFD3C49394A12689F
:103E800001EB0211886000203849364A126801EBC4
:103E90000211C86033480068401C3249086031484C
:103EA00000680828D2DB002001F075FB10BD10B5BA
:103EB00000F0DBF910BD10B500F081F900210520FC
:103EC00000F058F910BD10B500F040F901210D20A7
:103ED00000F050F910BD10B500F02EF910BD10B56E
:103EE00000F0C2F810BD10B500F0F2FA10BD08B530
:103EF000FFF7F9FFFFF7F3FFFFF7EDFFFFF7E3FF32
:103F0000FFF7D9FFFFF7D3FFFFF766FFFFF760FF6B
:103F1000FFF75AFFFFF749FFFFF735FFFFF7C8FE2E
:103F2000FFF7BFFEFFF779FEFFF775FE01F09DFE7C
:103F30001E481F4B1F4A20490090204802F04CFFAA
:103F400000F0F6FA4AE00000410000000A010020FB
:103F50000B0100206006002000380140B400002062
:103F6000B8000020EC000020EC0A0020E001002056
:103F700000480040756172743320636865636B208C
:103F80006F6B2100233235355031353030543230AB
:103F900030302100756172743120636865636B2075
:103FA0006F6B210000F87F00383E3401880100204B
:103FB000000016430000C4420000D2420000B44298
:103FC000FFF70AFEFFF7D9FDFFF769FCFFF755FC85
:103FD000FFF739FCFEF773FCFEF735FCF0E710B590
:103FE00002F093FB10BD10B54FF4E13000F044FF38
:103FF000012240F225510348FCF7D1FE02A001F056
:104000005BFA10BD00440040756172743220636831
:1040100065636B206F6B2100704700BF0100A0F14A
:10402000010290B2FAD1704700BF0100A0F1010275
:1040300090B2FAD1704700B5034602E00620FFF7C0
:10404000ECFF1800A3F101018BB2F7D100BD10B550
:10405000044603E04FF47A70FFF7EDFF2000A4F16F
:1040600001018CB2F6D110BD002011E040F2DC510C
:104070002F4A02EB001251802E492D4A02EB00120A
:10408000916000212A4A02EB0012D160411CC8B2A3
:104090000828EBDB704770B504460B4621461A46EC
:1040A00019E008781578A84214D10AE011F8015BEC
:1040B00012F8016BB54204D0D01A081A411C1A46F6
:1040C00002E010780028F1D100BF107818B9081B61
:1040D00080B270BD491C08780028E2D100BFF8E723
:1040E000F0B50C46002117E00A464B1C07E050F8DB
:1040F000226050F82370BE4200DD1A465B1CA342CA
:10410000F5DB8A4207D050F8225050F8216040F881
:10411000226040F82150491C661E8E42E4DCF0BD4E
:104120000146002901DD084670474842FCE70000CF
:10413000E00100200080BB4410B501210D20FCF7F8
:104140007DFC01218848FCF796FA10BD08B50121D5
:104150000820FCF773FC4FF40050ADF8000010206D
:104160008DF8030003208DF8020069467F48FCF7B4
:10417000B3F908BD70B504460D4635B10120A04025
:1041800081B27A48FCF753FA05E00120A04081B2E1
:104190007648FCF74EFA70BD10B57548007820B12E
:1041A00000210D20FFF7E6FF03E001210D20FFF7BE
:1041B000E1FF6F480078C0436D49087010BD08B535
:1041C00001210820FCF73AFC2020ADF80000102067
:1041D0008DF8030003208DF8020069466348FCF760
:1041E0007BF908BD70B504460D46002616E0012196
:1041F0000520FFF7BFFF00210D20FFF7BBFFA0B296
:10420000FFF725FF00210520FFF7B4FF01210D2056
:10421000FFF7B0FFA0B2FFF71AFF761CAE42E6D35D
:1042200070BD70B504460D4635B10120A04081B285
:104230005048FCF7FCF905E00120A04081B24D4850
:10424000FCF7F7F970BD70B504460D4635B1012095
:10425000A04081B24848FCF7EAF905E00120A040FF
:1042600081B24548FCF7E5F970BD08B501210C2085
:10427000FCF7E4FB4FF40140ADF8000003208DF89B
:10428000020010208DF8030069463A48FCF724F933
:104290004FF47670ADF8000003208DF80200102076
:1042A0008DF8030069463148FCF716F908BD70B572
:1042B00004460D46062C22D2DFE804F003080D1256
:1042C000171C29460320FFF755FF19E0294608204F
:1042D000FFF750FF14E029460920FFF74BFF0FE0DE
:1042E00029460620FFF746FF0AE029460720FFF788
:1042F00041FF05E029460420FFF73CFF00E000BF36
:1043000000BF70BD08B501210C20FCF797FB4FF4EE
:104310000060ADF8000048208DF80300694613489E
:10432000FCF7DAF80220ADF8000048208DF8030011
:1043300069461048FCF7D0F808BD70B505460C4634
:1043400000260EE001210520FFF714FFA0B2FFF7C1
:104350007EFE00210520FFF70DFFA0B2FFF777FEDC
:10436000761CAE42EEDB70BD00023000000C014056
:104370000C01002000080140001001401CB5012183
:104380000520FCF75BFB01214F48FCF774F94FF463
:10439000E040ADF8040010208DF8070003208DF8F0
:1043A000060001A94948FCF797F84FF40040ADF822
:1043B000000028208DF8030069464448FCF78CF87B
:1043C0001CBD10B5FFF7DAFF4FF400513F48FCF772
:1043D0002EF94FF480413D48FCF729F94FF4805104
:1043E0003A48FCF724F910BD2DE9F04105462F4667
:1043F0000026002432E00120A040384205D04FF4CE
:1044000080413248FCF713F904E04FF480412F4813
:10441000FCF70FF90120FFF70EFE4FF480512B48F7
:10442000FCF705F90A20FFF706FE4FF480512748F4
:10443000FCF7FFF80A20FFF7FEFD4FF480512348F8
:10444000FCF7F5F84FF400412048FCF7D6F818B116
:104450000120A0403043C6B2601CC4B2082CCADBA5
:104460003046BDE8F08110B504464FF400511748BE
:10447000FCF7DFF80120FFF7B7FF20704220FFF7BD
:10448000B3FF60702078FFF7AFFFA0702078FFF7D0
:10449000ABFFE0702078FFF7A7FF20712078FFF7CF
:1044A000A3FF60712078FFF79FFFA0712078FFF7CE
:1044B0009BFFE0712078FFF797FF20724FF40051C7
:1044C0000248FCF7B4F810BD0004300000080140B9
:1044D00010B5FCF74DF94FF48030FCF769F9FCF7A3
:1044E000A6F9044600BF002CFDD00020FCF7E1F93E
:1044F0004FF48060FCF7E6F90020FCF7ECF94FF48C
:10450000E0114FF48030FCF7B7F90120FCF7C0F957
:1045100000BF3920FCF76FF90028FAD00220FCF721
:10452000BAF900BFFCF7C0F90828FBD110BD0000A4
:1045300010B545F25550FEF735F90620FEF735F96E
:104540004FF4EA70FEF734F9FEF735F9FEF738F963
:1045500010BD10B504460021204606F097FB01D29D
:10456000204610BD84F00040FBE700204FF0E02122
:104570008861F84848610846006940F00700086112
:10458000704710B500204FF0E0218861F2480068C4
:10459000401CF1490860FEF70EF910BDEE480068B6
:1045A00070477FB504460D460121C802FCF746FA64
:1045B000ADF80840681E80B2ADF804000020ADF8E8
:1045C0000A00ADF806008DF80C0001A9E348FCF7DD
:1045D000E3FD0121E148FDF701FC01224121DF4813
:1045E000FDF751F919208DF8000000208DF8010029
:1045F0008DF8020001208DF803006846FCF78BFA65
:104600000121D648FDF724F97FBD7FB505460C464C
:1046100001210846FCF71FFAADF80850ADF8044038
:104620000020ADF80A00ADF8060001A94FF0804067
:10463000FCF7B2FD00214FF08040FDF709FA01229E
:1046400011469007FDF71FF91C208DF8000001208E
:104650008DF8010002208DF8020001208DF8030082
:104660006846FCF758FA01218807FDF7F1F87FBD8D
:104670007FB505460C4601210220FCF7ECF9ADF8A8
:104680000850ADF804400020ADF80A00ADF806006F
:1046900001A9B348FCF780FD0021B148FDF7D8F926
:1046A00001221146AE48FDF7EEF81D208DF80000FE
:1046B00003208DF8010001208DF802008DF8030021
:1046C0006846FCF728FA0121A548FDF7C1F87FBD2F
:1046D00030B589B005460C4601210220FCF7BBF934
:1046E00001210820FCF7AAF90320ADF820001820CA
:1046F0008DF8230003208DF8220008A99948FBF7C4
:10470000EBFEADF81850ADF814400020ADF81A00DB
:10471000ADF8160005A99248FCF73EFD6020ADF803
:1047200004000120ADF806000020ADF80C004FF4A5
:10473000FA70ADF80A0001A98948FCF7F9FD0821D3
:104740008748FDF7CBF901A98548FCF73CFE082115
:104750008348FDF7CCF901218148FDF779F809B0CC
:1047600030BD30B589B005460C4601210420FCF768
:1047700072F901210820FCF761F94FF44070ADF89F
:10478000200018208DF8230003208DF8220008A9AE
:104790007448FBF7A1FEADF81850ADF814400020A6
:1047A000ADF81A00ADF8160005A96F48FCF7F4FC47
:1047B0006020ADF804000120ADF806000020ADF83F
:1047C0000C004FF4FA70ADF80A0001A96648FCF736
:1047D000AFFD08216448FDF781F901A96248FCF7A3
:1047E000F2FD08216048FDF782F901215E48FDF7DE
:1047F0002FF809B030BD10B504460021204606F060
:1048000045FA01D2204610BD84F00040FBE72DE9B7
:10481000F0470446554901EB0411C868002106F031
:10482000B5F84AD0514800EB0410458840F6BA105C
:10483000854201DD054604E0B5F5FA7F01DA4FF463
:10484000FA754A4A02EB0412D168484A02EB041294
:10485000D06805F06BFF8046FFF7CDFF064628467F
:1048600006F0E8F88146414800EB041081684846AC
:1048700006F03EFA8046FFF7BEFF0746314606F0D7
:1048800005F90CD8284606F0D5F8384901EB041193
:1048900088600020354901EB0411C8600DE0334AFF
:1048A00002EB0412D168314A02EB0412906805F061
:1048B0003DFF2E4901EB04118860BDE8F08710B57B
:1048C00001218807FDF78DFA002841D001218807D2
:1048D000FDF798FA26480078082802D100202449DC
:1048E000087024480078A0B92049214A127801EBC9
:1048F0000211886806F07EF84FF08041888501211A
:104900001B480078FFF7D3FC19480078FFF77FFFBA
:1049100016E01649164A127801EB0211886806F073
:1049200069F840F6C4110C1A09078C85002110485B
:104930000078FFF7BCFC0E480078401C0C4908705A
:104940000C48007808B9012000E0002009490870EF
:1049500010BD00004019010010010020002C014092
:1049600000040040000C014000080040E00100206D
:104970001C0100201B01002010B50121FE48FDF79D
:1049800030FA18B10121FC48FDF73CFA10BD30B5F2
:1049900089B005460C46012140F60400FCF74EF8AC
:1049A0004FF48070ADF8040048208DF80700032014
:1049B0008DF8060001A9F148FBF78EFD1B208DF84C
:1049C000080000208DF8090001208DF80A008DF8FC
:1049D0000B0002A8FCF79FF819208DF808000020B2
:1049E0008DF809008DF80A0001208DF80B0002A84F
:1049F000FCF791F8ADF81050ADF80C400020ADF880
:104A00001200ADF80E0003A9DD48FCF7C5FB00203D
:104A1000ADF818000220ADF81A000020ADF81E0015
:104A20000120ADF81C000020ADF8200006A9D448F4
:104A3000FCF745FE0121D248FDF7D0F90221D0480C
:104A4000FDF7CCF901220221CD48FCF71CFF012122
:104A5000CB48FCF7FDFE09B030BD10B50121C848B8
:104A6000FDF7BFF9012825D10121C548FDF7B6F9A9
:104A7000C4480078022805DAC2480078401CC149C1
:104A8000087017E0C04800781F2813DD0020BF49D8
:104A90000870BF490870BF490870BF490870BF4916
:104AA0000870B8490870B849087000220121B4485C
:104AB000FCF7E9FE10BD10B50221B148FDF791F9F0
:104AC000012815D10221AE48FDF788F9B0480078D9
:104AD000002853D1AD48007858B90021A848FDF707
:104AE0004BF90021A648FDF765F80120A749087099
:104AF0006AE1A648007801281FD1A148FDF752F9C4
:104B0000A749088000219E48FDF736F902219C48FC
:104B1000FDF750F8A2480088B0F5FA5F09DDA0481B
:104B2000008842F21071884203DA02209749087027
:104B30004AE100209549087046E19448007802282F
:104B4000D6D18F48FDF72EF99649088000218C4870
:104B5000FDF712F99348008840F6AC51884209DD10
:104B60009048008841F27C51884203DA012088494C
:104B7000087029E100208549087025E18248007805
:104B8000202852DA7E48FDF70DF987490880002178
:104B90007B48FDF7F1F884480088B0F57A7F0CDA9D
:104BA00081480088B0F5166F07DD0020774908704E
:104BB000774908707449087006E17C480068400035
:104BC0007A4908607848008840F2A461884205DD8F
:104BD0007648006840F00100744908606A4800782F
:104BE000401C69490870084600782028A0D16F4809
:104BF0000068000E6E4908706C480068000C487030
:104C00006A480088000A887068480078C8700846BA
:104C10008078C9780844FF288AD000205B49087052
:104C20005B49087058490870CEE05A480078B0B91E
:104C30005348FDF7B7F85A49088000215048FDF75E
:104C40009BF800214E48FCF7B5FF01205949087038
:104C500000204C49087001204E49087073E04D480F
:104C60000078012822D14648FDF79CF84C4908807D
:104C700000214348FDF780F802214148FCF79AFFE4
:104C800047480088B0F5FA5F09DD4548008842F2E0
:104C90001071884203DA02203E49087053E0002078
:104CA0003C49087001203D4908704CE039480078C3
:104CB000022822D13248FDF775F83A4908800021D0
:104CC0002F48FDF759F83748008840F2A461884220
:104CD0000CDD34480088B0F5166F07DA002128484B
:104CE000FCF768FF03202B4908702CE000202949BD
:104CF000087001202949087025E02648007803281B
:104D000021D11F48FDF74EF82549088000211C4895
:104D1000FDF732F802211A48FCF74CFF20480088C2
:104D2000B0F5FA7F09DD1E48008840F28A218842EA
:104D300003DA01201849087002E0012017490870C1
:104D40000020144908701448007848B10020124926
:104D500008700C490870012211460948FCF793FDC0
:104D60000E48007840B300200849087008490870D0
:104D700008490870084920E000040040000801408C
:104D8000002C0140190100201A010020140100200C
:104D90001501002016010020170100201801002035
:104DA00024010020260100202801002020010020ED
:104DB000740100207801002006E0087003490870A3
:104DC000034908700349087010BD00001801002055
:104DD000190100201A01002010B586B004460121F7
:104DE0000820FBF72BFE01218804FBF734FE4FF46B
:104DF0008060ADF8140018208DF8170003208DF89E
:104E0000160005A9F748FBF767FB4FF40060ADF803
:104E1000140004208DF8170005A9F248FBF75CFB8D
:104E200001940020ADF80800ADF80A00ADF80C00C0
:104E3000ADF810000C20ADF80E0001A9EA48FBF710
:104E400016FF27208DF8000001208DF801000320B7
:104E50008DF8020001208DF803006846FBF75BFE29
:104E6000012240F22551E048FBF799FF0121DE487D
:104E7000FBF789FF06B010BD10B586B004460121CE
:104E80000420FBF7DBFD01214804FBF7E4FDD748D4
:104E9000FBF7AAFE0420ADF8140003208DF81600DD
:104EA00018208DF8170005A9D148FBF715FB08203D
:104EB000ADF8140004208DF8170005A9CC48FBF7C5
:104EC0000BFB01940020ADF80800ADF80A00ADF826
:104ED0000C00ADF810000C20ADF80E0001A9C3487D
:104EE000FBF7C5FE26208DF8000001208DF801009B
:104EF00002208DF8020001208DF803006846FBF7C0
:104F00000AFE012240F22551B848FBF748FF012173
:104F1000B648FBF738FF06B010BD10B588B00446A0
:104F2000012144F20400FBF789FDB248FBF75CFE67
:104F30004FF40070ADF81C0003208DF81E001820FF
:104F40008DF81F0007A9AA48FBF7C6FA4FF4806046
:104F5000ADF81C0004208DF81F0007A9A448FBF73A
:104F6000BBFA03940020ADF81000ADF81200ADF8C4
:104F70001400ADF818000C20ADF816000020ADF8B4
:104F80000400ADF806004FF40070ADF808000020F2
:104F9000ADF80A0001A99748FBF7DEFE03A9954882
:104FA000FBF765FE4FF4E060FBF7B0FD25208DF8C0
:104FB000000001208DF801008DF802008DF803003B
:104FC0006846FBF7A8FD012240F225518948FBF70E
:104FD000E6FE01218748FBF7D6FE08B010BD10B5EC
:104FE0004FF4E130FFF799FF012240F2255181484B
:104FF000FBF7D5FE4FF4E130FFF73EFF012240F210
:1050000025517A48FBF7CBFE4FF4E130FFF7E4FE81
:10501000012240F225517448FBF7C1FE62B610BD73
:1050200010B5044621467348FBF71AFF10BD70B552
:1050300005460E46002400BF0CE0295D6D48FBF7D5
:105040000FFF00BF80216B48FBF778FF0028F9D0E5
:10505000601C84B2B442F0DB70BD10B504460BE0B6
:1050600014F8011B6348FBF7FBFE00BF8021614879
:10507000FBF764FF0028F9D020780028F0D110BD9C
:1050800010B5044621465948FBF7EAFE10BD70B53D
:1050900005460E46002400BF0CE0295D5348FBF78F
:1050A000DFFE00BF80215148FBF748FF0028F9D000
:1050B000601C84B2B442F0DB70BD10B504460BE056
:1050C00014F8011B4948FBF7CBFE00BF802147487D
:1050D000FBF734FF0028F9D020780028F0D110BD6C
:1050E00010B5044621464048FBF7BAFE10BD70B526
:1050F00005460E46002400BF0CE0295D3A48FBF748
:10510000AFFE00BF80213848FBF718FF0028F9D018
:10511000601C84B2B442F0DB70BD10B504460BE0F5
:1051200014F8011B3048FBF79BFE00BF80212E487E
:10513000FBF704FF0028F9D020780028F0D110BD3B
:1051400010B540F225512B48FBF7F8FE012879D124
:1051500040F225512748FBF731FF2648FBF784FE34
:10516000C4B22548007808B1002010BD3C2C06D1FF
:105170000420224908700020214908801CE01F48B3
:105180000078C8B9242C03D101201C49087010E014
:10519000232C03D10220194908700AE07B2C03D18B
:1051A00003201649087004E03C2C02D10420134966
:1051B0000870002012490880114801880088401CAE
:1051C0000F4A10800F4844540C48007804281BD123
:1051D0003E2C19D100200B49128888540120064921
:1051E00008703EE0000C01400048004000440040D0
:1051F00000080140003801400A0100200B01002096
:105200002A01002060060020C748007801280AD142
:10521000212C08D10020C549C54A12888854012094
:10522000C44908701DE0C048007802280BD1212C29
:1052300009D10021BD48BE4A128881540120BD49D0
:1052400008700EE015E0B8480078032809D17D2CDD
:1052500007D10020B549B64A128888540120B549C3
:105260000870B3480088B0F5806F02DB0020B049B9
:105270000880002079E710B540F22551AE48FBF7D1
:105280005DFE012878D140F22551AB48FBF796FE30
:10529000A948FBF7E9FDC4B23C2C06D10420A24981
:1052A00008700020A54908801CE09F480078C8B914
:1052B000242C03D101209C49087010E0232C03D139
:1052C0000220994908700AE07B2C03D103209649FB
:1052D000087004E03C2C02D104209349087000209F
:1052E00096490880954801880088401C934A1080A0
:1052F0008E4844548C480078042809D13E2C07D1AC
:1053000000208A491288885401208A4908702BE0BD
:105310008548007801280AD1212C08D10021834832
:10532000864A128881540120824908701CE07E4818
:10533000007802280AD1212C08D100217B487F4A1D
:105340001288815401207B4908700DE0764800786E
:10535000032809D17D2C07D100207449774A12888F
:10536000885401207349087074480088B0F5806F34
:1053700002DB002071490880002010BD10B540F20A
:1053800025516F48FBF7DAFD01287FD140F2255106
:105390006B48FBF713FE6A48FBF766FDC4B265482D
:1053A000007808B1002010BD3C2C06D104205E49D5
:1053B00008700020634908801CE05B480078C8B989
:1053C000242C03D101205849087010E0232C03D16C
:1053D0000220554908700AE07B2C03D10320524972
:1053E000087004E03C2C02D104204F4908700020D2
:1053F00054490880534801880088401C514A108055
:105400004A48445448480078042809D13E2C07D122
:1054100000204649128888540120464908702BE034
:105420004148007801280AD1212C08D100203F49A9
:10543000444A1288885401203E4908701CE03A48CA
:10544000007802280AD1212C08D1002137483D4A92
:10545000128881540120374908700DE032480078E5
:10546000032809D17D2C07D100203049354A128804
:10547000885401202F49087032480088B0F5806FA9
:1054800004DB00202F4900E000E0088000208AE7CC
:1054900010B504462046FFF7E0FD10BD70B5044688
:1054A0000D4629462046FFF7C2FD70BD10B50446E3
:1054B0002046FFF7B5FD10BD10B504462046FFF7A6
:1054C000FCFD10BD70B504460D4629462046FFF789
:1054D000DEFD70BD10B504462046FFF7D1FD10BDBE
:1054E00010B504460120134908702046FFF715FE49
:1054F0002046FFF7B2FD00200E49087010BD10B520
:1055000004462046FFF709FE10BD70B504460D465F
:1055100029462046FFF7EBFD70BD10B50446204636
:10552000FFF7DEFD10BD00000B010020600600202B
:105530002A0100200A010020004400402C01002024
:10554000004800402E01002070B50546002405E00B
:10555000601CC4B2C82C01DD002070BD0221FE48D1
:10556000FCF7A3FD0028F3D02946FB48FCF74AFDD1
:10557000002405E0601CC4B2C82C01DD0020ECE76B
:105580000121F548FCF791FD0028F3D0F248FCF723
:105590003BFDC0B2E1E710B50446ACB14FF400509A
:1055A000EE4908801820C870ED48FAF795FF4FF4CF
:1055B0000051EB48FBF73BF80121E748FCF7F1FC11
:1055C000FF20FFF7C1FF0EE00021E348FCF7E9FCF4
:1055D0004FF40050E14908801020C8700320887003
:1055E000DF48FAF779FF10BD002106E00A2100BF6D
:1055F0000A00A1F1010399B2FAD10200A0F101035E
:1056000098B2F3D1704710B50020D6498881D248AE
:10561000FCF722FC0121D048FCF7C3FC10BD08B503
:1056200001210820FBF70AFA4FF48050ADF8000082
:1056300010208DF8030003208DF802006946C84849
:10564000FAF74AFF4FF48051C548FAF7F0FF4FF4DC
:105650002040ADF8000018208DF803006946C048CE
:10566000FAF73AFF4FF48040ADF8000048208DF87B
:1056700003006946BA48FAF72FFF4FF42041B848B3
:10568000FAF7D5FF01218803FBF7E5F90020B549BA
:1056900008804FF482704880002088800220C880F3
:1056A0000120088140024881382088810020C8817B
:1056B00007200882A848FCF7CFFB0121A648FCF789
:1056C00070FCFF20FFF740FFFFF79DFF08BD10B5FE
:1056D0003020A4498881A048FCF7BEFB01219E48E8
:1056E000FCF75FFC10BD10B5002400224FF4805180
:1056F0009B48FAF7A0FF9020FFF726FF0020FFF756
:1057000023FF0020FFF720FF0020FFF71DFFFF20F1
:10571000FFF71AFF44EA0024FF20FFF715FF0443B8
:10572000012211038E48FAF786FF204610BD10B5FE
:10573000002400224FF480518948FAF77CFF0520AD
:10574000FFF702FFFF20FFF7FFFE044601221103CF
:105750008348FAF770FF204610BD10B504460022BA
:105760004FF480517E48FAF766FF0120FFF7ECFE08
:105770002046FFF7E9FE012211037948FAF75BFFA3
:1057800010BD10B500224FF480517548FAF753FF51
:105790000620FFF7D9FE012211037148FAF74BFFEB
:1057A00010BD10B500224FF480516D48FAF743FF49
:1057B0000420FFF7C9FE012211036948FAF73BFFF5
:1057C00010BD10B5044600224FF480516448FAF72A
:1057D00032FF0320FFF7B8FEC4F30740FFF7B4FE23
:1057E000C4F30720FFF7B0FEE0B2FFF7ADFEFF20E5
:1057F000FFF7AAFE5C490870012211035848FAF726
:105800001AFF5948007810BD2DE9F04106460C46B4
:10581000174600224FF480515148FAF70CFF03203D
:10582000FFF792FEC4F30740FFF78EFEC4F3072094
:10583000FFF78AFEE0B2FFF787FE002505E0FF20B4
:10584000FFF782FE7055681C85B2BD42F7DB01226E
:1058500011034348FAF7EFFEBDE8F08110B500BF31
:10586000FFF765FF10F0010FFAD110BD2DE9F041EF
:1058700007460C461646E0B2C0F58078464500DD86
:105880004646FFF77EFF00224FF480513448FAF776
:10589000D2FE0220FFF758FEC4F30740FFF754FE84
:1058A000C4F30720FFF750FEE0B2FFF74DFE0025DE
:1058B00004E0785DFFF748FE681C85B2B542F8DB6E
:1058C000012211032648FAF7B6FEFFF7C7FFBDE82D
:1058D000F0812DE9F04107460E461446F0B2C0F5BE
:1058E0008075AC4200DC254612E02A463146384637
:1058F000FFF7BCFFAC4200D10BE02F442E44601BED
:1059000084B2B4F5807F02DD4FF4807500E0254657
:10591000EBE700BFBDE8F08110B504462403FFF7B4
:1059200030FFFFF79BFF00224FF480510C48FAF73D
:1059300082FE2020FFF708FEC4F30740FFF704FEB5
:10594000C4F30720FFF700FEE0B2FFF7FDFD0122E0
:10595000110303480AE00000003800403201002033
:10596000000C0140200B002030010020FAF763FEFC
:10597000FFF774FF10BD2DE9F04781460F4616462C
:105980004FEA1738C7F30B0ACAF58054A64200DC69
:10599000344644E04FEA08314FF480528A48FFF71A
:1059A00033FF002508E00AEB05008749085CFF2863
:1059B00000D003E0681C85B2A542F4DB00BFA5421D
:1059C00016DA4046FFF7A8FF002507E019F80500A2
:1059D00005EB0A017C4A5054681C85B2A542F5DBF0
:1059E0004FEA08314FF480527748FFF772FF04E026
:1059F000224639464846FFF76CFFA64200D10FE029
:105A000008F101084FF0000AA1442744301B86B278
:105A1000B6F5805F02DD4FF4805400E03446B9E70C
:105A200000BFBDE8F0872DE9F04107460C4615465A
:105A3000C4F30B00C0F58056B54200DD35462A465A
:105A400021463846FFF745FFBDE8F0812DE9F043D8
:105A500081B0ADF5805D80460F4616464FF00009D7
:105A6000C7F30B00C0F58054A64200DC344644E086
:105A70004FEA17394FEA09314FF4805201A8FFF776
:105A8000C3FE002509E0C7F30B00284401A9085C08
:105A9000FF2800D003E0681C85B2A542F3DB00BFFD
:105AA000A54217DA4846FFF737FF002508E018F847
:105AB0000500C7F30B01294401AA5054681C85B2A4
:105AC000A542F4DB4FEA09314FF4805201A8FFF7F9
:105AD000AAFF04E0224639464046FFF7A4FFA6424B
