:020000040800F2
:10000000A02100202128000837020008390200083A
:100010003D020008410200084502000800000000FF
:10002000000000000000000000000000490200087D
:100030004B020008000000004D020008C345000804
:100040003B2800083B2800083B2800083B28000804
:100050003B2800083B2800083B2800083B280008F4
:100060003B2800083B2800083B2800083B280008E4
:100070003B2800083B2800083B2800083B280008D4
:100080003B2800083B2800083B2800083B280008C4
:100090003B2800083B2800083B2800083B280008B4
:1000A0003B2800089B4A00083B280008F74A000844
:1000B000FF480008B94900083B2800083B28000811
:1000C0003B2800083B2800083B2800083B28000884
:1000D0003B28000881510008B7520008BD530008B2
:1000E0003B2800083B2800083B2800083B28000864
:1000F0003B2800083B2800083B2800083B28000854
:100100003B2800083B2800083B2800083B28000843
:100110003B2800083B2800083B2800083B28000833
:100120003B2800083B2800083B2800083B28000823
:1001300000F002F800F070F80AA090E8000C824489
:100140008344AAF10107DA4501D100F065F8AFF266
:10015000090EBAE80F0013F0010F18BFFB1A43F0A5
:1001600001031847F0B3000010B400000A444FF038
:10017000000C10F8013B13F0070408BF10F8014B06
:100180001D1108BF10F8015B641E05D010F8016B4B
:10019000641E01F8016BF9D113F0080F1EBF10F8AF
:1001A000014BAD1C0C1B09D16D1E58BF01F801CBD2
:1001B000FAD505E014F8016B01F8016B6D1EF9D555
:1001C0009142D6D37047000000230024002500266A
:1001D000103A28BF78C1FBD8520728BF30C148BFAA
:1001E0000B60704766290AF01686642907F076814D
:1001F000002070471FB507F0E9FE04000020002131
:1002000009F056FC401C60600020002109F03AFC17
:10021000E0601FBD10B510BD08F09EF91146FFF754
:10022000E9FF03F084FE08F0C5F903B4FFF7F2FF1D
:1002300003BC08F009FA704700BFFEE700BFFEE705
:1002400000BFFEE700BFFEE7704770477047000041
:100250000CB50020019000906C48006840F480309C
:100260006A49086000BF6948006800F400300090E7
:100270000198401C0190009818B90198B0F5A06F42
:10028000F1D16248006800F4003010B10120009004
:1002900001E0002000900098012843D15C480068EC
:1002A00040F010005A4908600846006820F003003A
:1002B00008600846006840F0020008605348406843
:1002C000524948600846406848600846406840F423
:1002D000806048600846406820F47C10486008460A
:1002E000406840F4E81048600846006840F08070BC
:1002F000086000BF4548006800F000700028F9D091
:100300004248406820F00300404948600846406881
:1003100040F00200486000BF3C48406800F00C001C
:100320000828F9D10CBD10B5FFF792FF10BD10B52C
:100330003648006840F001003449086008464068CB
:10034000344908403149486008460068324908404D
:100350002E4908600846006820F48020086008469E
:10036000406820F4FE0048604FF41F008860FFF7EB
:10037000DAFF4FF000602949086010BD10B5002178
:1003800000200022214B5B6803F00C0121B10429FD
:1003900006D0082928D107E0214B224C236027E012
:1003A0001F4B204C236023E0184B5B6803F4701054
:1003B000164B5B6803F48032022303EB904022B9B2
:1003C000194B4343174C23600DE0104B5B6803F45B
:1003D000003323B1144B4343124C236003E0104B12
:1003E0004343104C236003E00D4B0E4C236000BFD1
:1003F00000BF064B5B68C3F303130C4CE15C094B75
:100400001B68CB40074C236010BD00000010024069
:10041000002002400000FFF8FFFFF6FE08ED00E0BC
:1004200000127A000000002000093D0004000020B6
:1004300010B50446CC48844208D10121042000F0C4
:100440002DFB0021042000F029FB46E0C748844230
:1004500008D10121082000F021FB0021082000F034
:100460001DFB3AE0C248844208D10121102000F06F
:1004700015FB0021102000F011FB2EE0BD48844246
:1004800008D10121202000F009FB0021202000F0EC
:1004900005FB22E0B848844208D10121402000F049
:1004A000FDFA0021402000F0F9FA16E0B34884423A
:1004B00008D10121802000F0F1FA0021802000F015
:1004C000EDFA0AE0AE48844207D10121801500F020
:1004D000E5FA0021A01500F0E1FA10BD10B50121E8
:1004E000084600F0DBFA0021012000F0D7FA10BD29
:1004F0002DE9F041024600250026002000230024BB
:10050000002791F803C00CF00F0591F803C00CF020
:10051000100CBCF1000F03D091F802C04CEA0505A5
:1005200091F800C0BCF1000F31D0146800202BE01E
:100530004FF0010C0CFA00F3B1F800C00CEA03060E
:100540009E4220D183004FF00F0C0CFA03F7BC43FE
:1005500005FA03FC4CEA040491F803C0BCF1280F2F
:1005600006D14FF0010C0CFA00FCC2F814C00AE0EE
:1005700091F803C0BCF1480F05D14FF0010C0CFA03
:1005800000FCC2F810C0401C0828D1D31460B1F898
:1005900000C0BCF1FF0F34DD546800202EE000F1F4
:1005A000080C4FF0010808FA0CF3B1F800C00CEA8F
:1005B00003069E4221D183004FF00F0C0CFA03F783
:1005C000BC4305FA03FC4CEA040491F803C0BCF1F7
:1005D000280F05D100F1080C08FA0CF8C2F81480B5
:1005E00091F803C0BCF1480F07D100F1080C4FF09F
:1005F000010808FA0CF8C2F81080401C0828CED375
:100600005460BDE8F0814FF6FF71018002218170D6
:100610000421C17070470246002093680B400BB163
:10062000012000E0002070470146886880B27047D2
:1006300002460020D3680B400BB1012000E00020EF
:1006400070470146C86880B27047016170474161D8
:1006500070470AB1016100E041617047C1607047B5
:100660004FF480320A4382618161826182698269CA
:10067000704702460020434B18684FF680731840BD
:1006800040EA021008433F4B186070473E49C8617A
:100690007047F0B50A46002300240021002500F031
:1006A0000046B6F1004F02D1364EF16901E0354EF9
:1006B0007168C0F3034583B200F44016B6F5401FDD
:1006C00008D121F070612F4E766826F070662D4FAC
:1006D0007E6012E000F48016B6F5801F06D1032676
:1006E00006FA05F4A14341F0706106E0460D3601BB
:1006F00003FA06F6B14341F0706122B1460D3601AE
:1007000003FA06F6314300F00046B6F1004F02D17D
:100710001C4EF16101E01B4E7160F0BD30B500224E
:100720008B071C0F0F2303FA04F2164B08338C10AF
:1007300053F824309343134C08348D1044F825307B
:1007400023468C1053F824308C07240F00FA04F44D
:1007500023430C4C08348D1044F8253030BD0A4931
:10076000DC3108607047000000080140000C0140C7
:10077000001001400014014000180140001C01401D
:10078000002001400000014000002042DF480068D6
:1007900040F00100DD49086008464068DC49084037
:1007A000DA49486008460068DA490840D7490860D5
:1007B0000846006820F4802008600846406820F45D
:1007C000FE0048604FF41F0088607047CF490968F9
:1007D00021F48031CD4A11601146096821F480214D
:1007E0001160B0F5803F03D0B0F5802F0ED106E048
:1007F000C649096841F48031C44A116007E0C34921
:10080000096841F4A021C14A116000E000BF00BFA7
:10081000704710B501460022002300204A11012A2A
:1008200002D1BA4C236806E0022A02D1B74C236AEF
:1008300001E0B64C636A01F01F02012494401C40A1
:100840000CB1012000E0002010BD38B50020009060
:100850000024002500BF3120FFF7DBFF054600988C
:10086000401C00900098B0F5A06F01D0002DF2D090
:100870003120FFF7CEFF08B1012400E0002420461C
:1008800038BD01460020A14A106820F0F80040EA77
:10089000C10010607047A049086070470246002000
:1008A0009A4B586820F47C1042EA01031843974B96
:1008B0005860704798490866704701460020934A7F
:1008C000506820F003000843506070478F4840682C
:1008D00000F00C007047014600208C4A506820F060
:1008E000F00008435060704701460020874A506876
:1008F00020F4E06008435060704701460020834ABE
:10090000506820F4605040EAC1005060704729B13F
:100910007E4A527A02437D4B5A7204E07B4A527AF5
:1009200082437A4B5A7270477B49D83108607047CE
:1009300001460020754A506820F44040084350604A
:1009400070470021714A20321170704A82F82010DD
:10095000012802D004280AD104E001216B4A203288
:10096000117005E00521694A2032117000E000BFD6
:1009700000BF70476949086070476449096A0143CC
:10098000624A11627047654944390860704730B562
:1009900000210022002400235C4D6D6805F00C014D
:1009A00021B1042905D0082923D105E05C4D05605B
:1009B00022E05B4D05601FE0544D6D6805F4701238
:1009C000524D6D6805F48034022505EB92421CB946
:1009D000544D554305600BE04C4D6D6805F40035F2
:1009E0001DB1504D5543056002E04D4D5543056026
:1009F00002E04B4D056000BF00BF444D6D6805F03F
:100A0000F0010909484D6B5C0568DD4045603F4DCC
:100A10006D6805F4E061090A434D6B5C4568DD4093
:100A200085603A4D6D6805F46051C90A3E4D6B5CB6
:100A30004568DD40C560354D6D6805F44041890B62
:100A40003A4D6B5CC568B5FBF3F5056130BD29B166
:100A50002E4A526902432D4B5A6104E02B4A5269D7
:100A600082432A4B5A61704729B1284A926902434E
:100A7000264B9A6104E0254A92698243234B9A618E
:100A8000704729B1214AD2690243204BDA6104E060
:100A90001E4AD26982431D4BDA61704729B11B4A55
:100AA000D2680243194BDA6004E0184AD2688243E4
:100AB000164BDA60704729B1144A12690243134B8E
:100AC0001A6104E0114A12698243104B1A6170479F
:100AD00012494039086070470F49C86470470B4994
:100AE000C87170470948406A40F080700749486201
:100AF000704701460020054A92680A400AB1012069
:100B000000E00020704701498872704700100240E1
:100B10000000FFF8FFFFF6FE000042428004424260
:100B200000127A0000093D0014000020240000207B
:100B300031490143314A1160704770B500210023EB
:100B40000F22C47804B32D4C246804F4E064C4F587
:100B5000E064210AC1F10403CA40447804FA03F1B5
:100B60008478144021430901254C0678A155047866
:100B700004F01F050124AC4005786D11AD0005F1AE
:100B8000E025C5F8004109E0047804F01F050124C0
:100B9000AC401C4D0678761145F8264070BD1A4AC7
:100BA0000A400243154B1B1F1A60704739B1134AA4
:100BB000121D12680243114B1B1D1A6006E00F4AFA
:100BC000121D126882430D4B1B1D1A6070470428CA
:100BD00008D14FF0E021096941F004014FF0E02213
:100BE000116107E04FF0E021096921F004014FF0A5
:100BF000E0221161704700000000FA050CED00E0F2
:100C000000E400E080E100E080FFFF1F10B5044633
:100C1000FB48844209D101218803FFF73FFF0021EF
:100C20004FF48040FFF73AFF32E0F648844209D1A2
:100C300001214804FFF73FFF00214FF40030FFF788
:100C40003AFF25E0F048844209D101218804FFF7EA
:100C500032FF00214FF48020FFF72DFF18E0EB4812
:100C6000844209D10121C804FFF725FF00214FF478
:100C70000020FFF720FF0BE0E548844208D1012166
:100C80000805FFF718FF00214FF48010FFF713FF4E
:100C900010BD2DE9F04786B005460E460024A24659
:100CA00000BFA1460027B08900B100BF2F462C8AA3
:100CB0004CF6FF700440F08804432C82AC894EF659
:100CC000F3100440B0883189084371890843044314
:100CD000AC81AC8A4FF6FF400440B0890443AC823B
:100CE00001A8FFF754FEC648874202D1DDF810A0E4
:100CF00001E0DDF80CA0A88900F4004040B10AEB47
:100D0000CA0000EB0A1031684900B0FBF1F807E0B7
:100D10000AEBCA0000EB0A1031688900B0FBF1F859
:100D20006420B8FBF0F004012009642101FB108964
:100D3000A88900F4004040B1322000EBC900B0FBAC
:100D4000F1F000F00700044308E0322000EB091046
:100D50006421B0FBF1F000F00F0004432C8106B0D9
:100D6000BDE8F0874FF41651016000218180C180F9
:100D700001810C21418100218181704710B502461B
:100D80000020108A4FF2FF0318400B884C88234341
:100D90008C882343CC8823431843108210BD002144
:100DA000018041808180C180704721B1828942F4F5
:100DB0000052828104E082894DF6FF731A408281DD
:100DC0007047F0B50346002400260025002040F6B9
:100DD0006A17B94200D100BF1846C1F3421401F0AE
:100DE0001F06012707FA06F5012C01D10C3004E09B
:100DF000022C01D1103000E014301AB107682F43E3
:100E0000076002E00768AF430760F0BD1AB1838A4C
:100E10000B43838202E0838A8B4383827047028A7A
:100E20004FF6F0731A400282028A0A430282704728
:100E300082894FF2FF731A40828182890A4382813C
:100E4000704721B1828942F00202828104E08289E6
:100E50004FF6FD731A4082817047028A4FF6DF73A6
:100E60001A400282028A0A430282704721B1028A32
:100E700042F48042028204E0028A4BF6FF731A4079
:100E800002827047C1F30802828070470146888859
:100E9000C0F308007047818941F0010181817047EA
:100EA000028BD2B20283028B42EA01220283704794
:100EB000028B02F47F420283028B0A430283704753
:100EC00021B1828A42F02002828204E0828A4FF6B7
:100ED000DF731A408282704721B1828A42F0100289
:100EE000828204E0828A4FF6EF731A408282704752
:100EF00021B1828A42F00802828204E0828A4FF69F
:100F0000F7731A408282704721B1828942F400420D
:100F1000828103E08289C2F30E028281704721B18F
:100F2000828A42F40062828204E0828A4FF2FF7376
:100F30001A4082827047828A4FF6FB731A4082827F
:100F4000828A0A438282704721B1828A42F0020279
:100F5000828204E0828A4FF6FD731A4082827047D3
:100F600002460020B1F5007F00D100BF13880B407E
:100F70000BB1012000E00020704701F40072B2F5CF
:100F8000007F00D100BFCA430280704770B502469F
:100F9000002400230025002040F66A16B14200D14B
:100FA00000BFC1F3421501F01F03012606FA03F347
:100FB000012D02D19689334006E0022D02D1168A16
:100FC000334001E0968A33400C12012606FA04F4FD
:100FD0001688344013B10CB1012000E0002070BD30
:100FE00010B50022002340F66A14A14200D100BFD0
:100FF0000A1201249440A3B2DC43048010BD000017
:10100000003801400044004000480040004C0040CF
:101010000050004010B50446FE48844208D101212A
:10102000C014FFF73BFD0021E014FFF737FDC4E0DB
:10103000B4F1804F08D101210846FFF73CFD0021A3
:101040000120FFF738FDB8E0F348844208D10121C0
:101050000220FFF730FD00210220FFF72CFDACE05D
:10106000EE48844208D101210420FFF724FD00212D
:101070000420FFF720FDA0E0E948844208D10121C7
:101080000820FFF718FD00210820FFF714FD94E069
:10109000E448844208D101211020FFF70CFD002113
:1010A0001020FFF708FD88E0DF48844208D10121C5
:1010B0002020FFF700FD00212020FFF7FCFC7CE052
:1010C000DA48844208D101214014FFF7E7FC0021EF
:1010D0006014FFF7E3FC70E0D548844209D1012198
:1010E000C804FFF7DBFC00214FF40020FFF7D6FC1B
:1010F00063E0D048844209D101210805FFF7CEFC06
:1011000000214FF48010FFF7C9FC56E0CA48844222
:1011100009D101214805FFF7C1FC00214FF400105F
:10112000FFF7BCFC49E0C548844208D101214020BA
:10113000FFF7C1FC00214020FFF7BDFC3DE0C048A7
:10114000844208D101218020FFF7B5FC00218020D6
:10115000FFF7B1FC31E0BB48844208D10121801582
:10116000FFF7A9FC0021A015FFF7A5FC25E0B64874
:10117000844209D101210804FFF790FC00214FF4BB
:101180008030FFF78BFC18E0B048844209D1012180
:101190004804FFF783FC00214FF40030FFF77EFC8A
:1011A0000BE0AB48844208D101218804FFF776FCAC
:1011B00000214FF48020FFF771FC10BD002202884F
:1011C000944B98420ED0994B98420BD0B0F1804F7F
:1011D00008D0914B984205D0904B984202D0904B4A
:1011E000984204D14FF68F731A404B881A438D4BA7
:1011F000984207D08C4B984204D04FF6FF431A40D8
:10120000CB881A4302808B8883850B880385814BAA
:1012100098420BD0854B984208D08B4B984205D012
:101220008A4B984202D08A4B984201D10B7A0386AE
:1012300001238382704770B5002400220023058CAF
:101240004FF6FE7635400584028C8388048B4FF67A
:101250008F752C40B51E2C400D882C43751E2A40DE
:101260000D892A434D882A436A4DA8420BD06F4D01
:10127000A84208D0744DA84205D0744DA84202D0AF
:10128000734DA84213D14FF6F7752A404D892A4372
:101290004FF6FB752A408D882A434FF6FF652B4099
:1012A0004FF6FF552B408D892B43CD892B438380EF
:1012B0000483CD888586028470BD70B50024002229
:1012C0000023058C4FF6EF7635400584028C838829
:1012D000048B48F6FF752C404FF6FF452C400D88D7
:1012E0004FF6FF7606EA05252C434FF6DF752A40B8
:1012F0000D8906EA05152A434D8806EA05152A4395
:10130000444DA84202D0494DA8421DD14FF67F75E9
:101310002A404D894FF6FF7606EA05152A434FF617
:10132000BF752A408D8806EA05152A434FF6FF351A
:101330002B404FF2FF752B408D8906EA85052B4324
:10134000CD8906EA85052B4383800483CD880587F4
:10135000028470BD70B5002400220023058C4FF676
:10136000FF6635400584028C8388848B4FF68F7529
:101370002C404FF6FC752C400D882C434FF6FF5542
:101380002A400D894FF6FF7606EA05252A434D8847
:1013900006EA05252A431F4DA84202D0234DA84244
:1013A0001DD14FF2FF752A404D894FF6FF7606EAB0
:1013B00005252A434FF6FF352A408D8806EA052584
:1013C0002A434EF6FF752B404DF6FF752B408D8955
:1013D00006EA05152B43CD8906EA05152B438380C4
:1013E0008483CD888587028470BD70B50022002378
:1013F0000024058C4EF6FF7635400584038C8488E6
:10140000828B48F6FF752A404FF6FF452A400D882B
:1014100020E00000002C01400004004000080040D3
:10142000000C004000100040001400400034014057
:10143000004C0140005001400054014000180040A1
:10144000001C0040002000400040014000440140DA
:10145000004801404FF6FF7606EA05252A434DF67F
:10146000FF752B400D8906EA05352B434D8806EAAA
:1014700005352B43FA4DA84202D0FA4DA84208D1B7
:101480004BF6FF752C408D894FF6FF7606EA8515E1
:101490002C4384808283CD88A0F84050038470BDA3
:1014A000828B4FF2FF331A408283828B4FF6FF7399
:1014B00003EA01231A4382837047F0B50C461546B0
:1014C000002200210026078C4EF6FF7C07EA0C075D
:1014D0000784828B018C4FF6FF7707EA043640F6CB
:1014E000FF473A404FF6FF7707EA05273A434FF6A2
:1014F000FF7707EA03373A43D94FB8420ED0D94FA6
:10150000B8420BD0B0F1804F08D0D74FB84205D0C9
:10151000D64FB84202D0D64FB84206D14DF6FF772B
:10152000394046F48057394305E047F6FF573940C4
:1015300044F48057394382830184F0BD828B4FF697
:10154000F3731A408283828B0A4382837047F0B51B
:101550000C461546002200210026078C4FF6FF6C32
:1015600007EA0C070784828B018C4FF6FF7707EAA6
:1015700004264FF60C773A404FF6FF7707EA031739
:101580002F433A43B64FB8420ED0B64FB8420BD0B5
:10159000B0F1804F08D0B44FB84205D0B34FB84235
:1015A00002D0B34FB84206D14FF6FF57394046F448
:1015B0008077394305E04FF2FF57394044F4807794
:1015C000394382830184F0BD028B4FF2FF331A400E
:1015D0000283028B4FF6FF7303EA01231A4302834F
:1015E0007047F0B50C461546002200210026078CF6
:1015F0004FF6EF7C07EA0C070784028B018C4FF64D
:10160000FF7707EA041640F6FF473A404FF6FF77A8
:1016100007EA03373A434FF6FF7707EA05273A43CD
:101620008F4FB8420ED08F4FB8420BD0B0F1804FE1
:1016300008D08D4FB84205D08C4FB84202D08C4FA5
:10164000B84206D14FF6DF77394046F010073943EC
:1016500005E04FF65F77394044F0100739430283C5
:101660000184F0BD028B4FF6F3731A400283028BA4
:101670000A4302837047F0B50C461546002200214C
:10168000068C4FF6FE773E400684028B018C4FF6A7
:101690000C7632407E1C06EA03162E433243704E0F
:1016A000B0420ED06F4EB0420BD0B0F1804F08D098
:1016B0006D4EB04205D06D4EB04202D06C4EB0427D
:1016C00006D14FF6FD76314044F00106314305E086
:1016D0004FF6F576314044F0010631430283018430
:1016E000F0BD70B505460C465D4885420ED05D489C
:1016F00085420BD0B5F1804F08D05B48854205D0BC
:101700005A48854202D05A48854200D100E000BFC5
:10171000208850B92389A28861882846FFF7ABFF4B
:10172000E1882846FFF79EFF25E0208804280AD19B
:101730002389A28861882846FFF753FFE18828465D
:10174000FFF742FF17E0208808280AD12389A288E2
:1017500061882846FFF7FBFEE1882846FFF7EEFE8A
:1017600009E02389A28861882846FFF7A6FEE18860
:101770002846FFF795FE70BD2DE9F04105460C4661
:1017800000260127608808B9022600E00026A0880C
:10179000012801D1022700E001272088A0B9238970
:1017A000A28861882846FFF766FFE1882846FFF790
:1017B00059FF23893A4631462846FFF712FFE18850
:1017C0002846FFF701FF13E02389A2886188284695
:1017D000FFF707FFE1882846FFF7F6FE23893A4620
:1017E00031462846FFF747FFE1882846FFF73AFFD2
:1017F000BDE8F0810A884B881A438B881A43CB884E
:101800001A430B891A434B891A438B891A43A0F850
:10181000442070474FF6FF71818000210180C18014
:101820004180017270470021018041808180C18028
:10183000018141818181C181704700210180418006
:10184000012181800021C180018170470021018038
:1018500041808180C1800181418181817047000088
:10186000002C01400034014000040040000800400A
:10187000000C004021B1028842F00102028004E025
:1018800002884FF6FE731A400280704731B1B0F8FB
:10189000442042F40042A0F8442005E0B0F844207F
:1018A000C2F30E02A0F8442070471AB183890B439B
:1018B000838102E083898B438381704781827047F3
:1018C00041EA0203A0F8483070471AB183890B43FC
:1018D000838102E083898B438381704701894FF6BE
:1018E000F8721140018170470A46002101894FF6C4
:1018F0008F73194011430181704730B504460D467E
:1019000029462046FFF7F0FF208940F0070020819C
:1019100030BD2DE9F04104460D4616461F46602DA8
:1019200006D13B46012231462046FFF75AFE05E02C
:101930003B46012231462046FFF79DFE29462046C0
:10194000FFF7D2FF208940F007002081BDE8F08139
:1019500030B50C4600210189C9B24FF6FF7505EA82
:101960000325154325432943018130BD2DE9F0416D
:1019700005460E4617469846002443463A463146E9
:101980002846FFF7E5FF2C894FF6F870044044F035
:1019900007044FF68F70044044F070042C81BDE8BA
:1019A000F081F0B504460D4616461F463B463246CA
:1019B00029462046FFF7CCFF208940F48040208153
:1019C000F0BD0185828270470A46002101884FF6EA
:1019D0008F731940114301807047F0B50C461546CE
:1019E0001E460021002200230189028B038C4FF642
:1019F000F877394021434FF6FC473A4040F201174F
:101A00003A434FF6DD773B404FF6FF7707EA06177C
:101A10002F433B43018102830384F0BD0A4600212A
:101A2000018B4FF68F7319401143018370470A46AB
:101A30000021018B48F6FF7319404FF6FF7303EA4C
:101A400002231943018370470A460021818B4FF618
:101A50008F7319401143818370470A460021818B9F
:101A600048F6FF7319404FF6FF7303EA0223194348
:101A70008183704721B1028842F08002028004E035
:101A800002884FF67F731A400280704721B1828826
:101A900042F00402828004E082884FF6FB731A4011
:101AA0008280704721B1828842F00802828004E07F
:101AB00082884FF6F7731A408280704721B182887E
:101AC00042F00102828004E082884FF6FE731A40E1
:101AD000828070470A460021018B4FF6F773194048
:101AE0001143018370470A460021018B4FF2FF73B7
:101AF00019404FF6FF7303EA02231943018370472D
:101B00000A460021818B4FF6F773194011438183F8
:101B100070470A460021818B4FF2FF7319404FF640
:101B2000FF7303EA02231943818370470A460021A9
:101B3000018B4FF6FB7319401143018370470A462E
:101B40000021018B4FF6FF3319404FF6FF7303EA74
:101B500002231943018370470A460021818B4FF607
:101B6000FB7319401143818370470A460021818B22
:101B70004FF6FF3319404FF6FF7303EA0223194370
:101B8000818370470A460021018B4FF67F7319400D
:101B90001143018370470A460021018BC1F30E01F6
:101BA0004FF6FF7303EA02231943018370470A4685
:101BB0000021818B4FF67F73194011438183704759
:101BC0000A460021818BC1F30E014FF6FF7303EA31
:101BD00002231943818370470A460021018C4FF686
:101BE000FD7319401143018470470A460021018C9E
:101BF0004FF6F77319401143018470470A460021DC
:101C0000018C4FF6DF7319404FF6FF7303EA02139E
:101C10001943018470470A460021018C4FF67F73F7
:101C200019404FF6FF7303EA02131943018470470A
:101C30000A460021018C4FF6FF5319404FF6FF73FF
:101C400003EA02231943018470470A460021018CEC
:101C50004FF2FF7319404FF6FF7303EA0223194353
:101C6000018470470A460021018C4DF6FF7319402C
:101C70004FF6FF7303EA023319430184704730B50E
:101C8000002301248C40A3B2048C9C430484048C64
:101C900002FA01F5ADB22C43048430BD30B5002307
:101CA00004248C40A3B2048C9C430484048C02FA68
:101CB00001F5ADB22C43048430BD70B5034600205D
:101CC00000241846183001258D40ACB21D8CA54368
:101CD0001D8409B1082909D100EB6100056825F0D0
:101CE000700505600568154305600EE00D1FC5F31E
:101CF0004E052844056825F4E045056005684FF663
:101D0000FF7606EA02263543056070BD21B10288E0
:101D100042F00202028004E002884FF6FD731A408E
:101D20000280704721B1028842F00402028004E080
:101D300002884FF6FB731A400280704721B18288F7
:101D400042F08002828004E082884FF67F731A405E
:101D50008280704702884FF6F7731A40028002882B
:101D60000A430280704782884FF68F731A40828040
:101D700082880A438280704702894FF6F8731A40BE
:101D8000028102890A430281704702894FF67F73FC
:101D90001A40028102890A43028170478184704798
:101DA00081857047818670470187704781877047BA
:101DB000A0F84010704702884FF6FF431A40028097
:101DC00002880A43028070470146888E70470146A8
:101DD000088F70470146888F70470146B1F8400070
:101DE00070470146888C70470146088D704702464F
:101DF0000020138A0B400BB1012000E00020704747
:101E0000CA430282704730B50246002000230024F6
:101E1000158A05EA0103958905EA010413B10CB19D
:101E2000012000E0002030BDCA430282704700005C
:101E300010B50446BE48844208D101218014FEF743
:101E40002DFE0021A014FEF729FE16E0B9488442B9
:101E500008D101210014FEF72EFE00212014FEF708
:101E60002AFE0AE0B448844207D10121C013FEF7DC
:101E700022FE0021E013FEF71EFE10BD10B5002269
:101E8000028802F441520B884C8823438C882343F8
:101E9000CC8823430C8923434C8923438C892343D7
:101EA000CC8923431A430280838B4FF2FF74234073
:101EB00083830B8A038210BD2DE9F04F85B0054660
:101EC0000C464FF0000902274FF000084FF0010BBD
:101ED0000026B246A88B4FF240010840A88302209A
:101EE0002884B5F81C90A068022801D100BF38E012
:101EF000A08810B94FF0010B01E04FF0020B8D48A4
:101F0000854200D100E000BF6846FEF740FDDDF8E5
:101F100000A0E088B0F5007F0AD14FEA1A2000EB5C
:101F200080004000A168B0FBF1F0401D86B20BE0DC
:101F30004FEA4B10BAFBF0F000EB80004000A168C4
:101F4000B0FBF1F0401D86B20A20B6FBF0F606F0B9
:101F50000108A6EB0800C0F34F074FF6FF7000EA38
:101F60000828022F01DBFF2F02DD02274FF00008B7
:101F7000E08840EA080038432884A088A189084303
:101F8000618808432188084340F4006040EA090959
:101F9000A5F81C9005B0BDE8F08F002101804180BC
:101FA0008180C180018141818181C18107210182BC
:101FB00070470021018041808180C18002218160C1
:101FC00000218181704721B1028842F040020280E5
:101FD00004E002884FF6BF731A400280704721B1B7
:101FE000828B42F48062828304E0828B4FF6FF335F
:101FF0001A408283704730B5002400230C1101255C
:10200000A540ABB21AB185881D43858002E0858862
:102010009D43858030BD1AB183880B43838002E0E5
:1020200083888B438380704781817047014688890C
:1020300070474FF6FF62914204D0028842F48072EA
:10204000028004E002884FF6FF631A400280704766
:1020500021B1828842F00402828004E082884FF637
:10206000FB731A408280704702884FF2FF731A4058
:10207000028002880A4302807047018841F480513F
:102080000180704721B1028842F40052028004E0CE
:1020900002884DF6FF731A40028070470246002006
:1020A000012901D0108B00E0908A70470146088A10
:1020B0007047B1F5804F04D1028842F4804202801B
:1020C00004E002884BF6FF731A4002807047024614
:1020D000002013890B400BB1012000E00020704765
:1020E000CA4302817047F0B5024600200024002355
:1020F000002501F00F070126BE40B4B20B110126E6
:102100009E40B3B2968806EA03051689264016B1AA
:102110000DB1012000E00020F0BD10B5002201F05B
:102120000F040123A3409AB2D343038110BD0000E2
:102130000030014000380040003C004010B504462B
:10214000FA48844208D101214015FEF7A7FC00217E
:102150006015FEF7A3FC17E0F548844208D1012181
:102160000015FEF79BFC00212015FEF797FC0BE005
:10217000F048844208D10121C803FEF78FFC0021FA
:102180004FF40040FEF78AFC10BD30B50246002037
:1021900000235068E84C20400D790C6844EA05247F
:1021A000204350609068E54C2040D1E902542C4314
:1021B0004D7944EA450420439060D06A20F47000D1
:1021C0000C7C641EE4B2234340EA0350D06230BD6D
:1021D00000210160017141718160C16001210174C0
:1021E000704721B1826842F00102826003E0826898
:1021F00022F001028260704721B1826842F480724D
:10220000826003E0826822F480728260704710B5B9
:102210000023CBB21AB144681C43446002E0446816
:102220009C43446010BD816841F0080181607047A3
:10223000014600208A6802F008020AB1012000E08D
:1022400000207047816841F00401816070470146B9
:1022500000208A6802F004020AB1012000E0002098
:10226000704721B1826842F4A002826003E0826874
:1022700022F4A00282607047014600208A6802F4BE
:1022800080020AB1012000E00020704710B50A4624
:1022900000210023416821F46041531E41EA43318B
:1022A000416010BD21B1426842F40062426003E027
:1022B000426822F4006242607047F0B504460D4661
:1022C00000200021092D11DDE068A5F10A0606EBCA
:1022D0004607072606FA07F18843A5F10A0606EB2A
:1022E000460603FA06F10843E0600CE0206905EBBE
:1022F0004507072606FA07F1884305EB450603FA6A
:1023000006F108432061072A0FDA606B561E06EBC0
:1023100086071F2606FA07F18843561E06EB860637
:1023200005FA06F10843606322E00D2A0FDA206BFC
:10233000D61F06EB86071F2606FA07F18843D61F2D
:1023400006EB860605FA06F10843206310E0E06A12
:10235000A2F10D0606EB86071F2606FA07F1884351
:10236000A2F10D0606EB860605FA06F10843E062C7
:10237000F0BD21B1826842F48012826003E082687D
:1023800022F48012826070470146C86C80B27047A8
:1023900066484C300068704721B1426842F4806260
:1023A000426003E0426822F480624260704721B1DB
:1023B000426842F48052426003E0426822F4805254
:1023C000426070470A460021816821F4E0411143D0
:1023D0008160704721B1826842F40042826003E06C
:1023E000826822F400428260704721B1826842F420
:1023F0000212826003E0826822F402128260704757
:10240000014600208A6802F400120AB1012000E0AF
:1024100000207047F0B50446154600200022002633
:10242000092911DDE068A1F10A0707EB470C07272E
:1024300007FA0CF29043A1F10A0707EB470703FAEA
:1024400007F21043E0600CE0206901EB410C072724
:1024500007FA0CF2904301EB410703FA07F210432D
:102460002061A06BC0F30156EF1C06F1010CA7EB35
:102470000C0707EB870C1F2707FA0CF29043EF1CA1
:1024800006F1010CA7EB0C0707EB870701FA07F22F
:102490001043A063F0BD10B50A4600210023816BF4
:1024A00021F44011531E41EA0351816310BD08B568
:1024B000002300930090009B0B440093009B1A6044
:1024C00008BD08B5024600200090009201F12800E6
:1024D000009B184400900098006880B208BD0A462E
:1024E00000214168164B1940114341607047416219
:1024F000826270470A460021416821F01F011143A2
:102500004160704740B109490831096841F4000150
:10251000064A0832116007E004490831096821F4CD
:102520000001024A08321160704700000024014097
:1025300000280140003C0140FFFEF0FFFDF7F1FFE5
:10254000FFFD3FFF0246002013680B400BB1012046
:1025500000E000207047CA430260704770B5024631
:102560000020002300240B125568CEB205EA0604B1
:1025700015681D4015B10CB1012000E0002070BDB0
:1025800000220A12D34303607047000001684FF62F
:10259000FE72114001600021016041608160C160F4
:1025A0008D49884208D18C490839496841F00F01AA
:1025B000894A083A51608AE087491431884208D133
:1025C00085490839496841F0F001834A083A516069
:1025D0007DE081492831884208D17F49083949681E
:1025E00041F470617C4A083A516070E07A493C31AC
:1025F000884208D178490839496841F47041764ADF
:10260000083A516063E074495031884208D17249F8
:102610000839496841F470216F4A083A516056E020
:102620006D496431884208D16B490839496841F4E1
:102630007001694A083A516049E067497831884237
:1026400008D165490839496841F07061624A083A21
:1026500051603CE06149884206D1011F096841F0A0
:102660000F01021F116032E05C491431884208D129
:102670005A49091F096841F0F001584A121F1160B8
:1026800025E056492831884208D15449091F096874
:1026900041F47061514A121F116018E04F493C31FA
:1026A000884208D14D49091F096841F470414B4ADD
:1026B000121F11600BE049495031884207D1474948
:1026C000091F096841F47021444A121F11607047C4
:1026D00010B50022026847F6F0739A430C6A8B68C3
:1026E00023430C6923434C6923438C692343CC69FE
:1026F00023434C6A23438C6A23431A430260CB680A
:1027000043600B6883604B68C36010BD00210160AB
:1027100041608160C160016141618161C1610162AB
:1027200041628162704721B1026842F00102026099
:1027300004E002684FF6FE731A40026070471AB157
:1027400003680B43036002E003688B430360704738
:10275000416070470146486880B2704701460020DA
:10276000002201F080531BB11C4B083B1A6802E0A9
:10277000194B083B1A6802EA01030BB1012000E083
:102780000020704700F0805119B11449091F0860FA
:1027900002E01149083948607047014600200022D4
:1027A00001F080531BB10D4B083B1A6802E00A4B45
:1027B000083B1A6802EA01030BB1012000E0002087
:1027C000704700F0805119B10449091F086002E008
:1027D0000149083948607047080002400804024077
:1027E0000E49086070470D49486070470B49886082
:1027F00070474AF6AA200949086070474CF6CC4059
:1028000006490860704701460020044AD2680A4021
:102810000AB1012000E000207047000000300040B5
:102820000948804709480047FEE7FEE7FEE7FEE764
:10283000FEE7FEE7FEE7FEE7FEE7FEE704480549A0
:10284000054A064B704700002F03000831010008BD
:10285000A01B0020A0210020A01D0020A01D002002
:1028600010B5012002F0B7FE40F2FF7003F075F8DA
:10287000C022FE49FE4803F04DF8002002F0ABFEF6
:1028800010BD10B5FB480078012808D001F0A6FE65
:10289000F9490968401AF9490968884208D90020AD
:1028A000F449087001F09AFEF3490860FFF7D8FF79
:1028B00010BD70B504460D46B4F57A7F02DB40F2D8
:1028C000E73403E014F57A7F00DCED4CB5F57A7F50
:1028D00002DB40F2E73503E015F57A7F00DCE84DD6
:1028E00040F2DC50431B04F2DC52E6A1EE4804F057
:1028F000B9FDED4802F014FE70BD10B5EB4840780C
:10290000732800D010BDE949097AC1F17F0001F0B8
:1029100027FC052802DA7F20E4490872E349897917
:10292000C1F17F0001F01CFC052802DA7F20DF499D
:102930008871DE48007AC0F17F00C000DC49086081
:10294000DA488079C0F17F00C000DA490860D848D1
:102950000068D9490968884205D1D6480068D74936
:10296000096888420DD0D3480168D1480068FFF754
:10297000A0FFCF480068D0490860CE480068CF4922
:10298000086000BFBEE72DE9F04F8DB00546002678
:10299000284602F0C5FD287823286ED128795028D2
:1029A000FBD168795328F8D1A8794328F5D1E87983
:1029B0004B28F2D1287B2128EFD168783038642168
:1029C0004843A978303901EB810100EB4101E878F7
:1029D0003038084484B2687A303864214843A97A90
:1029E000303901EB810100EB4101E87A30380F18F2
:1029F00017F5FA7F61DBB7F5FA7F5EDC082C5CDA4D
:102A0000287A2B2803D0287A2D2800D17F423846F7
:102A100007F007FBCDE9080195498C3151F82400F6
:102A200007F0FFFACDE90401A54901EB041188681C
:102A300007F06EFEA34AA44BCDE9000107F080F831
:102A4000CDE90201DDE9042307F078FDCDE90601B7
:102A5000DDE9082307F074F8CDE90A0107F03EF834
:102A6000824683488C3040F824709849504608F0DC
:102A70002BF903D2DFF854A207E021E09449504635
:102A800008F022F801D2DFF848A2504607F0D0FF44
:102A90008B4901EB04114880894800EB0410C0F811
:102AA00008A00020864901EB0411C86001F096FDE2
:102AB0007149086001206F4908700DB0BDE8F08FC2
:102AC0002878232846D12879502843D1687944288A
:102AD00040D1A87953283DD1E87954283AD1287AB1
:102AE000212837D16878303864214843A9783039B3
:102AF00001EB810100EB4101E8783038084484B2F1
:102B0000082C0FDA00206E4901EB0411C8606C49F3
:102B100001EB0411886807F08BFF694901EB041190
:102B2000488016E0FF2C14D1002410E000206449F6
:102B300001EB0411C860624901EB0411886807F0D9
:102B400077FF5F4901EB04114880601C84B2082CB8
:102B5000ECDBB2E74FE1A85D232813D10024701C01
:102B600086B208E0A85D04EB840100EB4100303838
:102B700084B2701C86B2A85D0028EBD0A85D5028F6
:102B8000E8D0EFE7A85D50281ED14FF00009701C77
:102B900086B212E0A85D07F083FF4E490B904846CD
:102BA00007F0C6FF0A900B9907F0DEFD83464A49FD
:102BB00008F0BCF88146701C86B2A85D0028C9D018
:102BC000A85D5428C6D0E5E7A85D54284CD14FF045
:102BD0000008701C86B209E0A85D08EB880100EBD4
:102BE000410030381FFA80F8701C86B2A85D10B121
:102BF000A85D2128F0D1082C37DA3849484607F07B
:102C000063FF32D83249484608F05EF82DD842F2C8
:102C10001070804529DC16498C3151F8240007F0EA
:102C200027FF8346494607F09FFD814627494846CE
:102C300008F04AF801D2DFF894902549484607F099
:102C400043FF01D2DFF88890B8F1140F4EDA4846FE
:102C500007F0EEFE1A4901EB04114880184800EB1A
:102C60000410C0F808903BE0C3E078E000F87F0073
:102C7000580A00204000002044000020F8000020F6
:102C800019FCFFFF7B23303036502530346454303C
:102C900030303021233030375025303464543030D8
:102CA0003030217D00000000580200207401002017
:102CB000E8000020EC000020F0000020F4000020DC
:102CC000D8010020D655815A0C1EA63F00101C4585
:102CD0000000FA43000020410000404200401C4533
:102CE0000020FE4901EB0411C86038E0484607F0B7
:102CF0009FFEFA4901EB04114880F84800EB0410EC
:102D0000A0F80480F54901EB0411888807F0A0F9C8
:102D10000022F34BCDE9040106F0CEFFCDE9080116
:102D2000EE4901EB0411488807F0BAFE0590EB4824
:102D300000EB04108168059807F0F8FF834607F060
:102D4000E7FCCDE90601DDE9082306F0B5FFCDE992
:102D50000A0106F0C3FEE14901EB0411C860FF2C33
:102D600049D1002442E0DF4951F8241001F2DC503F
:102D700007F07EFE8146484607F05AFED74901EB30
:102D800004114880D54800EB0410A0F80480D34912
:102D900001EB0411888807F05BF90022D04BCDE9E4
:102DA000040106F089FFCDE90801CC4901EB0411CB
:102DB000488807F075FE0590C84800EB041081684C
:102DC000059807F0B3FF834607F0A2FCCDE90601A2
:102DD000DDE9082306F070FFCDE90A0106F07EFE6A
:102DE000BE4901EB0411C860601C84B2082C02DAF1
:102DF000B9E7701C86B2A85D00287FF4ACAE00BFB6
:102E00005BE62DE9FF47044689469246B34901EB4C
:102E10000411A1F80290B14901EB0411A1F804A03A
:102E2000AE4901EB0411888807F012F90746002229
:102E3000AB4B06F041FF05460E46A84901EB0411D5
:102E4000488807F02DFE8046A44800EB04108168F6
:102E5000404607F06BFF074607F05AFC2A46334608
:102E6000CDE9000106F028FFCDE9020106F036FEAB
:102E70009A4901EB0411C8609B4951F8240007F0FE
:102E800047FC4B462246CDF800A0CDE9020197A1B0
:102E90009D4804F0E7FA9C4802F01AFBBDE8FF8762
:102EA0002DE9FC5F81460E4692461F464FF0000812
:102EB000C3460021304607F007FE02D20020BDE8DD
:102EC000FC9F4FF0000B002413E0204607F0D0FDDC
:102ED0000190854810380090524631464846019B83
:102EE00003F0B9FF20B9444500DAA0464FF0010BCA
:102EF000641E14F1870FE8DABBF1000F1BD04046C7
:102F000007F0B6FD019078481038009052463146DF
:102F10004846019B03F09FFF002508E072483030CF
:102F200050F825103A462846FFF76BFF6D1C042D1C
:102F3000F4DB0120C3E70020C1E770B502460021A1
:102F40000020002323E0545C542C1ED14C1C145D43
:102F5000303C4FF47A756C438D1C555D303D05EB6C
:102F6000C50606EB051504EB8505CC1C145D303C4D
:102F700004EB840405EB44050C1D145D303C2B1957
:102F8000834200DD1846091D01E0491C00BF545C66
:102F9000002CD8D170BD10B50446012002F01BFBF7
:102FA0004FF48061594804F0BDFCE1017F2257488D
:102FB00002F04AFC5548FFF7C0FF554908605348E6
:102FC000FFF7E1FC224653A14F4804F04BFA4E486C
:102FD00002F07EFA002002F0FEFA10BD02680B68D3
:102FE00003600A60704713B5012002F0F4FADDE9CE
:102FF0000001884203DD01A96846FFF7EFFF19E0F1
:103000004FF48061414804F08DFC0098C10180229A
:103010003E4802F019FC3D4802F05AFA42A002F084
:1030200057FA3A4802F08BFA3FA002F088FA00986B
:10303000401C0090DDE900018842E1DD002002F043
:10304000CAFA1CBD012080F3138800BF00BF3748B7
:10305000006800F4E06036490843001D3349086009
:10306000BFF34F8F00BF00BFFEE72DE9F14F88B0DF
:1030700030A1089801F02FF88346BBF1000F03D070
:103080002EA002F025FA13E230A1089801F023F8EF
:103090008346BBF1000F69D001202E4908704FF024
:1030A000000A10E000200D4901EB0A11C8600B492D
:1030B00001EB0A11886807F0BBFC084901EB0A1113
:1030C00048800AF1010ABAF1080FEBDB22A002F0F6
:1030D00027FA00210846FFF7ECFB43E0D801002067
:1030E00000003440E40A0020900100202325303302
:1030F00064502530346454253034642128252E3121
:1031000066290D0A00000000580200205806002021
:103110004800002040446F47726F7570202564207E
:103120004F4B210D0A0000000D0A00000CED00E0DD
:103130000000FA05244452532100000073746D33DB
:1031400032663130336338743600000024445354FF
:10315000210000000501002023323535504453542E
:1031600021000000FF20FE490870A1E1FDA10898A0
:1031700000F0B1FF8346BBF1000F26D006AAFBA1E9
:10318000089804F083FA0028EFD00020FA49069A44
:1031900001EB0211C860F849069A01EB0211886838
:1031A00007F046FCF449069A01EB02114880F3A1AE
:1031B000F648069A04F056F9F44802F0B1F94FF4D3
:1031C0008061F24804F0AEFB72E1F1A1089800F0D2
:1031D00082FF8346BBF1000F01D0FFF733FFEEA162
:1031E000089800F078FF8346BBF1000F0CD004ABC9
:1031F00005AAEBA1089804F049FA0028B5D0DDE94A
:103200000410FFF7F0FE53E1E8A1089800F063FF17
:103210008346BBF1000F0DD005AAE6A1089804F083
:1032200035FA0028A1D00120E54908700598FFF77C
:10323000B2FE3DE1E3A1089800F04DFF8346BBF1EB
:10324000000F23D0E148E24BE24AE3A10090089846
:1032500004F01CFA002888D00120D9490870DD4804
:103260000068DB49096888420BD0DA480068DE490B
:103270000860D6480068DD4908600020D049087021
:1032800016E1D4480068FFF786FE11E1D8A108983E
:1032900000F021FF8346BBF1000F0CD004AB05AA60
:1032A000D5A1089804F0F2F900288DD0DDE90410CA
:1032B000FFF7FFFAFCE0D3A1089800F00CFF83466B
:1032C000BBF1000F44D0D1A002F02AF94FF0000A60
:1032D0003AE0D34830F82A0000F2DC50A64901EB6E
:1032E0000A1148804FF4FA60A34901EB0A11888063
:1032F000A14901EB0A11888806F0AAFE06460022C1
:10330000C84B06F0D9FCCDE900019B4901EB0A113D
:10331000488807F0C5FB0746974800EB0A1081680C
:10332000384607F003FD064607F0F2F98046DDE96E
:10333000002306F0C1FC044606F0D0FB8E4901EBE9
:103340000A11C8600AF1010ABAF1080FC1DBAFE047
:10335000B5A1089800F0BFFE8346BBF1000F04D072
:1033600000210846FFF7A5FAA2E0B2A1089800F0F4
:10337000B2FE8346BBF1000F03D0B0A002F0A8F864
:1033800096E0AFA1089800F0A6FE8346BBF1000FBF
:1033900011D005AAACA1AF4804F078F9002889D073
:1033A0006F4905980870ACA002F092F864210120E2
:1033B00000F0E3FF7CE0AAA1089800F08CFE8346B1
:1033C000BBF1000F1DD0FF20654908700A2000F0F6
:1033D0005EFEAFF27C20FFF7D6FA0A2000F057FE1F
:1033E000A3A002F075F80A2000F051FE9AA002F0A6
:1033F0006FF80A2000F04BFE6421012000F0BDFFB1
:1034000056E0A3A1089800F066FE8346BBF1000FCA
:103410004ED002A803A904AB05AACDE900109EA1D5
:10342000089804F033F9002842D0A0A002F050F828
:10343000039807F01DFB0446049807F019FB0546A6
:10344000059807F015FB064622462946029BFFF722
:1034500027FD70B10121052000F0ACFE322000F004
:1034600016FE0021052000F0A5FE322000F00FFE20
:103470001EE00121052000F09DFE322000F007FE35
:103480000021052000F096FE322000F000FE012110
:10349000052000F08FFE322000F0F9FD002105200C
:1034A00000F088FE322000F0F2FD86A002F010F855
:1034B00009B0BDE8F08F2DE9F04107460E46002522
:1034C0007878397800EB01208449088084480088A6
:1034D000098888423FD081480088824908807F4817
:1034E00000887F49098808407C4908800024B6E1AB
:1034F0000120A04079490988084000282CD10120EA
:10350000A040774909880840002826D04FF4806100
:10351000504804F007FA732E0DD1734951F8240076
:1035200004F09CF98046704850F8241042464948FF
:1035300004F0B3F9DDE0412E10D16C4951F82400BC
:1035400004F08CF98046694850F8241042464148FE
:1035500004F0A3F9CDE094E17EE120E1C8E00000B1
:1035600004010020244453543A00000024445354DE
:103570003A25642100000000D801002023253033C3
:103580006450445354210D0A0000000058020020EA
:103590002452535421000000245054473A000000A4
:1035A000245054473A25642D256421002444475370
:1035B0003A000000244447533A25642100000000EB
:1035C00005010020244447543A0000003C0000203C
:1035D0003800002034000020244447543A25642D4C
:1035E00025642C25642100002C00002030000020E0
:1035F000244443523A000000244443523A25642CA8
:103600002564210024444A5221000000233235352C
:1036100050313530305432303030210D0A00000046
:10362000E40A002000003440244341525F53544FC9
:1036300050210000244745544121000041414100F0
:1036400024534D4F4445000024534D4F44452564B9
:103650002100000058060020404F4B2100000000D0
:1036600024534D4152545F53544F502100000000E9
:103670002330303650313530305430303030212323
:103680003030375031353030543030303021000058
:10369000244B4D533A000000244B4D533A25642CE3
:1036A00025642C25642C25642100000054727920A7
:1036B000746F2066696E64206265737420706F7326
:1036C0003A0D0A0043616E27742066696E642062B9
:1036D00065737420706F732121210000FE000020AB
:1036E000FC000020000100204C0000208C00002085
:1036F000B3E0FEA1FE4800F0EEFCC5B21DB1002112
:10370000681EFB4A1154FBA1F94800F0E4FCF0B13B
:10371000002240F22551F848FDF753FB0020F749FD
:103720000870F3490B31F64804F074F8F449F04896
:1037300004F070F80120F1490870012240F225518F
:10374000ED48FDF73EFB0120EE49087022E0EEA1B6
:10375000E74800F0C0FCE8B1002240F22551E648FD
:10376000FDF72FFB0020E5490870E1490B31E448E3
:1037700004F050F8E249DE4804F04CF80120DF493B
:103780000870012240F22551DB48FDF71AFB0220A8
:10379000DC4908704FF6FF70DC4908805CE04FF4AC
:1037A0008061D34804F0BEF8732E0DD1D84951F88A
:1037B000240004F053F88046D54850F824104246BF
:1037C000CB4804F06AF810E0412E0DD1D14951F8F0
:1037D000240004F043F88046CE4850F824104246B6
:1037E000C34804F05AF800E037E0C0A1C04800F038
:1037F00072FCC5B285B3BE494819BEA100F06BFC8E
:1038000090B1BB484119BE4804F004F8BC4804F02C
:1038100025F8401EBA4900220A54B54803F0FAFFC1
:10382000B348FFF722FC17E0B1494819B6A100F0F0
:1038300052FC88B1AE484119B14803F0EBFFB048E3
:1038400004F00CF8401EAE4900220A54A84803F0C8
:10385000E1FFA748FFF797F800BF601CC4B2102C27
:10386000FFF646AEAC480088A84908800121052033
:1038700000F0A0FC0A2000F00AFC0021052000F066
:1038800099FCBDE8F08110B5A4480078A449C97836
:10389000884205D1A1484078A149097988420BD0D6
:1038A0009F484178C01CFFF706FE9D48C0789B49A1
:1038B00008709B480079487010BD10B500F08EFE6E
:1038C00098490968401A322800D210BD00F086FEDF
:1038D00094490860924800F0E6FD00BFF5E710B596
:1038E0009148007800285CD100F078FE00218F4AD2
:1038F000D2E90032C31A61EB02018D480068002250
:10390000C01A8A4150DA00F069FE0021874A03C2DA
:103910008848006848B18848006830B90120824969
:10392000087086A001F0D4FD10BD87480068FFF73D
:1039300032FB8648006886490968884218DA82485E
:1039400000688349096888420CD1804800687E4934
:1039500008607848006820B177480068401E7649C2
:103960000860E1E778480068401C774908601BE080
:10397000754800687649096888420CD17348006828
:10398000714908606B48006820B16B480068401EB0
:1039900069490860C8E76C480068401E6A490860C9
:1039A00002E00A206249086000BFBDE704E0037836
:1039B0008B4200D10270401C0378002BF7D1704776
:1039C0000146002215E00878472811D1491C07E07C
:1039D000087802EB820300EB4300303882B2491CC6
:1039E0000878232802D008782428F1D1104670479F
:1039F000491C08780028E6D1401EF8E7F8B50446CF
:103A00000025012001F0E7FD607824280CD1A07882
:103A1000212809D100214F4880F88810FEF720FFA7
:103A20004DA001F055FDF8BD6078242833D1414800
:103A3000474B464A4DA10090204603F027FE48B36D
:103A40004248006842490968884208D13F480068F6
:103A5000C10180223F48083001F0F6FE11E08121CB
:103A60003C48083003F080FF611C3A48083003F0FE
:103A7000D1FE204603F0F2FE801E364908310022B6
:103A80000A542521334880F88810FEF7E9FE3CA04F
:103A900001F01EFDC7E72046FFF792FF0546681CB0
:103AA00010B1A079232803D03AA001F011FDBAE7A4
:103AB0007B223C212046FFF779FF7D223E212046D4
:103AC000FFF774FFE801C11700EB11510913A0EBD8
:103AD000013131B9EE01F11706EB1151081301F074
:103AE0003CFF204603F0BAFE401C55E05E0000009B
:103AF0005806002024000000003801400201002088
:103B0000580200200301002023000000FC000020D8
:103B10004C0000208C00002000010020E400002068
:103B200074010020E000002005010020D8000020E2
:103B3000480000203C000020300000204047726F09
:103B40007570446F6E6521002C0000203400002049
:103B500038000020580A002040434C454152205074
:103B600052455F434D44204F4B2100003C244447C5
:103B7000543A25642D25642C2564213E0000000064
:103B800040534554205052455F434D44204F4B21F4
:103B9000000000004500000086B2E90132462046E0
:103BA00001F0B8FEF8A001F093FCF7A001F0C7FC0B
:103BB000002001F010FD00BF35E710B5F348007894
:103BC00048B3F3480078012803D1F248FFF74DFAD3
:103BD00016E0EF480078022803D1EE48FEF7D3FE46
:103BE0000EE0EB480078032803D1EA48FEF7CBFE4D
:103BF00006E0E7480078042802D1E648FFF7FEFE19
:103C00000020E3490870E1490870012240F2255183
:103C1000E148FDF7D6F810BD10B500F0DFFCDF4934
:103C20000968401AB0F57A7F14D900F0D7FCDB4957
:103C30000860DB48007820B100210D2000F0BAFABE
:103C400003E001210D2000F0B5FAD5480078C0430B
:103C5000D349087010BD62B6704710B50121052028
:103C600000F0A8FA00210D2000F0A4FA642000F072
:103C70000EFA0021052000F09DFA01210D2000F030
:103C800099FA642000F003FA0121052000F092FA6D
:103C900000210D2000F08EFA642000F0F8F90021D8
:103CA000052000F087FA01210D2000F083FA64203E
:103CB00000F0EDF90121052000F07CFA00210D2033
:103CC00000F078FA642000F0E2F90021052000F00D
:103CD00071FA01210D2000F06DFA642000F0D7F98F
:103CE00010BD10B5472144F6206000F0AEFC10BDB9
:103CF00010B50020AB49086026E0AB48A949096827
:103D000030F8210000F2DC50A849A64A126801EB05
:103D100002114880A549A34A126801EB02114888A4
:103D200006F0BEFEA1499F4A126801EB02118860AD
:103D300000209E499B4A126801EB0211C860994815
:103D40000068401C97490860964800680828D4DB42
:103D500095488C3890F88800252833D192498439C9
:103D60008C4803F057FD90488C38007A242804D101
:103D70008D488438FFF779F924E0102089490860DC
:103D800016E030218348874A1268815402468548EC
:103D90000068401C115483480068801C11548148FD
:103DA0000068C01C11547F4800680F307D490860CE
:103DB000784803F053FD7B4909688842E1D875488B
:103DC000FEF7E1FD10BD10B54FF4E13001F024F82D
:103DD000012240F225517648FCF7F3FF75A001F06F
:103DE000AEFB78A001F09CFB10BD10B54FF4E130A4
:103DF00001F0B3F8012240F225516748FCF7E1FFDA
:103E000074A001F065FB10BD10B500F0CEFB10BD35
:103E100010B500F0F6FA10BD10B5012001F0DBFB83
:103E200001F01DFCC0226F495F488C3801F00CFD89
:103E30005D488C3800686C49884205D008465A496C
:103E40008C3908600020486057488C38D0F8AC00A6
:103E5000252817D00020534908600AE00021524865
:103E6000504A126840F822104E480068401C4D49E4
:103E700008604C4800680828F0DB25214A488C3847
:103E8000C0F8AC1000204749086028E04648454982
:103E9000096830F8210000F2DC5081B24348414A01
:103EA000126800EB021041803F493E4A126851F807
:103EB000221001F2DC5006F0DBFD3C49394A126861
:103EC00001EB0211886000203849364A126801EB84
:103ED0000211C86033480068401C3249086031480C
:103EE00000680828D2DB002001F075FB10BD10B57A
:103EF00000F0DBF910BD10B500F081F900210520BC
:103F000000F058F910BD10B500F040F901210D2066
:103F100000F050F910BD10B500F02EF910BD10B52D
:103F200000F0C2F810BD10B500F0F2FA10BD08B5EF
:103F3000FFF7F9FFFFF7F3FFFFF7EDFFFFF7E3FFF1
:103F4000FFF7D9FFFFF7D3FFFFF766FFFFF760FF2B
:103F5000FFF75AFFFFF749FFFFF735FFFFF7C8FEEE
:103F6000FFF7BFFEFFF779FEFFF775FE01F09DFE3C
:103F70001E481F4B1F4A20490090204802F04EFF68
:103F800000F0F6FA4AE000004100000002010020C3
:103F9000030100205806002000380140D000002016
:103FA000D400002028000020E40A0020D8010020CE
:103FB00000480040756172743320636865636B204C
:103FC0006F6B21002332353550313530305432306B
:103FD00030302100756172743120636865636B2035
:103FE0006F6B210000F87F00383E34018001002013
:103FF000000016430000C4420000D2420000B44258
:10400000FFF70AFEFFF7D9FDFFF769FCFFF755FC44
:10401000FFF739FCFEF771FCFEF733FCF0E710B553
:1040200002F093FB10BD10B54FF4E13000F044FFF7
:10403000012240F225510348FCF7C3FE02A001F023
:104040005BFA10BD004400407561727432206368F1
:1040500065636B206F6B2100704700BF011EA0F1EC
:10406000010290B2FAD1704700BF011EA0F1010217
:1040700090B2FAD1704700B5034602E00620FFF780
:10408000ECFF181EA3F101018BB2F7D100BD10B5F2
:10409000044603E04FF47A70FFF7EDFF201EA4F111
:1040A00001018CB2F6D110BD002011E040F2DC51CC
:1040B0002F4A02EB001251802E492D4A02EB0012CA
:1040C000916000212A4A02EB0012D160411CC8B263
:1040D0000828EBDB704770B504460B4621461A46AC
:1040E00019E008781578A84214D10AE011F8015BAC
:1040F00012F8016BB54204D0D01A081A411C1A46B6
:1041000002E010780028F1D100BF107818B9081B20
:1041100080B270BD491C08780028E2D100BFF8E7E2
:10412000F0B50C46002117E00A464B1C07E050F89A
:10413000226050F82370BE4200DD1A465B1CA34289
:10414000F5DB8A4207D050F8225050F8216040F841
:10415000226040F82150491C661E8E42E4DCF0BD0E
:104160000146002901DD084670474842FCE700008F
:10417000D80100200080BB4410B501210D20FCF7C0
:1041800073FC01218848FCF784FA10BD08B50121B1
:104190000820FCF769FC4FF40050ADF80000102037
:1041A0008DF8030003208DF8020069467F48FCF774
:1041B0009FF908BD70B504460D4635B10120A040F9
:1041C00081B27A48FCF741FA05E00120A04081B2B3
:1041D0007648FCF73CFA70BD10B57548007820B100
:1041E00000210D20FFF7E6FF03E001210D20FFF77E
:1041F000E1FF6F480078C0436D49087010BD08B5F5
:1042000001210820FCF730FC2020ADF80000102030
:104210008DF8030003208DF8020069466348FCF71F
:1042200067F908BD70B504460D46002616E0012169
:104230000520FFF7BFFF00210D20FFF7BBFFA0B255
:10424000FFF725FF00210520FFF7B4FF01210D2016
:10425000FFF7B0FFA0B2FFF71AFF761CAE42E6D31D
:1042600070BD70B504460D4635B10120A04081B245
:104270005048FCF7EAF905E00120A04081B24D4822
:10428000FCF7E5F970BD70B504460D4635B1012067
:10429000A04081B24848FCF7D8F905E00120A040D1
:1042A00081B24548FCF7D3F970BD08B501210C2057
:1042B000FCF7DAFB4FF40140ADF8000003208DF865
:1042C000020010208DF8030069463A48FCF710F907
:1042D0004FF47670ADF8000003208DF80200102036
:1042E0008DF8030069463148FCF702F908BD70B546
:1042F00004460D46062C22D2DFE804F003080D1216
:10430000171C29460320FFF755FF19E0294608200E
:10431000FFF750FF14E029460920FFF74BFF0FE09D
:1043200029460620FFF746FF0AE029460720FFF747
:1043300041FF05E029460420FFF73CFF00E000BFF5
:1043400000BF70BD08B501210C20FCF78DFB4FF4B8
:104350000060ADF8000048208DF80300694613485E
:10436000FCF7C6F80220ADF8000048208DF80300E5
:1043700069461048FCF7BCF808BD70B505460C4608
:1043800000260EE001210520FFF714FFA0B2FFF781
:104390007EFE00210520FFF70DFFA0B2FFF777FE9C
:1043A000761CAE42EEDB70BD00023000000C014016
:1043B0000601002000080140001001401CB5012149
:1043C0000520FCF751FB01214F48FCF762F94FF43F
:1043D000E040ADF8040010208DF8070003208DF8B0
:1043E000060001A94948FCF783F84FF40040ADF8F6
:1043F000000028208DF8030069464448FCF778F84F
:104400001CBD10B5FFF7DAFF4FF400513F48FCF731
:104410001CF94FF480413D48FCF717F94FF48051E7
:104420003A48FCF712F910BD2DE9F04105462F4638
:104430000026002432E00120A040384028B14FF48B
:1044400080413248FCF701F904E04FF480412F48E5
:10445000FCF7FDF80120FFF70EFE4FF480512B48CA
:10446000FCF7F3F80A20FFF706FE4FF480512748C7
:10447000FCF7EDF80A20FFF7FEFD4FF480512348CA
:10448000FCF7E3F84FF400412048FCF7C4F818B1FA
:104490000120A0403043C6B2601CC4B2082CCADB65
:1044A0003046BDE8F08110B504464FF4005117487E
:1044B000FCF7CDF80120FFF7B7FF20704220FFF78F
:1044C000B3FF60702078FFF7AFFFA0702078FFF790
:1044D000ABFFE0702078FFF7A7FF20712078FFF78F
:1044E000A3FF60712078FFF79FFFA0712078FFF78E
:1044F0009BFFE0712078FFF797FF20724FF4005187
:104500000248FCF7A2F810BD00043000000801408A
:1045100010B5FCF73BF94FF48030FCF757F9FCF786
:1045200094F9044600BF002CFDD00020FCF7D3F91D
:104530004FF48060FCF7D8F90020FCF7DEF94FF467
:10454000E0114FF48030FCF7A9F90120FCF7B2F933
:1045500000BF3920FCF75DF90028FAD00220FCF7F3
:10456000ACF900BFFCF7B2F90828FBD110BD000080
:1045700010B545F25550FEF733F90620FEF733F932
:104580004FF4EA70FEF732F9FEF733F9FEF736F929
:1045900010BD10B504460021204606F095FB01D25F
:1045A000204610BD84F00040FBE700204FF0E021E2
:1045B0008861F84848610846006940F007000861D2
:1045C000704710B500204FF0E0218861F248006884
:1045D000401CF1490860FEF70CF910BDEE48006878
:1045E00070477FB504460D460121C802FCF73CFA2E
:1045F000ADF80840681E80B2ADF804000020ADF8A8
:104600000A00ADF806008DF80C0001A9E348FCF79C
:10461000D5FD0121E148FDF7F3FB01224121DF48EF
:10462000FDF743F919208DF8000000208DF80100F6
:104630008DF8020001208DF803006846FCF77DFA32
:104640000121D648FDF716F97FBD7FB505460C461A
:1046500001210846FCF715FAADF80850ADF8044002
:104660000020ADF80A00ADF8060001A94FF0804027
:10467000FCF7A4FD00214FF08040FDF7FBF901227B
:1046800011469007FDF711F91C208DF8000001205C
:104690008DF8010002208DF8020001208DF8030042
:1046A0006846FCF74AFA01218807FDF7E3F87FBD69
:1046B0007FB505460C4601210220FCF7E2F9ADF872
:1046C0000850ADF804400020ADF80A00ADF806002F
:1046D00001A9B348FCF772FD0021B148FDF7CAF902
:1046E00001221146AE48FDF7E0F81D208DF80000CC
:1046F00003208DF8010001208DF802008DF80300E1
:104700006846FCF71AFA0121A548FDF7B3F87FBD0A
:1047100030B589B005460C4601210220FCF7B1F9FD
:1047200001210820FCF7A0F90320ADF82000182093
:104730008DF8230003208DF8220008A99948FBF783
:10474000D7FEADF81850ADF814400020ADF81A00AF
:10475000ADF8160005A99248FCF730FD6020ADF8D1
:1047600004000120ADF806000020ADF80C004FF465
:10477000FA70ADF80A0001A98948FCF7EBFD0821A1
:104780008748FDF7BDF901A98548FCF72EFE0821F1
:104790008348FDF7BEF901218148FDF76BF809B0A8
:1047A00030BD30B589B005460C4601210420FCF728
:1047B00068F901210820FCF757F94FF44070ADF873
:1047C000200018208DF8230003208DF8220008A96E
:1047D0007448FBF78DFEADF81850ADF8144000207A
:1047E000ADF81A00ADF8160005A96F48FCF7E6FC15
:1047F0006020ADF804000120ADF806000020ADF8FF
:104800000C004FF4FA70ADF80A0001A96648FCF7F5
:10481000A1FD08216448FDF773F901A96248FCF77E
:10482000E4FD08216048FDF774F901215E48FDF7B9
:1048300021F809B030BD10B504460021204606F02D
:1048400043FA01D2204610BD84F00040FBE72DE979
:10485000F0470446554901EB0411C868002106F0F1
:10486000B3F84AD0514800EB0410458840F6BA101E
:10487000854201DD054604E0B5F5FA7F01DA4FF423
:10488000FA754A4A02EB0412D168484A02EB041254
:10489000D06805F069FF8046FFF7CDFF0646284641
:1048A00006F0E6F88146414800EB0410816848466E
:1048B00006F03CFA8046FFF7BEFF0746314606F099
:1048C00003F90CD8284606F0D3F8384901EB041157
:1048D00088600020354901EB0411C8600DE0334ABF
:1048E00002EB0412D168314A02EB0412906805F021
:1048F0003BFF2E4901EB04118860BDE8F08710B53D
:1049000001218807FDF77FFA002841D0012188079F
:10491000FDF78AFA26480078082802D100202449A9
:10492000087024480078A0B92049214A127801EB88
:104930000211886806F07CF84FF0804188850121DB
:104940001B480078FFF7D3FC19480078FFF77FFF7A
:1049500016E01649164A127801EB0211886806F033
:1049600067F840F6C4110C1A09078C85002110481D
:104970000078FFF7BCFC0E480078401C0C4908701A
:104980000C48007808B9012000E0002009490870AF
:1049900010BD00004019010008010020002C01405A
:1049A00000040040000C014000080040D801002035
:1049B000140100201301002010B50121FE48FDF76D
:1049C00022FA18B10121FC48FDF72EFA10BD30B5CE
:1049D00089B005460C46012140F60400FCF744F876
:1049E0004FF48070ADF8040048208DF807000320D4
:1049F0008DF8060001A9F148FBF77AFD1B208DF820
:104A0000080000208DF8090001208DF80A008DF8BB
:104A10000B0002A8FCF791F819208DF8080000207F
:104A20008DF809008DF80A0001208DF80B0002A80E
:104A3000FCF783F8ADF81050ADF80C400020ADF84D
:104A40001200ADF80E0003A9DD48FCF7B7FB00200B
:104A5000ADF818000220ADF81A000020ADF81E00D5
:104A60000120ADF81C000020ADF8200006A9D448B4
:104A7000FCF737FE0121D248FDF7C2F90221D048E8
:104A8000FDF7BEF901220221CD48FCF70EFF0121FE
:104A9000CB48FCF7EFFE09B030BD10B50121C84886
:104AA000FDF7B1F9012825D10121C548FDF7A8F985
:104AB000C4480078022805DAC2480078401CC14981
:104AC000087017E0C04800781F2813DD0020BF4998
:104AD0000870BF490870BF490870BF490870BF49D6
:104AE0000870B8490870B849087000220121B4481C
:104AF000FCF7DBFE10BD10B50221B148FDF783F9CC
:104B0000012815D10221AE48FDF77AF9B0480078A6
:104B1000002853D1AD48007858B90021A848FDF7C6
:104B20003DF90021A648FDF757F80120A749087074
:104B30006AE1A648007801281FD1A148FDF744F991
:104B4000A749088000219E48FDF728F902219C48CA
:104B5000FDF742F8A2480088B0F5FA5F09DDA048E9
:104B6000008842F21071884203DA022097490870E7
:104B70004AE100209549087046E1944800780228EF
:104B8000D6D18F48FDF720F99649088000218C483E
:104B9000FDF704F99348008840F6AC51884209DDDE
:104BA0009048008841F27C51884203DA012088490C
:104BB000087029E100208549087025E182480078C5
:104BC000202852DA7E48FDF7FFF887490880002147
:104BD0007B48FDF7E3F884480088B0F57A7F0CDA6B
:104BE00081480088B0F5166F07DD0020774908700E
:104BF000774908707449087006E17C4800684000F5
:104C00007A4908607848008840F2A461884205DD4E
:104C10007648006840F00100744908606A480078EE
:104C2000401C69490870084600782028A0D16F48C8
:104C30000068000E6E4908706C480068000C4870EF
:104C40006A480088000A887068480078C87008467A
:104C50008078C9780844FF288AD000205B49087012
:104C60005B49087058490870CEE05A480078B0B9DE
:104C70005348FDF7A9F85A49088000215048FDF72C
:104C80008DF800214E48FCF7A7FF01205949087014
:104C900000204C49087001204E49087073E04D48CF
:104CA0000078012822D14648FDF78EF84C4908804B
:104CB00000214348FDF772F802214148FCF78CFFC0
:104CC00047480088B0F5FA5F09DD4548008842F2A0
:104CD0001071884203DA02203E49087053E0002038
:104CE0003C49087001203D4908704CE03948007883
:104CF000022822D13248FDF767F83A49088000219E
:104D00002F48FDF74BF83748008840F2A4618842ED
:104D10000CDD34480088B0F5166F07DA002128480A
:104D2000FCF75AFF03202B4908702CE0002029498A
:104D3000087001202949087025E0264800780328DA
:104D400021D11F48FDF740F82549088000211C4863
:104D5000FDF724F802211A48FCF73EFF204800889E
:104D6000B0F5FA7F09DD1E48008840F28A218842AA
:104D700003DA01201849087002E001201749087081
:104D80000020144908701448007848B100201249E6
:104D900008700C490870012211460948FCF785FD8E
:104DA0000E48007840B30020084908700849087090
:104DB00008490870084920E000040040000801404C
:104DC000002C014011010020120100200C010020E4
:104DD0000D0100200E0100200F0100201001002015
:104DE0001C0100201E0100202001002018010020CD
:104DF0004A0100204E01002006E0087003490870B7
:104E0000034908700349087010BD0000100100201C
:104E1000110100201201002010B586B004460121C6
:104E20000820FBF721FE01218804FBF72AFE4FF43E
:104E30008060ADF8140018208DF8170003208DF85D
:104E4000160005A9F748FBF753FB4FF40060ADF8D7
:104E5000140004208DF8170005A9F248FBF748FB61
:104E600001940020ADF80800ADF80A00ADF80C0080
:104E7000ADF810000C20ADF80E0001A9EA48FBF7D0
:104E800008FF27208DF8000001208DF80100032085
:104E90008DF8020001208DF803006846FBF74DFEF7
:104EA000012240F22551E048FBF78BFF0121DE484B
:104EB000FBF77BFF06B010BD10B586B0044601219C
:104EC0000420FBF7D1FD01214804FBF7DAFDD748A8
:104ED000FBF79CFE0420ADF8140003208DF81600AB
:104EE00018208DF8170005A9D148FBF701FB082011
:104EF000ADF8140004208DF8170005A9CC48FBF785
:104F0000F7FA01940020ADF80800ADF80A00ADF8FA
:104F10000C00ADF810000C20ADF80E0001A9C3483C
:104F2000FBF7B7FE26208DF8000001208DF8010068
:104F300002208DF8020001208DF803006846FBF77F
:104F4000FCFD012240F22551B848FBF73AFF012150
:104F5000B648FBF72AFF06B010BD10B588B004466E
:104F6000012144F20400FBF77FFDB248FBF74EFE3F
:104F70004FF40070ADF81C0003208DF81E001820BF
:104F80008DF81F0007A9AA48FBF7B2FA4FF480601A
:104F9000ADF81C0004208DF81F0007A9A448FBF7FA
:104FA000A7FA03940020ADF81000ADF81200ADF898
:104FB0001400ADF818000C20ADF816000020ADF874
:104FC0000400ADF806004FF40070ADF808000020B2
:104FD000ADF80A0001A99748FBF7D0FE03A9954850
:104FE000FBF757FE4FF4E060FBF7A2FD25208DF89C
:104FF000000001208DF801008DF802008DF80300FB
:105000006846FBF79AFD012240F225518948FBF7DB
:10501000D8FE01218748FBF7C8FE08B010BD10B5C7
:105020004FF4E130FFF799FF012240F2255181480A
:10503000FBF7C7FE4FF4E130FFF73EFF012240F2DD
:1050400025517A48FBF7BDFE4FF4E130FFF7E4FE4F
:10505000012240F225517448FBF7B3FE62B610BD41
:1050600010B5044621467348FBF70CFF10BD70B520
:1050700005460E46002400BF0CE0295D6D48FBF795
:1050800001FF00BF80216B48FBF76AFF0028F9D0C1
:10509000601C84B2B442F0DB70BD10B504460BE076
:1050A00014F8011B6348FBF7EDFE00BF8021614847
:1050B000FBF756FF0028F9D020780028F0D110BD6A
:1050C00010B5044621465948FBF7DCFE10BD70B50B
:1050D00005460E46002400BF0CE0295D5348FBF74F
:1050E000D1FE00BF80215148FBF73AFF0028F9D0DC
:1050F000601C84B2B442F0DB70BD10B504460BE016
:1051000014F8011B4948FBF7BDFE00BF802147484A
:10511000FBF726FF0028F9D020780028F0D110BD39
:1051200010B5044621464048FBF7ACFE10BD70B5F3
:1051300005460E46002400BF0CE0295D3A48FBF707
:10514000A1FE00BF80213848FBF70AFF0028F9D0F4
:10515000601C84B2B442F0DB70BD10B504460BE0B5
:1051600014F8011B3048FBF78DFE00BF80212E484C
:10517000FBF7F6FE0028F9D020780028F0D110BD0A
:1051800010B540F225512B48FBF7EAFE012879D1F2
:1051900040F225512748FBF723FF2648FBF776FE10
:1051A000C4B22548007808B1002010BD3C2C06D1BF
:1051B0000420224908700020214908801CE01F4873
:1051C0000078C8B9242C03D101201C49087010E0D4
:1051D000232C03D10220194908700AE07B2C03D14B
:1051E00003201649087004E03C2C02D10420134926
:1051F0000870002012490880114801880088401C6E
:105200000F4A10800F4844540C48007804281BD1E2
:105210003E2C19D100200B491288885401200649E0
:1052200008703EE0000C014000480040004400408F
:105230000008014000380140020100200301002065
:105240002201002058060020C748007801280AD112
:10525000212C08D10020C549C54A12888854012054
:10526000C44908701DE0C048007802280BD1212CE9
:1052700009D10021BD48BE4A128881540120BD4990
:1052800008700EE015E0B8480078032809D17D2C9D
:1052900007D10020B549B64A128888540120B54983
:1052A0000870B3480088B0F5806F02DB0020B04979
:1052B0000880002079E710B540F22551AE48FBF791
:1052C0004FFE012878D140F22551AB48FBF788FE0C
:1052D000A948FBF7DBFDC4B23C2C06D10420A2494F
:1052E00008700020A54908801CE09F480078C8B9D4
:1052F000242C03D101209C49087010E0232C03D1F9
:105300000220994908700AE07B2C03D103209649BA
:10531000087004E03C2C02D104209349087000205E
:1053200096490880954801880088401C934A10805F
:105330008E4844548C480078042809D13E2C07D16B
:1053400000208A491288885401208A4908702BE07D
:105350008548007801280AD1212C08D100218348F2
:10536000864A128881540120824908701CE07E48D8
:10537000007802280AD1212C08D100217B487F4ADD
:105380001288815401207B4908700DE0764800782E
:10539000032809D17D2C07D100207449774A12884F
:1053A000885401207349087074480088B0F5806FF4
:1053B00002DB002071490880002010BD10B540F2CA
:1053C00025516F48FBF7CCFD01287FD140F22551D4
:1053D0006B48FBF705FE6A48FBF758FDC4B2654809
:1053E000007808B1002010BD3C2C06D104205E4995
:1053F00008700020634908801CE05B480078C8B949
:10540000242C03D101205849087010E0232C03D12B
:105410000220554908700AE07B2C03D10320524931
:10542000087004E03C2C02D104204F490870002091
:1054300054490880534801880088401C514A108014
:105440004A48445448480078042809D13E2C07D1E2
:1054500000204649128888540120464908702BE0F4
:105460004148007801280AD1212C08D100203F4969
:10547000444A1288885401203E4908701CE03A488A
:10548000007802280AD1212C08D1002137483D4A52
:10549000128881540120374908700DE032480078A5
:1054A000032809D17D2C07D100203049354A1288C4
:1054B000885401202F49087032480088B0F5806F69
:1054C00004DB00202F4900E000E0088000208AE78C
:1054D00010B504462046FFF7E0FD10BD70B5044648
:1054E0000D4629462046FFF7C2FD70BD10B50446A3
:1054F0002046FFF7B5FD10BD10B504462046FFF766
:10550000FCFD10BD70B504460D4629462046FFF748
:10551000DEFD70BD10B504462046FFF7D1FD10BD7D
:1055200010B504460120134908702046FFF715FE08
:105530002046FFF7B2FD00200E49087010BD10B5DF
:1055400004462046FFF709FE10BD70B504460D461F
:1055500029462046FFF7EBFD70BD10B504462046F6
:10556000FFF7DEFD10BD00000301002058060020FB
:1055700022010020020100200044004024010020FC
:10558000004800402601002070B50546002405E0D3
:10559000601CC4B2C82C01DD002070BD0221FE4891
:1055A000FCF795FD0028F3D02946FB48FCF73CFDAD
:1055B000002405E0601CC4B2C82C01DD0020ECE72B
:1055C0000121F548FCF783FD0028F3D0F248FCF7F1
:1055D0002DFDC0B2E1E710B50446ACB14FF4005068
:1055E000EE4908801820C870ED48FAF781FF4FF4A3
:1055F0000051EB48FBF729F80121E748FCF7E3FCF1
:10560000FF20FFF7C1FF0EE00021E348FCF7DBFCC1
:105610004FF40050E14908801020C87003208870C2
:10562000DF48FAF765FF10BD002106E00A2100BF40
:105630000A1EA1F1010399B2FAD1021EA0F10103E1
:1056400098B2F3D1704710B50020D6498881D2486E
:10565000FCF714FC0121D048FCF7B5FC10BD08B5DF
:1056600001210820FBF700FA4FF48050ADF800004C
:1056700010208DF8030003208DF802006946C84809
:10568000FAF736FF4FF48051C548FAF7DEFF4FF4C2
:105690002040ADF8000018208DF803006946C0488E
:1056A000FAF726FF4FF48040ADF8000048208DF84F
:1056B00003006946BA48FAF71BFF4FF42041B84887
:1056C000FAF7C3FF01218803FBF7DBF90020B54996
:1056D00008804FF482704880002088800220C880B3
:1056E0000120088140024881382088810020C8813B
:1056F00007200882A848FCF7C1FB0121A648FCF757
:1057000062FCFF20FFF740FFFFF79DFF08BD10B5CB
:105710003020A4498881A048FCF7B0FB01219E48B5
:10572000FCF751FC10BD10B5002400224FF480514D
:105730009B48FAF78EFF9020FFF726FF0020FFF727
:1057400023FF0020FFF720FF0020FFF71DFFFF20B1
:10575000FFF71AFF44EA0024FF20FFF715FF044378
:10576000012211038E48FAF774FF204610BD10B5D0
:10577000002400224FF480518948FAF76AFF05207F
:10578000FFF702FFFF20FFF7FFFE0446012211038F
:105790008348FAF75EFF204610BD10B5044600228C
:1057A0004FF480517E48FAF754FF0120FFF7ECFEDA
:1057B0002046FFF7E9FE012211037948FAF749FF75
:1057C00010BD10B500224FF480517548FAF741FF23
:1057D0000620FFF7D9FE012211037148FAF739FFBD
:1057E00010BD10B500224FF480516D48FAF731FF1B
:1057F0000420FFF7C9FE012211036948FAF729FFC7
:1058000010BD10B5044600224FF480516448FAF7E9
:1058100020FF0320FFF7B8FEC4F30740FFF7B4FEF4
:10582000C4F30720FFF7B0FEE0B2FFF7ADFEFF20A4
:10583000FFF7AAFE5C490870012211035848FAF7E5
:1058400008FF5948007810BD2DE9F04106460C4686
:10585000174600224FF480515148FAF7FAFE032010
:10586000FFF792FEC4F30740FFF78EFEC4F3072054
:10587000FFF78AFEE0B2FFF787FE002505E0FF2074
:10588000FFF782FE7055681C85B2BD42F7DB01222E
:1058900011034348FAF7DDFEBDE8F08110B500BF03
:1058A000FFF765FF00F001000028F9D110BD2DE9D8
:1058B000F04107460C461646E0B2C0F580784645F2
:1058C00000DD4646FFF77DFF00224FF4805134484B
:1058D000FAF7BFFE0220FFF757FEC4F30740FFF7B9
:1058E00053FEC4F30720FFF74FFEE0B2FFF74CFE74
:1058F000002504E0785DFFF747FE681C85B2B542DD
:10590000F8DB012211032648FAF7A3FEFFF7C6FFD2
:10591000BDE8F0812DE9F04107460E461446F0B28D
:10592000C0F58075AC4200DC254612E02A463146BF
:105930003846FFF7BCFFAC4200D10BE02F442E44A9
:10594000601B84B2B4F5807F02DD4FF4807500E007
:105950002546EBE700BFBDE8F08110B504462403FF
:10596000FFF72FFFFFF79AFF00224FF480510C48FA
:10597000FAF76FFE2020FFF707FEC4F30740FFF79A
:1059800003FEC4F30720FFF7FFFDE0B2FFF7FCFDC5
:1059900001221103024809E00038004028010020DC
:1059A000000C0140180B00202C010020FAF751FEDA
:1059B000FFF774FF10BD2DE9F04781460F461646EC
:1059C0004FEA1738C7F30B0ACAF58054A64200DC29
:1059D000344644E04FEA08314FF480528A48FFF7DA
:1059E00033FF002508E00AEB05008749085CFF2823
:1059F00000D003E0681C85B2A542F4DB00BFA542DD
:105A000016DA4046FFF7A9FF002507E019F8050060
:105A100005EB0A017C4A5054681C85B2A542F5DBAF
:105A20004FEA08314FF480527748FFF773FF04E0E4
:105A3000224639464846FFF76DFFA64200D10FE0E7
:105A400008F101084FF0000AA1442744301B86B238
:105A5000B6F5805F02DD4FF4805400E03446B9E7CC
:105A600000BFBDE8F0872DE9F04107460C4615461A
:105A7000C4F30B00C0F58056B54200DD35462A461A
:105A800021463846FFF746FFBDE8F0812DE9F04397
:105A900081B0ADF5805D80460F4616464FF0000997
:105AA000C7F30B00C0F58054A64200DC344644E046
:105AB0004FEA17394FEA09314FF4805201A8FFF736
:105AC000C3FE002509E0C7F30B00284401A9085CC8
:105AD000FF2800D003E0681C85B2A542F3DB00BFBD
