:100000000C9462000C948A000C948A000C948A0070
:100010000C948A000C948A000C948A000C948A0038
:100020000C948A000C948A000C948A000C940808A2
:100030000C948A000C948A000C948A000C948A0018
:100040000C949F060C948A000C946D060C94470641
:100050000C948A000C948A000C948A000C948A00F8
:100060000C94E9060C948A0000000000240027008C
:100070002A0000000000250028002B0000000000DE
:1000800023002600290004040404040404040202DA
:100090000202020203030303030301020408102007
:1000A0004080010204081020010204081020000012
:1000B0000008000201000003040700000000000027
:1000C0000000C40811241FBECFEFD8E0DEBFCDBFB3
:1000D00012E0A0E0B1E0EAE0F9E202C005900D9282
:1000E000A033B107D9F724E0A0E3B2E001C01D922C
:1000F000A13FB207E1F710E0C2E6D0E004C02197CB
:10010000FE010E94A511C136D107C9F70E943E0920
:100110000C9483140C940000982F20915D0381E0CF
:10012000213208F043C0809139038111FCCF8091C6
:100130005C0332E030933903909338039FEF909340
:1001400037031092360320933503ACE3B3E0E5E1C7
:10015000F3E090E0291331C010921403909114033E
:10016000880F892B8093140380911303813049F504
:1001700010921303809114038093BB008091BC0004
:1001800083FDF8CF85EC8093BC00809139038230E9
:10019000E1F3809137038F3FB1F0809137038032D4
:1001A000A1F080913703803391F084E010923B03FB
:1001B00010925D0310923A0308953D9131939F5F31
:1001C000C9CF85EEE0CF80E0F1CF82E0EFCF83E0D2
:1001D000EDCF08950895AF92BF92CF92DF92EF9244
:1001E000FF920F931F93CF93DF936C017B018B01E1
:1001F000040F151FEB015E01AE18BF08C017D10731
:1002000059F06991D601ED91FC910190F081E02DBA
:10021000C6010995892B79F7C501DF91CF911F910F
:100220000F91FF90EF90DF90CF90BF90AF90089527
:10023000FC01538D448D252F30E0842F90E0821BEC
:10024000930B541710F0CF96089501970895FC0171
:10025000918D828D981761F0A28DAE0FBF2FB11DC9
:100260005D968C91928D9F5F9F73928F90E0089521
:100270008FEF9FEF0895FC01918D828D981731F0DB
:10028000828DE80FF11D858D90E008958FEF9FEF2F
:100290000895FC01918D228D892F90E0805C9F4F05
:1002A000821B91098F739927089586E094E00E943C
:1002B000490121E0892B09F420E0822F089580E094
:1002C00090E0892B29F00E94550181110C940000C7
:1002D0000895FC01A48DA80FB92FB11DA35ABF4FDB
:1002E0002C91848D90E001968F739927848FA68935
:1002F000B7892C93A089B1898C91837080648C9389
:10030000938D848D981306C00288F389E02D808137
:100310008F7D80830895EF92FF920F931F93CF9369
:10032000DF93EC0181E0888F9B8D8C8D98131AC030
:10033000E889F989808185FF15C09FB7F894EE8917
:10034000FF896083E889F989808183708064808374
:100350009FBF81E090E0DF91CF911F910F91FF90BF
:10036000EF900895F62E0B8D10E00F5F1F4F0F7367
:100370001127E02E8C8D8E110CC00FB607FCFACF22
:10038000E889F989808185FFF5CFCE010E94690156
:10039000F1CFEB8DEC0FFD2FF11DE35AFF4FF082F3
:1003A0009FB7F8940B8FEA89FB8980818062CFCF59
:1003B000CF93DF93EC01888D8823B9F0AA89BB899C
:1003C000E889F9898C9185FD03C0808186FD0DC087
:1003D0000FB607FCF7CF8C9185FFF2CF808185FFA8
:1003E000EDCFCE010E946901E9CFDF91CF91089551
:1003F000833081F028F4813099F08230A9F008959B
:100400008730A9F08830C9F08430B1F48091800041
:100410008F7D03C0809180008F7780938000089546
:1004200084B58F7784BD089584B58F7DFBCF80918F
:10043000B0008F778093B00008958091B0008F7DD9
:10044000F9CFCF93DF93282F30E0F901E255FF4F2A
:100450008491F901E656FF4FD491F901EA57FF4F15
:10046000C491CC23A1F081110E94F801EC2FF0E09F
:10047000EE0FFF1FE458FF4FA591B491EC91ED23CF
:1004800081E090E009F480E0DF91CF91089580E071
:1004900090E0FACF1F93CF93DF93282F30E0F9013C
:1004A000E255FF4F8491F901E656FF4FD491F901CF
:1004B000EA57FF4FC491CC23A9F0162F81110E9457
:1004C000F801EC2FF0E0EE0FFF1FEE58FF4FA59163
:1004D000B4918FB7F894EC91111108C0D095DE2338
:1004E000DC938FBFDF91CF911F910895DE2BF8CF62
:1004F000CF93DF9390E0FC01E656FF4F24918A579B
:100500009F4FFC0184918823D1F090E0880F991FC0
:10051000FC01E859FF4FA591B491FC01EE58FF4F43
:10052000C591D491623071F49FB7F8943C91822FB9
:10053000809583238C93E8812E2B28839FBFDF91A6
:10054000CF9108958FB7F894EC912E2B2C938FBFF9
:10055000F6CF3FB7F8948091BB029091BC02A09176
:10056000BD02B091BE0226B5A89B05C02F3F19F071
:100570000196A11DB11D3FBFBA2FA92F982F882723
:10058000BC01CD01620F711D811D911D42E0660FFE
:10059000771F881F991F4A95D1F708958F929F92D0
:1005A000AF92BF92CF92DF92EF92FF924B015C012C
:1005B0000E94A9026B017C010E94A9026C197D09AD
:1005C0008E099F09683E734081059105A8F321E0DB
:1005D000821A9108A108B10888EEC80E83E0D81EDF
:1005E000E11CF11C81149104A104B10429F7FF90CE
:1005F000EF90DF90CF90BF90AF909F908F90089535
:100600002FB7F8946091B7027091B8028091B90247
:100610009091BA022FBF08958091C3029091C402B5
:10062000891B990B089585ED8093BC008091BC00D7
:1006300084FDFCCF10923903089520917302260F98
:100640003327331F21323105ECF420913903FC01AB
:1006500090E080E0243069F082E00895A091730278
:100660002191AC014D5A5D4FA40FB52FB11D2C93B4
:100670000196861798F380917302680F6093730256
:1006800080E0089581E008950895E091C40280918A
:10069000C302E81730F4F0E0EA56FD4F808190E0A5
:1006A00008958FEF9FEF08959091C4028091C30247
:1006B0002FEF3FEF981748F4E92FF0E0EA56FD4F8F
:1006C000208130E09F5F9093C402C9010895CF92CA
:1006D000DF92EF92FF920F931F93CF93DF937C01F2
:1006E000CB018A0120913A03222389F0EB016B01AF
:1006F000C40ED51ECC15DD0569F06991D701ED91C9
:10070000FC910190F081E02DC7010995F3CF642F92
:100710000E941D03C801DF91CF911F910F91FF909F
:10072000EF90DF90CF900895CF93DF931F92CDB7D6
:10073000DEB7698320913A032223F9F020915D030B
:10074000203258F021E030E0FC013383228390E036
:1007500080E00F90DF91CF91089580913B03E82FC7
:10076000F0E0E45CFC4F998190838F5F80933B03C2
:1007700080935D0381E090E0ECCF61E0CE010196D3
:100780000E941D03F7CFCF93DF93EB0191E090938D
:100790003A0380935C0310923B0310925D036DE279
:1007A00083EA94E00E949403688183EA94E00E94C3
:1007B000940381E00E948C0091E0811190E0892FE8
:1007C000DF91CF91089590E080E00895DC01EC91F5
:1007D000EC3090F511968C91119728E830E0281BA9
:1007E000310987FD3395220F331F220F331F621704
:1007F000730784F012968C9128E532E0281B3109AA
:1008000087FD3395220F331F220F331F62177307A3
:100810000CF49B0122503109220F331F4FB7F8947B
:100820008E2F90E0FC01EE0FFF1FE80FF91FE1553E
:10083000FB4F328321834FBF0895CF93DF934EE563
:1008400053E0FA0101900020E9F7AF014F55534002
:100850006EE573E086E094E00E94EB00EC0142E07C
:1008600050E063E471E086E094E00E94EB008C0FBE
:100870009D1FDF91CF9108952F923F924F925F92EB
:100880006F927F928F929F92AF92BF92CF92DF92A0
:10089000EF92FF920F931F93CF93DF9300D000D07E
:1008A00000D01F92CDB7DEB7C82E762E4F833D8382
:1008B0002C830E9400034B015C012C2D220F2B8303
:1008C000DF80612C1E82FF24F3948D2D90E09A83AB
:1008D00089831801512C412CF0923A03C0925C0399
:1008E00010923B0310925D03672D83EA94E00E940F
:1008F000940381E00E948C00F0923A0310923B0333
:1009000010925D03809139038111FCCF8D2D20E27F
:100910002D1508F480E2F0923903F09238033FEF8E
:1009200030933703109236039FEF980F909335035F
:10093000F0921403909114032B81922B9093140343
:10094000909113039130C1F5109213039091140309
:100950009093BB009091BC0093FDF8CF35EC3093A1
:10096000BC00909139039130E1F3909136039817D0
:1009700010F480913603E5E1F3E0A6E9B2E0E12C62
:10098000E8121EC01092C402E092C3028091C40219
:10099000E81629F101151105B9F483EA94E00E94E3
:1009A0005403EC81FD812E81E20FF11D27FDFA95A4
:1009B00080832F5F2E83EACF95EE9093BC00D1CF3A
:1009C00091919D93E394DCCF0E940003681979090B
:1009D0008A099B096215730584059505F0F23F812C
:1009E000630ED31A631608F477CF01151105C1F011
:1009F0000E940003681979098A099B0930E020E008
:100A0000601771078207930758F02E81822F220FFB
:100A1000990B29813A818217930714F43FEF3E83A3
:100A20008E8127960FB6F894DEBF0FBECDBFDF9143
:100A3000CF911F910F91FF90EF90DF90CF90BF90DB
:100A4000AF909F908F907F906F905F904F903F906E
:100A50002F900895DF92EF92FF920F931F93CF9301
:100A6000DF9300D0CDB7DEB7F82ED62EE42E08EEF9
:100A700013E09E012E5F3F4F41E06DE20E943C0477
:100A800021E030E001C0220FDA94EAF78A81EE20FB
:100A900099F0822B8A838983BE016F5F7F4F8F2DF0
:100AA0000E94C3030F900F90DF91CF911F910F9180
:100AB000FF90EF90DF90089520958223EBCF8F92E7
:100AC0009F92AF92BF92CF92DF92EF92FF920F93DD
:100AD0001F93CF93DF93C5E0D3E004E111E03BE83F
:100AE000E32EFF24F39410924E0210924F021092C4
:100AF0005002109251022AE030E0F80180818E30DD
:100B000008F08E508770806480937C0080917A001A
:100B1000806480937A0080917A0086FDFCCF80917A
:100B2000780060917900762F682F072E000C880BD3
:100B3000990B80904E0290904F02A0905002B0907E
:100B40005102680D791D8A1D9B1D60934E027093A2
:100B50004F028093500290935102F7013197F1F7C1
:100B60002150310951F60E94761020E030E040E239
:100B700051E40E94CE0F0E94471060934E02709382
:100B80004F028093500290935102699379930F5FC3
:100B90001F4FF3E0CF30DF0709F0A5CF84E4E82E44
:100BA00082E0F82E9AE3A92E92E0B92E2AE3C22E13
:100BB00022E0D22EC0E3D2E008EE13E025ED34E0CF
:100BC00046E062E38091D4040E943C048091D50405
:100BD0009091D604899399938091D7049091D804E9
:100BE000F601819391936F018091D9049091DA0479
:100BF000F701819391937F01AC16BD06E9F684E07D
:100C000090E0E0E3F2E0AAE3B2E030E020E0281771
:100C10003907F4F4408151812F5F3F4F6281738126
:100C20006417750724F471836083538342834D9165
:100C30005D916D917C911197641775073CF4ED01FE
:100C400022977983688311965C934E933296DFCF17
:100C50000197B9F680913E0290913F029093E6028F
:100C60008093E50280913402909135029093E202E4
:100C70008093E102DF91CF911F910F91FF90EF9050
:100C8000DF90CF90BF90AF909F908F9008951F926C
:100C90000F920FB60F9211242F933F934F935F93B0
:100CA0006F937F938F939F93AF93BF93EF93FF9334
:100CB00086E094E00E946901FF91EF91BF91AF91AE
:100CC0009F918F917F916F915F914F913F912F9164
:100CD0000F900FBE0F901F9018951F920F920FB696
:100CE0000F9211242F938F939F93EF93FF93E09193
:100CF0001604F09117048081E0911C04F0911D040A
:100D000082FD1BC0908180911F048F5F8F732091A3
:100D10002004821741F0E0911F04F0E0EA5FFB4FEE
:100D2000958F80931F04FF91EF919F918F912F9149
:100D30000F900FBE0F901F9018958081F4CF1F92D7
:100D40000F920FB60F9211242F933F938F939F937F
:100D5000AF93BF938091B7029091B802A091B9026E
:100D6000B091BA023091B60223E0230F2D3758F527
:100D70000196A11DB11D2093B6028093B7029093F6
:100D8000B802A093B902B093BA028091BB029091CD
:100D9000BC02A091BD02B091BE020196A11DB11D81
:100DA0008093BB029093BC02A093BD02B093BE029D
:100DB000BF91AF919F918F913F912F910F900FBE57
:100DC0000F901F90189526E8230F0296A11DB11DC4
:100DD000D2CF1F920F920FB60F9211242F933F93F1
:100DE0004F935F936F937F938F939F93AF93BF9333
:100DF000EF93FF938091B900887F803609F44AC051
:100E0000F0F5883209F4A7C018F5803109F49BC0C9
:100E1000B8F4882309F4F9C0883009F494C0FF912C
:100E2000EF91BF91AF919F918F917F916F915F9162
:100E30004F913F912F910F900FBE0F901F901895DB
:100E4000883109F488C0803251F78093370314C089
:100E5000803409F49DC040F48033B9F38833F9F647
:100E60008093370385ECB0C0803509F485C08835A0
:100E700009F496C0883499F60E941303D0CF8839BC
:100E800009F48CC038F5883729F050F4883611F011
:100E9000803729F683E0809339031092950257C07A
:100EA000883809F47BC0803919F0803809F0B7CF51
:100EB00080919502803208F071C0E091950281E046
:100EC0008E0F809395028091BB00F0E0EB58FD4FB0
:100ED00080833DC0803B39F0E0F4803A09F479C06A
:100EE000883A09F09CCF84E0809339031092740211
:100EF00010927302E091C102F091C20209958091B3
:100F0000730281110FC081E080937302109253022B
:100F100009C0803C09F4A6CF883C09F4A3CF883BE4
:100F200009F07DCFE091740281E08E0F809374020E
:100F3000F0E0ED5AFD4F80818093BB0090917402E8
:100F40008091730229C0809114038093BB0085ECCB
:100F50008093BC0064CF909136038091350398173D
:100F600058F5E091360381E08E0F80933603F0E070
:100F7000EB5EFC4F8081E9CFE091360381E08E0F7C
:100F8000809336038091BB00F0E0EB5EFC4F8083E2
:100F900090913603809135039817C8F285E8D8CF31
:100FA000E091360381E08E0F809336038091BB0081
:100FB000F0E0EB5EFC4F80838091380381115CCFC1
:100FC00081E08093130384EA8093BC00109239037C
:100FD00026CF85EC8093BC00109239038091950256
:100FE000803230F4E0919502F0E0EB58FD4F108232
:100FF0006091950270E0E091BF02F091C00285E738
:1010000092E00995109295020ACF1092370334CFDF
:101010001F920F920FB60F9211242F933F934F936D
:101020005F936F937F938F939F93AF93BF93CF9370
:10103000DF93EF93FF9380915202C091D304D0E0ED
:1010400087FF24C010928500109284008091520284
:101050008F5F8093520280915202082E000C990BF0
:101060008C179D0724F4809152028C30C4F180913A
:10107000840090918500049680349C4908F47AC0DD
:101080008091840090918500049676C080915202F0
:10109000082E000C990B8C179D07C4F6E0915202A4
:1010A0008E2FEE0F990BFC01EE0FFF1FE80FF91FBB
:1010B000E155FB4F808186FFC9CFE09152028E2F10
:1010C000EE0F990BFC01EE0FFF1FE80FF91FE15522
:1010D000FB4F808160E08F730E944A02B7CF20915E
:1010E000840030918500E09152028E2FEE0F990B13
:1010F000FC01EE0FFF1FE80FF91FE155FB4F818147
:101100009281820F931F9093890080938800E091D1
:1011100052028E2FEE0F990BFC01EE0FFF1FE80F0E
:10112000F91FE155FB4F808186FF11C0E09152020B
:101130008E2FEE0F990BFC01EE0FFF1FE80FF91F2A
:10114000E155FB4F808161E08F730E944A02FF915D
:10115000EF91DF91CF91BF91AF919F918F917F914F
:101160006F915F914F913F912F910F900FBE0F9014
:101170001F90189580E49CE99093890080938800E3
:101180008FEF80935202E3CF10920904109208046B
:1011900088EE93E0A0E0B0E080930A0490930B0403
:1011A000A0930C04B0930D0423E231E030930704C4
:1011B0002093060425EC30E03093130420931204AE
:1011C00024EC30E0309315042093140420EC30E03C
:1011D000309317042093160421EC30E03093190467
:1011E0002093180422EC30E030931B0420931A045F
:1011F00026EC30E030931D0420931C0410921F0451
:101200001092200410922104109222041092A6043D
:101210001092A5048093A7049093A804A093A90416
:10122000B093AA0485E391E09093A4048093A3046F
:10123000EFEDF4E021EF34E04FEF68EB7BE08091DD
:10124000D3048C30C8F491E0980F9093D30480833A
:1012500090E0DC01AA0FBB1FA80FB91FA155BB4F1F
:1012600012967C936E93119733962E173F0739F79A
:1012700083E58093D40408954083F6CFCF93DF9322
:10128000CDB7DEB729970FB6F894DEBF0FBECDBF3E
:10129000789484B5826084BD84B5816084BD85B551
:1012A000826085BD85B5816085BD80916E0081605D
:1012B00080936E0010928100809181008260809303
:1012C0008100809181008160809381008091800005
:1012D0008160809380008091B10084608093B10030
:1012E0008091B00081608093B00080917A0084602A
:1012F00080937A0080917A00826080937A00809156
:101300007A00816080937A0080917A00806880936F
:101310007A001092C100E0911604F091170482E067
:101320008083E0911204F09113041082E091140480
:10133000F091150480E1808310921E04E0911A045C
:10134000F0911B0486E08083E0911804F091190469
:10135000808180618083E0911804F091190480817C
:1013600088608083E0911804F0911904808180687E
:101370008083E0911804F091190480818F7D80832F
:1013800061E08DE00E94780261E085E00E947802D1
:1013900062E084E00E94780262E083E00E947802CA
:1013A0001092C4021092C30210923B0310925D038C
:1013B0001092390381E0809338031092130361E0A7
:1013C00082E10E944A0261E083E10E944A02809128
:1013D000B9008E7F8093B9008091B9008D7F809392
:1013E000B90088E48093B80085E48093BC0089EE5E
:1013F00090E09093C2028093C1028AEE90E09093B5
:10140000C0028093BF028091D4041982BE016F5F35
:101410007F4F0E94C30341E064E08091D4040E94A6
:101420002A0541E063E08091D4040E942A0508EE79
:1014300013E025ED34E041E060E08091D4040E94A7
:101440003C04F4EDEF2EF2E0FF2E10E000E0C801C6
:101450000E944B0FD7018D937D010F5F1F4F0A3004
:101460001105A9F7EAECEE2EE2E0FE2E04E110E011
:10147000C8010E944B0FF70181937F010F5F1F4F3F
:101480000E311105A9F75EEDA52E52E0B52E00E054
:1014900011E06BEFE62E62E0F62E7AECC72E72E0DA
:1014A000D72E24ED32E03B832A83AA81BB816D9144
:1014B0007D91BB83AA83F601219131916F01CB010C
:1014C000820F931F97FD019695958795D7018D9370
:1014D0009D937D01621B730B77FF03C0719561952E
:1014E0007109072E000C880B990B0E9478109B0144
:1014F000AC0160E070E08AE794E40E94CE0FF8014E
:1015000061937193819391938F012A813B81A216FC
:10151000B30659F68EE190E00E944B0F182F8FE131
:1015200090E00E944B0F212F30E0322F2227820FB4
:10153000932F911D94509093E4028093E30282E2F2
:1015400090E00E944B0F182F83E290E00E944B0F17
:10155000212F30E0322F2227820F932F911D94509C
:101560009093E0028093DF020FED14E0EE24E39409
:10157000F12C9CE0D92E22E0C22ED8018C918C3027
:1015800008F057C0F701E85EFE4FB08061E08B2D98
:101590000E947802F8018081282F30E0F901EE0FD7
:1015A000FF1FE20FF31FE155FB4F2B2D2F7390818F
:1015B000907C922B9083D80111961C9211971296D1
:1015C0001C926D2D0E9471118D9DA001112430E09F
:1015D00020E0BA01620F731FFB01EE0FFF1FE60F41
:1015E000F71FE155FB4F908196FD15C02F5F3F4FD0
:1015F0002C30310571F781110EC010928000C0921D
:1016000081001092850010928400B19A80916F0041
:10161000826080936F00D801EC918E2F90E0FC01E6
:10162000EE0FFF1FE80FF91FE155FB4F808180642B
:1016300080836CED75E0C8010E94E603BFEFEB1AF2
:10164000FB0A0D5F1F4FE7E0EE16F10409F095CF9E
:1016500060E08DE00E944A0261E085E00E944A025B
:1016600064E670E080E090E00E94CE0261E08DE0F0
:101670000E944A0260E085E00E944A0264E670E04F
:1016800080E090E00E94CE0260E08DE00E944A027D
:1016900061E085E00E944A0264E670E080E090E04C
:1016A0000E94CE0261E08DE00E944A0260E085E087
:1016B0000E944A0264E670E080E090E00E94CE0260
:1016C00060E08DE00E944A0261E085E00E944A02EB
:1016D00064E670E080E090E00E94CE0261E08DE080
:1016E0000E944A0260E085E00E944A0264E670E0DF
:1016F00080E090E00E94CE028091DD028F93809185
:10170000DC028F938091DB028F938091DA028F93BA
:101710008091D9028F938091D8028F938091D702C4
:101720008F938091D6028F938091D5028F93809171
:10173000D4028F938091E0028F938091DF028F9388
:101740008091E4028F938091E3028F9386E491E08D
:101750009F938F930EE513E01F930F930E94AB119D
:101760000E941D048091D3028F938091D2028F93A7
:101770008091D1028F938091D0028F938091CF027C
:101780008F938091CE028F938091CD028F93809121
:10179000CC028F938091CB028F938091CA028F935A
:1017A0008091E0028F938091DF028F938091E40219
:1017B0008F938091E3028F9385E791E09F938F93BE
:1017C0001F930F930E94AB110FB6F894DEBF0FBEAC
:1017D000CDBF0E941D0468EB7BE080E090E00E949A
:1017E000CE02180118EB812E1BE0912E0E940003FF
:1017F0000091C6021091C7022091C8023091C9021F
:10180000601B710B820B930B643F71408105910546
:10181000B8F00E9400036093C6027093C7028093E1
:10182000C8029093C9028091C50291E0811190E0B5
:101830009093C50260E0811161E08DE00E944A0250
:1018400083E00E942102892B09F051C18091DE02C0
:1018500081114DC16AE070E080E090E00E94CE020C
:1018600083E00E942102892B09F468C284E00E946F
:101870002102892B49F46AE070E080E090E00E9448
:10188000CE0284E00E9421020E94000300910F0317
:10189000109110032091110330911203601B710B02
:1018A000820B930B653671058105910508F412C111
:1018B0000E94000360930F03709310038093110341
:1018C000909312030E945F05A5E0B3E0BD83AC8353
:1018D00001EF12E067EEC62E62E0D62EE0E0F1E006
:1018E000F987E8872BEF32E03F832E83F12CE12C40
:1018F000AC81BD81AD90BD90BD83AC83EE81FF8195
:1019000081919191FF83EE83A885B9854D905D907B
:101910006D907D90B987A887B501681B790B072E5C
:10192000000C880B990B0E947810A30192010E9471
:10193000041120E030E84BEB54E40E94620F0E9457
:1019400040109B01F80171836083D6018D919D91B8
:101950006D018A199B0997FF03C0919581959109A3
:101960000597B4F0F6013297B182A082253CB9E028
:101970003B070CF46EC224EC39E0F801318320837C
:10198000D8016D917C91C7018E519B4F0E94E60357
:101990000E5F1F4FB3E0EB0EF11CEFE0EE16F1040B
:1019A00009F0A6CF8091E5029091E6022091E30232
:1019B0003091E402821B930B27E731E0281B390B9F
:1019C000C901880F991F880F991F853C39E093073B
:1019D0000CF449C244EC59E05093E6024093E5020E
:1019E0002091E1023091E2028091DF029091E002C9
:1019F000D901A81BB90BCD0143E0880F991F4A9567
:101A0000E1F7ECEDF5E0E81BF90BCF018930F7E0E9
:101A10009F070CF434C248E057E05093E202409331
:101A2000E1028091E1029091E202821B930B97FF09
:101A300003C091958195910905970CF443C080915D
:101A4000FA028F938091F9028F938091F8028F931D
:101A50008091F7028F938091F5029091F602D40164
:101A6000A81BB90BCD019F93AF938091F302909186
:101A7000F402F401E81BF90BCF019F93EF938091DF
:101A8000F1029091F2029401281B390BC9019F9336
:101A90002F938091E5029091E602A401481B590B17
:101AA000CA019F934F9383ED91E09F938F933F9251
:101AB0002F920E94AB110E941D040FB6F894DEBF56
:101AC0000FBECDBF6091E5027091E6028FED94E00C
:101AD0000E94E60320E030E0232B09F487CE0E9429
:101AE0005501882309F47ECE0E9400007BCE83E05E
:101AF0000E942102892B09F0B9CE8091DE0281304B
:101B000009F0B4CE6AE070E080E090E00E94CE027E
:101B100083E00E942102892B09F0A8CE83E00E9475
:101B20002102892BD9F30E945F05809105039091D2
:101B300006039093CB028093CA0280910703909191
:101B400008039093CD028093CC0280910903909179
:101B50000A039093CF028093CE0280910B03909161
:101B60000C039093D1028093D00280910D03909149
:101B70000E039093D3028093D202F0E0EF2EF1E0B7
:101B8000FF2EABEFAA2EA2E0BA2EBAECCB2EB2E01B
:101B9000DB2E04ED12E0D8016D917D918D01F601EF
:101BA000219131916F01CB01820F931F97FD019617
:101BB00095958795D5018D939D935D01621B730B60
:101BC00077FF03C0719561957109072E000C880B92
:101BD000990B0E9478109B01AC0160E070E08AE7ED
:101BE00094E40E94CE0FF7016193719381939193D6
:101BF0007F012A813B810217130769F661E085E0C6
:101C00000E944A0264EF71E080E090E00E94CE0200
:101C100060E085E00E944A020AEC12E074E1E72EDF
:101C2000F12CD8016D918D01C7010E94530FBFEFB8
:101C3000EB1AFB0AEEE1EE16F10499F74091E5028A
:101C40005091E602CA019C5F9093E4028093E30204
:101C50002091E1023091E2023C5F3093E002209358
:101C6000DF0297FF02C081509F4F692F8EE190E005
:101C70000E94530F8091E3029091E40260E071E0D2
:101C80000E947D11682F8FE190E00E94530F809198
:101C9000DF029091E00297FF02C081509F4F692FB1
:101CA00082E290E00E94530F8091DF029091E00267
:101CB00060E071E00E947D11682F83E290E00E9455
:101CC000530F1092DE0280910E038F9380910D03CB
:101CD0008F9380910C038F9380910B038F9380914E
:101CE0000A038F93809109038F93809108038F9348
:101CF000809107038F93809106038F938091050352
:101D00008F938091E2028F938091E1028F93809173
:101D1000E6028F938091E5028F9325EA31E03F93AD
:101D20002F933F922F920E94AB110E941D0468EBEB
:101D30007BE080E090E00E94CE0285C083E00E94BC
:101D40002102892BD9F30E945F05809105039091B0
:101D500006039093D5028093D4028091070390915B
:101D600008039093D7028093D60280910903909143
:101D70000A039093D9028093D80280910B0390912B
:101D80000C039093DB028093DA0280910D03909113
:101D90000E039093DD028093DC0261E085E00E94F7
:101DA0004A0264E670E080E090E00E94CE0260E0CB
:101DB00085E00E944A0204ED12E0F12CE12CD801EA
:101DC0006D918D01C7010E94530FBFEFEB1AFB0A03
:101DD000EAE0EE16F10499F7F1E0F093DE0280916B
:101DE0000E038F9380910D038F9380910C038F933B
:101DF00080910B038F9380910A038F938091090345
:101E00008F93809108038F93809107038F93809124
:101E100006038F93809105038F938091E2028F9345
:101E20008091E1028F938091E6028F938091E50289
:101E30008F9325EA31E03F932F933F922F920E9498
:101E4000AB110E941D040FB6F894DEBF0FBECDBFCC
:101E50000DCD243F31400CF093CDE4EFF1E0D801FB
:101E6000ED93FC938DCD843F51E095072CF090933A
:101E7000E6028093E502B4CD84EF91E0F8CF803B99
:101E800054E095072CF09093E2028093E102C9CDD3
:101E900080EB94E0F8CFF999FECF92BD81BDF89A1E
:101EA000992780B50895262FF999FECF1FBA92BDC4
:101EB00081BD20BD0FB6F894FA9AF99A0FBE01962B
:101EC00008955058BB27AA270E94790F0C94CA1076
:101ED0000E94BC1038F00E94C31020F039F49F3FDC
:101EE00019F426F40C94B9100EF4E095E7FB0C9469
:101EF000B310E92F0E94DB1058F3BA17620773077B
:101F00008407950720F079F4A6F50C94FD100EF4E3
:101F1000E0950B2EBA2FA02D0B01B90190010C01F9
:101F2000CA01A0011124FF27591B99F0593F50F411
:101F3000503E68F11A16F040A22F232F342F442769
:101F4000585FF3CF469537952795A795F040539561
:101F5000C9F77EF41F16BA0B620B730B840BBAF031
:101F60009150A1F0FF0FBB1F661F771F881FC2F79C
:101F70000EC0BA0F621F731F841F48F487957795B0
:101F80006795B795F7959E3F08F0B0CF9395880F6A
:101F900008F09927EE0F9795879508950E94E20F14
:101FA0000C94CA100E94C31058F00E94BC1040F05C
:101FB00029F45F3F29F00C94B31051110C94FE10DA
:101FC0000C94B9100E94DB1068F39923B1F35523E8
:101FD00091F3951B550BBB27AA276217730784073C
:101FE00038F09F5F5F4F220F331F441FAA1FA9F3D2
:101FF00035D00E2E3AF0E0E832D091505040E695C0
:10200000001CCAF72BD0FE2F29D0660F771F881F20
:10201000BB1F261737074807AB07B0E809F0BB0B13
:10202000802DBF01FF2793585F4F3AF09E3F510527
:1020300078F00C94B3100C94FE105F3FE4F3983EDC
:10204000D4F3869577956795B795F7959F5FC9F710
:10205000880F911D9695879597F90895E1E0660F91
:10206000771F881FBB1F621773078407BA0720F00A
:10207000621B730B840BBA0BEE1F88F7E095089573
:102080000E9447106894B1110C94FE1008950E94AC
:10209000E31088F09F5798F0B92F9927B751B0F007
:1020A000E1F0660F771F881F991F1AF0BA95C9F7DC
:1020B00014C0B13091F00E94FD10B1E008950C946D
:1020C000FD10672F782F8827B85F39F0B93FCCF320
:1020D000869577956795B395D9F73EF49095809559
:1020E000709561957F4F8F4F9F4F0895E89409C079
:1020F00097FB3EF490958095709561957F4F8F4F3B
:102100009F4F9923A9F0F92F96E9BB279395F69550
:10211000879577956795B795F111F8CFFAF4BB0FCE
:1021200011F460FF1BC06F5F7F4F8F4F9F4F16C032
:10213000882311F096E911C0772321F09EE8872FBC
:10214000762F05C0662371F096E8862F70E060E078
:102150002AF09A95660F771F881FDAF7880F9695F1
:10216000879597F9089597F99F6780E870E060E098
:1021700008959FEF80EC089500240A941616170620
:1021800018060906089500240A9412161306140668
:1021900005060895092E0394000C11F4882352F0CB
:1021A000BB0F40F4BF2B11F460FF04C06F5F7F4F83
:1021B0008F4F9F4F089557FD9058440F551F59F06A
:1021C0005F3F71F04795880F97FB991F61F09F3F24
:1021D00079F087950895121613061406551FF2CF4D
:1021E0004695F1DF08C0161617061806991FF1CF9D
:1021F00086957105610508940895E894BB276627C4
:102200007727CB0197F908950E9417110C94CA10F3
:102210000E94BC1038F00E94C31020F0952311F0EA
:102220000C94B3100C94B91011240C94FE100E945D
:10223000DB1070F3959FC1F3950F50E0551F629F1F
:10224000F001729FBB27F00DB11D639FAA27F00D0F
:10225000B11DAA1F649F6627B00DA11D661F829F36
:102260002227B00DA11D621F739FB00DA11D621F1B
:10227000839FA00D611D221F749F3327A00D611D38
:10228000231F849F600D211D822F762F6A2F11241A
:102290009F5750409AF0F1F088234AF0EE0FFF1F4D
:1022A000BB1F661F771F881F91505040A9F79E3FA4
:1022B000510580F00C94B3100C94FE105F3FE4F3D2
:1022C000983ED4F3869577956795B795F795E795FA
:1022D0009F5FC1F7FE2B880F911D9695879597F903
:1022E0000895991B79E004C0991F961708F0961B72
:1022F000881F7A95C9F78095089597FB072E16F4E5
:10230000009407D077FD09D00E94911107FC05D0F9
:102310003EF4909581959F4F0895709561957F4FFC
:102320000895AA1BBB1B51E107C0AA1FBB1FA6171C
:10233000B70710F0A61BB70B881F991F5A95A9F76E
:1023400080959095BC01CD010895EE0FFF1F05907B
:10235000F491E02D0994AEE0B0E0E1EBF1E10C94F2
:102360005A140D891E8986E08C831A8309838FEFA6
:102370009FE79E838D83AE01475E5F4F6F89788DA7
:10238000CE0101960E94CE112F813885020F131FB6
:10239000F80110822E96E4E00C947614ABE0B0E0E5
:1023A000E4EDF1E10C944C147C013B018A01FC0149
:1023B00017821682838181FFC8C1CE0101965C011C
:1023C000F7019381F30193FD859193FF81913F0183
:1023D000882309F453C1853239F493FD859193FF25
:1023E00081913F01853229F4B70190E00E94BE132C
:1023F000E7CF912C212C312CFFE1F31538F08B32F3
:1024000011F190F4803209F1833229F137FC3CC09C
:1024100020ED280F2A3050F536FE20C08AE0989E25
:10242000200D1124922E06C08D3291F0803371F769
:10243000689430F8F30193FD859193FF81913F01FA
:102440008111DACF21C0689431F8689432F8F2CF64
:10245000689433F8EFCF689434F8ECCFEAE02E9E1E
:10246000200D1124222E689435F8E4CF8E3229F401
:1024700036FC04C1689436F8DDCF8C3619F46894C4
:1024800037F8D8CF8836B1F2982F9F7D9554933086
:10249000E0F08336A1F18337C1F1833509F063C0E1
:1024A0002801F2E04F0E511CF801C080D180692D47
:1024B00070E036FC02C06FEF7FEFC6010E94A813E8
:1024C0004C01689437F882010AC00C5F1F4FFFE38C
:1024D000F98388248394912C6501E89437F833FEBE
:1024E0002DC0522C8114910471F5552009F468CF48
:1024F000B70180E290E00E94BE135A94F6CFF80133
:10250000808189830E5F1F4FE4CF2801F2E04F0ED8
:10251000511CF801C080D180692D70E036FC02C0EA
:102520006FEF7FEFC6010E94B3134C018201D5CF3C
:10253000B70180E290E00E94BE132A942814190487
:1025400009F0B0F7CECFF60137FC859137FE8191C7
:102550006F01B70190E00E94BE1351105A94F1E050
:102560008F1A9108BFCF843619F0893609F077C0E9
:10257000F80137FE6BC060817181828193810C5FAD
:102580001F4FF32DFF763F2E97FF09C09095809542
:10259000709561957F4F8F4F9F4F689437F82AE071
:1025A00030E0A5010E94EE13C82ECA188C2C432CD3
:1025B00036FE0CC0E89440F8C91440F434FE05C05F
:1025C00032FC03C0F32DFE7E4F2E892C44FE95C0B5
:1025D000FE01EC0DF11D8081803309F087C0242DB0
:1025E000297E422E842D8870582E43FC95C040FED3
:1025F0008FC09C2C821418F42C0C922C981844FE3A
:1026000091C0B70180E390E00E94BE1342FE09C072
:1026100088E790E041FE02C088E590E0B7010E94A3
:10262000BE13C91408F48AC0CA94D12C9FEFC91AEA
:10263000D90ACA0CDB1CF60182916F01B70190E048
:102640000E94BE13AC14BD04B1F74FCF60817181FD
:10265000072E000C880B990B0E5F1F4F92CFD32CC7
:10266000E894D4F82AE030E0853739F1232D297F2A
:10267000D22E8F3601F148F48835A9F0F701868112
:1026800097812B96E2E10C946814803749F08837E3
:10269000A9F7D4FE02C06894D2F820E130E00DC062
:1026A0006894D4F8F6CF34FE03C0822F8660D82E0B
:1026B00020E132E002C028E030E0F801D7FE0FC090
:1026C00060817181828193810C5F1F4FA5010E94FF
:1026D000EE13C82ECA183D2CE89437F867CF6081F6
:1026E000718190E080E00E5F1F4FF0CF42FC02C08E
:1026F000839478CF8394839475CF842D867809F45E
:1027000071CFF6CFB70180E290E00E94BE138394B0
:102710008214C0F3512C73CF522C5818821408F431
:102720006ECFF8CF842D867809F47BCF8BE241FE03
:1027300080E247FC8DE2B70190E071CFB70180E302
:1027400090E00E94BE139A946CCF8FEF9FEF99CFC9
:10275000FC010590615070400110D8F7809590956C
:102760008E0F9F1F0895FC01615070400190011071
:10277000D8F7809590958E0F9F1F08950F931F9304
:10278000CF93DF93182F092FEB018B8181FD09C0B7
:102790001FEF0FEF812F902FDF91CF911F910F919E
:1027A000089582FF14C02E813F818C819D8128175E
:1027B00039073CF4E881F981CF0101969983888338
:1027C00010838E819F8101969F838E83E3CFE8855E
:1027D000F985812F0995892BA1F3DACFFA01AA2770
:1027E000283051F1203181F1E8946F936E7F6E5F54
:1027F0007F4F8F4F9F4FAF4FB1E03ED0B4E03CD002
:10280000670F781F891F9A1FA11D680F791F8A1FE4
:10281000911DA11D6A0F711D811D911DA11D20D04B
:1028200009F468943F912AE0269F11243019305D05
:102830003193DEF6CF010895462F4770405D4193F6
:10284000B3E00FD0C9F7F6CF462F4F70405D4A3343
:1028500018F0495D31FD4052419302D0A9F7EACF0B
:10286000B4E0A6959795879577956795BA95C9F73A
:1028700000976105710508959B01AC010A2E06942D
:102880005795479537952795BA95C9F7620F731FE6
:10289000841F951FA01D08952F923F924F925F9223
:1028A0006F927F928F929F92AF92BF92CF92DF9260
:1028B000EF92FF920F931F93CF93DF93CDB7DEB7C5
:1028C000CA1BDB0B0FB6F894DEBF0FBECDBF099459
:1028D0002A88398848885F846E847D848C849B84B0
:1028E000AA84B984C884DF80EE80FD800C811B81BE
:1028F000AA81B981CE0FD11D0FB6F894DEBF0FBEED
:0A290000CDBFED010895F894FFCF5C
:10290A000000803F0000803F0000803F0000803FC1
:10291A000000803F14150E10110B0A090807060063
:10292A000000008B01EB001801D801490127013B87
:10293A00010000000094036703E30344030C0354FB
:10294A000345030D0A00783A2530346420793A2584
:10295A00303464204144435F4D494E3A2530346453
:10296A002025303464202530346420253034642016
:10297A002530346400783A2530346420793A253099
:10298A00346420204144435F4D41583A2530346431
:10299A0020253034642025303464202530346420E6
:1029AA002530346400783A256420793A2564206118
:1029BA0064303A2564206164313A256420616431C7
:1029CA003A2564206164333A2564206164343A25E7
:1029DA006420007B23303030502530346454303545
:1029EA003030212330303150253034645430313086
:1029FA003021233030325025303464543031303075
:102A0A002123303033502530346454303130302172
:102A1A00233030345025303464543031303021235F
:102A2A0030303550253034645430313030217D0017
:00000001FF
